{
	"data": {
		"bytecode": {
			"linkReferences": {},
			"object": "60806040526040518060a0016040528073d0b9875dc4a714dc4896ffaba29c638865167e2b73ffffffffffffffffffffffffffffffffffffffff1673ffffffffffffffffffffffffffffffffffffffff16815260200173d9176512e7f9900c268989494814f348c29de9fa73ffffffffffffffffffffffffffffffffffffffff1673ffffffffffffffffffffffffffffffffffffffff16815260200173b7f3c0d3aaad4c518f042cac7d5bf38f30517beb73ffffffffffffffffffffffffffffffffffffffff1673ffffffffffffffffffffffffffffffffffffffff168152602001734d33717cd779e09e755a0d97565bdc15fee279b273ffffffffffffffffffffffffffffffffffffffff1673ffffffffffffffffffffffffffffffffffffffff168152602001737970856f9a77401f86becfd558dfd3e99228b8e473ffffffffffffffffffffffffffffffffffffffff1673ffffffffffffffffffffffffffffffffffffffff16815250600890600561017b929190610c1a565b50670de0b6b3a7640000601355348015610193575f5ffd5b50336040518060400160405280600781526020017f415220506c7573000000000000000000000000000000000000000000000000008152506040518060400160405280600381526020017f41522b000000000000000000000000000000000000000000000000000000000081525081600390816102109190610eee565b5080600490816102209190610eee565b5050505f73ffffffffffffffffffffffffffffffffffffffff168173ffffffffffffffffffffffffffffffffffffffff1603610293575f6040517f1e4fbdf700000000000000000000000000000000000000000000000000000000815260040161028a9190610ffc565b60405180910390fd5b6102a2816107ae60201b60201c565b5060016006819055505f60075f6101000a81548160ff0219169083151502179055506102e1336c064f964e68233a76f52000000061087160201b60201c565b61031233736794d2ac1d6375bac41a03b7303146bf1e8edbeb6b1027e72f1f128130880000006108f660201b60201c565b5f5f90505b600581101561041c57610370336008836005811061033857610337611015565b5b015f9054906101000a900473ffffffffffffffffffffffffffffffffffffffff166a52b7d2dcc80cd2e40000006108f660201b60201c565b61039a6a52b7d2dcc80cd2e40000006b014adf4b7320334b900000006109ec60201b90919060201c565b60105f600884600581106103b1576103b0611015565b5b015f9054906101000a900473ffffffffffffffffffffffffffffffffffffffff1673ffffffffffffffffffffffffffffffffffffffff1673ffffffffffffffffffffffffffffffffffffffff1681526020019081526020015f20819055508080600101915050610317565b5061044e337312345678901234567890123456789012345678906b169e43a85eb381aa580000006108f660201b60201c565b61047f337323456789012345678901234567890123456789016b06765c793fa10079d00000006108f660201b60201c565b6104b0337334567890123456789012345678901234567890126b06765c793fa10079d00000006108f660201b60201c565b6104e1337345678901234567890123456789012345678901236b19d971e4fe8401e7400000006108f660201b60201c565b6001600d5f736794d2ac1d6375bac41a03b7303146bf1e8edbeb73ffffffffffffffffffffffffffffffffffffffff1673ffffffffffffffffffffffffffffffffffffffff1681526020019081526020015f205f6101000a81548160ff0219169083151502179055506001600d5f73123456789012345678901234567890123456789073ffffffffffffffffffffffffffffffffffffffff1673ffffffffffffffffffffffffffffffffffffffff1681526020019081526020015f205f6101000a81548160ff0219169083151502179055506001600d5f73234567890123456789012345678901234567890173ffffffffffffffffffffffffffffffffffffffff1673ffffffffffffffffffffffffffffffffffffffff1681526020019081526020015f205f6101000a81548160ff0219169083151502179055506001600d5f73345678901234567890123456789012345678901273ffffffffffffffffffffffffffffffffffffffff1673ffffffffffffffffffffffffffffffffffffffff1681526020019081526020015f205f6101000a81548160ff0219169083151502179055506001600d5f73456789012345678901234567890123456789012373ffffffffffffffffffffffffffffffffffffffff1673ffffffffffffffffffffffffffffffffffffffff1681526020019081526020015f205f6101000a81548160ff0219169083151502179055505f5f90505b6005811015610792576001600d5f6008846005811061071557610714611015565b5b015f9054906101000a900473ffffffffffffffffffffffffffffffffffffffff1673ffffffffffffffffffffffffffffffffffffffff1673ffffffffffffffffffffffffffffffffffffffff1681526020019081526020015f205f6101000a81548160ff02191690831515021790555080806001019150506106f3565b506367748580600e819055506367748580600f81905550611132565b5f60055f9054906101000a900473ffffffffffffffffffffffffffffffffffffffff1690508160055f6101000a81548173ffffffffffffffffffffffffffffffffffffffff021916908373ffffffffffffffffffffffffffffffffffffffff1602179055508173ffffffffffffffffffffffffffffffffffffffff168173ffffffffffffffffffffffffffffffffffffffff167f8be0079c531659141344cd1fd0a4f28419497f9722a3daafe3b4186f6b6457e060405160405180910390a35050565b5f73ffffffffffffffffffffffffffffffffffffffff168273ffffffffffffffffffffffffffffffffffffffff16036108e1575f6040517fec442f050000000000000000000000000000000000000000000000000000000081526004016108d89190610ffc565b60405180910390fd5b6108f25f8383610a0160201b60201c565b5050565b5f73ffffffffffffffffffffffffffffffffffffffff168373ffffffffffffffffffffffffffffffffffffffff1603610966575f6040517f96c6fd1e00000000000000000000000000000000000000000000000000000000815260040161095d9190610ffc565b60405180910390fd5b5f73ffffffffffffffffffffffffffffffffffffffff168273ffffffffffffffffffffffffffffffffffffffff16036109d6575f6040517fec442f050000000000000000000000000000000000000000000000000000000081526004016109cd9190610ffc565b60405180910390fd5b6109e7838383610a0160201b60201c565b505050565b5f81836109f9919061106f565b905092915050565b5f73ffffffffffffffffffffffffffffffffffffffff168373ffffffffffffffffffffffffffffffffffffffff1603610a51578060025f828254610a4591906110a2565b92505081905550610b1f565b5f5f5f8573ffffffffffffffffffffffffffffffffffffffff1673ffffffffffffffffffffffffffffffffffffffff1681526020019081526020015f2054905081811015610ada578381836040517fe450d38c000000000000000000000000000000000000000000000000000000008152600401610ad1939291906110e4565b60405180910390fd5b8181035f5f8673ffffffffffffffffffffffffffffffffffffffff1673ffffffffffffffffffffffffffffffffffffffff1681526020019081526020015f2081905550505b5f73ffffffffffffffffffffffffffffffffffffffff168273ffffffffffffffffffffffffffffffffffffffff1603610b66578060025f8282540392505081905550610bb0565b805f5f8473ffffffffffffffffffffffffffffffffffffffff1673ffffffffffffffffffffffffffffffffffffffff1681526020019081526020015f205f82825401925050819055505b8173ffffffffffffffffffffffffffffffffffffffff168373ffffffffffffffffffffffffffffffffffffffff167fddf252ad1be2c89b69c2b068fc378daa952ba7f163c4a11628f55a4df523b3ef83604051610c0d9190611119565b60405180910390a3505050565b8260058101928215610c85579160200282015b82811115610c84578251825f6101000a81548173ffffffffffffffffffffffffffffffffffffffff021916908373ffffffffffffffffffffffffffffffffffffffff16021790555091602001919060010190610c2d565b5b509050610c929190610c96565b5090565b5b80821115610cad575f815f905550600101610c97565b5090565b5f81519050919050565b7f4e487b71000000000000000000000000000000000000000000000000000000005f52604160045260245ffd5b7f4e487b71000000000000000000000000000000000000000000000000000000005f52602260045260245ffd5b5f6002820490506001821680610d2c57607f821691505b602082108103610d3f57610d3e610ce8565b5b50919050565b5f819050815f5260205f209050919050565b5f6020601f8301049050919050565b5f82821b905092915050565b5f60088302610da17fffffffffffffffffffffffffffffffffffffffffffffffffffffffffffffffff82610d66565b610dab8683610d66565b95508019841693508086168417925050509392505050565b5f819050919050565b5f819050919050565b5f610def610dea610de584610dc3565b610dcc565b610dc3565b9050919050565b5f819050919050565b610e0883610dd5565b610e1c610e1482610df6565b848454610d72565b825550505050565b5f5f905090565b610e33610e24565b610e3e818484610dff565b505050565b5b81811015610e6157610e565f82610e2b565b600181019050610e44565b5050565b601f821115610ea657610e7781610d45565b610e8084610d57565b81016020851015610e8f578190505b610ea3610e9b85610d57565b830182610e43565b50505b505050565b5f82821c905092915050565b5f610ec65f1984600802610eab565b1980831691505092915050565b5f610ede8383610eb7565b9150826002028217905092915050565b610ef782610cb1565b67ffffffffffffffff811115610f1057610f0f610cbb565b5b610f1a8254610d15565b610f25828285610e65565b5f60209050601f831160018114610f56575f8415610f44578287015190505b610f4e8582610ed3565b865550610fb5565b601f198416610f6486610d45565b5f5b82811015610f8b57848901518255600182019150602085019450602081019050610f66565b86831015610fa85784890151610fa4601f891682610eb7565b8355505b6001600288020188555050505b505050505050565b5f73ffffffffffffffffffffffffffffffffffffffff82169050919050565b5f610fe682610fbd565b9050919050565b610ff681610fdc565b82525050565b5f60208201905061100f5f830184610fed565b92915050565b7f4e487b71000000000000000000000000000000000000000000000000000000005f52603260045260245ffd5b7f4e487b71000000000000000000000000000000000000000000000000000000005f52601160045260245ffd5b5f61107982610dc3565b915061108483610dc3565b925082820390508181111561109c5761109b611042565b5b92915050565b5f6110ac82610dc3565b91506110b783610dc3565b92508282019050808211156110cf576110ce611042565b5b92915050565b6110de81610dc3565b82525050565b5f6060820190506110f75f830186610fed565b61110460208301856110d5565b61111160408301846110d5565b949350505050565b5f60208201905061112c5f8301846110d5565b92915050565b61401a8061113f5f395ff3fe60806040526004361061034f575f3560e01c806369fcb616116101c5578063a0a32dd6116100f6578063d706946211610094578063ef24b6a31161006e578063ef24b6a314610bcd578063f2fde38b14610bf7578063f6c4768b14610c1f578063f968f49314610c495761034f565b8063d706946214610b3d578063dd62ed3e14610b67578063ef00d22414610ba35761034f565b8063a5ce413b116100d0578063a5ce413b14610ab7578063a9059cbb14610acd578063d091911614610b09578063d0febe4c14610b335761034f565b8063a0a32dd614610a39578063a0eb5dd114610a63578063a1d9cfea14610a8d5761034f565b806386adacfb11610163578063902d55a51161013d578063902d55a514610991578063938579e1146109bb57806395d89b41146109e55780639f76c57a14610a0f5761034f565b806386adacfb1461090157806388f7433a1461092b5780638da5cb5b146109675761034f565b8063715018a61161019f578063715018a6146108815780637284acfd1461089757806373138e4f146108c15780638456cb59146108eb5761034f565b806369fcb616146107f15780636a3134621461081b57806370a08231146108455761034f565b80632b4d35171161029f5780633f4ba83a1161023d57806351c6590a1161021757806351c6590a146107595780635c975abb146107755780635d67a82d1461079f578063676c0d77146107c95761034f565b80633f4ba83a146106f15780634ee9ccd014610707578063504deacd1461072f5761034f565b8063372c653311610279578063372c65331461064d57806338f28e1c146106775780633b7b6188146106a15780633f138d4b146106c95761034f565b80632b4d3517146105cf578063313439a2146105f9578063313ce567146106235761034f565b806316934fc41161030c5780631fab0f54116102e65780631fab0f541461050357806323b872dd1461052d5780632a7eba5c146105695780632a9423e9146105935761034f565b806316934fc41461045f57806316c2be6b1461049d57806318160ddd146104d95761034f565b806306fdde031461035357806308003f781461037d578063095ea7b3146103935780630ab6c3df146103cf5780630baeb6f2146103f957806311ff860d14610423575b5f5ffd5b34801561035e575f5ffd5b50610367610c5f565b6040516103749190612e61565b60405180910390f35b348015610388575f5ffd5b50610391610cef565b005b34801561039e575f5ffd5b506103b960048036038101906103b49190612f1f565b610dca565b6040516103c69190612f77565b60405180910390f35b3480156103da575f5ffd5b506103e3610dec565b6040516103f09190612f9f565b60405180910390f35b348015610404575f5ffd5b5061040d610dfc565b60405161041a9190612fc7565b60405180910390f35b34801561042e575f5ffd5b5061044960048036038101906104449190612fe0565b610e14565b6040516104569190612fc7565b60405180910390f35b34801561046a575f5ffd5b506104856004803603810190610480919061300b565b610e48565b60405161049493929190613036565b60405180910390f35b3480156104a8575f5ffd5b506104c360048036038101906104be919061300b565b610e6e565b6040516104d09190612f77565b60405180910390f35b3480156104e4575f5ffd5b506104ed610e8b565b6040516104fa9190612f9f565b60405180910390f35b34801561050e575f5ffd5b50610517610e94565b6040516105249190612f9f565b60405180910390f35b348015610538575f5ffd5b50610553600480360381019061054e919061306b565b610e9a565b6040516105609190612f77565b60405180910390f35b348015610574575f5ffd5b5061057d610ee5565b60405161058a9190612f9f565b60405180910390f35b34801561059e575f5ffd5b506105b960048036038101906105b4919061300b565b610ef5565b6040516105c69190612f9f565b60405180910390f35b3480156105da575f5ffd5b506105e3610f0a565b6040516105f09190612f9f565b60405180910390f35b348015610604575f5ffd5b5061060d610f1a565b60405161061a9190612f9f565b60405180910390f35b34801561062e575f5ffd5b50610637610f1f565b60405161064491906130d6565b60405180910390f35b348015610658575f5ffd5b50610661610f27565b60405161066e9190612f9f565b60405180910390f35b348015610682575f5ffd5b5061068b610f2f565b6040516106989190612f9f565b60405180910390f35b3480156106ac575f5ffd5b506106c760048036038101906106c291906130ef565b610f35565b005b3480156106d4575f5ffd5b506106ef60048036038101906106ea9190612f1f565b6110d0565b005b3480156106fc575f5ffd5b506107056111a8565b005b348015610712575f5ffd5b5061072d60048036038101906107289190612fe0565b6111ba565b005b34801561073a575f5ffd5b50610743611425565b6040516107509190612f9f565b60405180910390f35b610773600480360381019061076e9190612fe0565b61142a565b005b348015610780575f5ffd5b50610789611548565b6040516107969190612f77565b60405180910390f35b3480156107aa575f5ffd5b506107b361155d565b6040516107c09190612f9f565b60405180910390f35b3480156107d4575f5ffd5b506107ef60048036038101906107ea9190612fe0565b611563565b005b3480156107fc575f5ffd5b506108056115ee565b6040516108129190612f9f565b60405180910390f35b348015610826575f5ffd5b5061082f6115f3565b60405161083c9190612fc7565b60405180910390f35b348015610850575f5ffd5b5061086b6004803603810190610866919061300b565b61160b565b6040516108789190612f9f565b60405180910390f35b34801561088c575f5ffd5b50610895611650565b005b3480156108a2575f5ffd5b506108ab611663565b6040516108b89190612f9f565b60405180910390f35b3480156108cc575f5ffd5b506108d5611673565b6040516108e29190612f9f565b60405180910390f35b3480156108f6575f5ffd5b506108ff611683565b005b34801561090c575f5ffd5b50610915611695565b6040516109229190612f9f565b60405180910390f35b348015610936575f5ffd5b50610951600480360381019061094c919061300b565b6116a4565b60405161095e9190612f9f565b60405180910390f35b348015610972575f5ffd5b5061097b6116b9565b6040516109889190612fc7565b60405180910390f35b34801561099c575f5ffd5b506109a56116e1565b6040516109b29190612f9f565b60405180910390f35b3480156109c6575f5ffd5b506109cf6116f2565b6040516109dc9190612f9f565b60405180910390f35b3480156109f0575f5ffd5b506109f9611702565b604051610a069190612e61565b60405180910390f35b348015610a1a575f5ffd5b50610a23611792565b604051610a309190612f9f565b60405180910390f35b348015610a44575f5ffd5b50610a4d6117a2565b604051610a5a9190612f9f565b60405180910390f35b348015610a6e575f5ffd5b50610a776117b2565b604051610a849190612f9f565b60405180910390f35b348015610a98575f5ffd5b50610aa16117c2565b604051610aae9190612fc7565b60405180910390f35b348015610ac2575f5ffd5b50610acb6117da565b005b348015610ad8575f5ffd5b50610af36004803603810190610aee9190612f1f565b6119d4565b604051610b009190612f77565b60405180910390f35b348015610b14575f5ffd5b50610b1d6119f1565b604051610b2a9190612fc7565b60405180910390f35b610b3b611a09565b005b348015610b48575f5ffd5b50610b51611bee565b604051610b5e9190612f9f565b60405180910390f35b348015610b72575f5ffd5b50610b8d6004803603810190610b88919061312d565b611bf3565b604051610b9a9190612f9f565b60405180910390f35b348015610bae575f5ffd5b50610bb7611c75565b604051610bc49190612f9f565b60405180910390f35b348015610bd8575f5ffd5b50610be1611c7b565b604051610bee9190612fc7565b60405180910390f35b348015610c02575f5ffd5b50610c1d6004803603810190610c18919061300b565b611c93565b005b348015610c2a575f5ffd5b50610c33611d17565b604051610c409190612fc7565b60405180910390f35b348015610c54575f5ffd5b50610c5d611d2f565b005b606060038054610c6e90613198565b80601f0160208091040260200160405190810160405280929190818152602001828054610c9a90613198565b8015610ce55780601f10610cbc57610100808354040283529160200191610ce5565b820191905f5260205f20905b815481529060010190602001808311610cc857829003601f168201915b5050505050905090565b610cf7612091565b6301e13380600e54610d0991906131f5565b421015610d4b576040517f08c379a0000000000000000000000000000000000000000000000000000000008152600401610d4290613298565b60405180910390fd5b610d75736794d2ac1d6375bac41a03b7303146bf1e8edbeb6b7ac8dcffb8f3090a70000000612118565b42600e819055507f8bc81353cf6671d259d22783e39ed930583c86f3f4cf7e981298e6a872dfb15d6b7ac8dcffb8f3090a70000000610db2610e8b565b604051610dc09291906132b6565b60405180910390a1565b5f5f610dd4612197565b9050610de181858561219e565b600191505092915050565b6b0cecb8f27f4200f3a000000081565b73345678901234567890123456789012345678901281565b60088160058110610e23575f80fd5b015f915054906101000a900473ffffffffffffffffffffffffffffffffffffffff1681565b6011602052805f5260405f205f91509050805f0154908060010154908060020154905083565b600d602052805f5260405f205f915054906101000a900460ff1681565b5f600254905090565b600f5481565b5f610ea68484846121b0565b610eda84610eb2612197565b610ed585610ec789610ec2612197565b611bf3565b61259d90919063ffffffff16565b61219e565b600190509392505050565b6b169e43a85eb381aa5800000081565b6012602052805f5260405f205f915090505481565b6b1d14a0219e5482242800000081565b601e81565b5f6012905090565b636774858081565b60135481565b610f3d6125b2565b610f45612601565b681b1ae4d6e2ef500000821015610f91576040517f08c379a0000000000000000000000000000000000000000000000000000000008152600401610f889061334d565b60405180910390fd5b62ed4e00811480610fa557506301da9c0081145b80610fb357506303b5380081145b610ff2576040517f08c379a0000000000000000000000000000000000000000000000000000000008152600401610fe9906133b5565b60405180910390fd5b610ffd33308461264b565b60405180606001604052808381526020014281526020018281525060115f3373ffffffffffffffffffffffffffffffffffffffff1673ffffffffffffffffffffffffffffffffffffffff1681526020019081526020015f205f820151815f015560208201518160010155604082015181600201559050503373ffffffffffffffffffffffffffffffffffffffff167fdd2a19c3bdd089cbe77c04f5655f83de0504d6140d12c8667646f55d0557c4dc83836040516110bc9291906132b6565b60405180910390a26110cc61273b565b5050565b6110d8612091565b6110f573aaf26c2db4c6907143b4c2ea29ffda1b55c7a30c61160b565b811115611137576040517f08c379a000000000000000000000000000000000000000000000000000000000815260040161112e90613443565b60405180910390fd5b61115673aaf26c2db4c6907143b4c2ea29ffda1b55c7a30c838361264b565b8173ffffffffffffffffffffffffffffffffffffffff167f8e4023044b5dd0a0032b0a1ed207924c69b5ffdfe08e83a097ff27970387e0048260405161119c9190612f9f565b60405180910390a25050565b6111b0612091565b6111b8612745565b565b6111c26125b2565b6111ca612601565b5f811161120c576040517f08c379a0000000000000000000000000000000000000000000000000000000008152600401611203906134d1565b60405180910390fd5b806112173330611bf3565b1015611258576040517f08c379a000000000000000000000000000000000000000000000000000000000815260040161124f90613539565b60405180910390fd5b61126333308361264b565b6112823073a5e0829caced8ffdd4de3c43696c57f7d7a678ff8361219e565b5f600267ffffffffffffffff81111561129e5761129d613557565b5b6040519080825280602002602001820160405280156112cc5781602001602082028036833780820191505090505b50905030815f815181106112e3576112e2613584565b5b602002602001019073ffffffffffffffffffffffffffffffffffffffff16908173ffffffffffffffffffffffffffffffffffffffff1681525050730d500b1d8e8ef31e21c99d1db9a6444d3adf12708160018151811061134657611345613584565b5b602002602001019073ffffffffffffffffffffffffffffffffffffffff16908173ffffffffffffffffffffffffffffffffffffffff168152505073a5e0829caced8ffdd4de3c43696c57f7d7a678ff73ffffffffffffffffffffffffffffffffffffffff16631dd16b86835f8433426040518663ffffffff1660e01b81526004016113d59594939291906136aa565b5f604051808303815f875af11580156113f0573d5f5f3e3d5ffd5b505050506040513d5f823e3d601f19601f820116820180604052508101906114189190613829565b505061142261273b565b50565b600a81565b611432612091565b5f3411611474576040517f08c379a000000000000000000000000000000000000000000000000000000000815260040161146b906138e0565b60405180910390fd5b5f81116114b6576040517f08c379a00000000000000000000000000000000000000000000000000000000081526004016114ad906134d1565b60405180910390fd5b6114bf3361160b565b811115611501576040517f08c379a00000000000000000000000000000000000000000000000000000000081526004016114f890613948565b60405180910390fd5b61150c33308361264b565b7f38f8a0c92f4c5b0b6877f878cb4c0c8d348a47b76d716c8e78f425043df9515b813460405161153d9291906132b6565b60405180910390a150565b5f60075f9054906101000a900460ff16905090565b61012c81565b61156b612091565b5f81116115ad576040517f08c379a00000000000000000000000000000000000000000000000000000000081526004016115a4906139b0565b60405180910390fd5b806013819055507f6b361c807733cc94a3b7bda39c1c94dcc0511e91aa47b0f7f918068e93976890816040516115e39190612f9f565b60405180910390a150565b600181565b73456789012345678901234567890123456789012381565b5f5f5f8373ffffffffffffffffffffffffffffffffffffffff1673ffffffffffffffffffffffffffffffffffffffff1681526020019081526020015f20549050919050565b611658612091565b6116615f6127a6565b565b6b014adf4b7320334b9000000081565b6b1027e72f1f1281308800000081565b61168b612091565b611693612869565b565b6a52b7d2dcc80cd2e400000081565b6010602052805f5260405f205f915090505481565b5f60055f9054906101000a900473ffffffffffffffffffffffffffffffffffffffff16905090565b6c064f964e68233a76f52000000081565b6b19d971e4fe8401e74000000081565b60606004805461171190613198565b80601f016020809104026020016040519081016040528092919081815260200182805461173d90613198565b80156117885780601f1061175f57610100808354040283529160200191611788565b820191905f5260205f20905b81548152906001019060200180831161176b57829003601f168201915b5050505050905090565b6b06765c793fa10079d000000081565b6b7ac8dcffb8f3090a7000000081565b6b06765c793fa10079d000000081565b73234567890123456789012345678901234567890181565b6117e26125b2565b6117ea612601565b5f60115f3373ffffffffffffffffffffffffffffffffffffffff1673ffffffffffffffffffffffffffffffffffffffff1681526020019081526020015f206040518060600160405290815f82015481526020016001820154815260200160028201548152505090505f815f015111611897576040517f08c379a000000000000000000000000000000000000000000000000000000000815260040161188e90613a18565b60405180910390fd5b806040015181602001516118ab91906131f5565b4210156118ed576040517f08c379a00000000000000000000000000000000000000000000000000000000081526004016118e490613a80565b60405180910390fd5b5f6118ff825f015183604001516128cb565b9050611921303361191c84865f015161298190919063ffffffff16565b61264b565b60115f3373ffffffffffffffffffffffffffffffffffffffff1673ffffffffffffffffffffffffffffffffffffffff1681526020019081526020015f205f5f82015f9055600182015f9055600282015f905550503373ffffffffffffffffffffffffffffffffffffffff167f6f2d3e000c89d37446b7c0374c0125068ff316d1e3ee302336478a8cd03c2336835f0151836040516119c09291906132b6565b60405180910390a250506119d261273b565b565b5f6119e76119e0612197565b84846121b0565b6001905092915050565b73a5e0829caced8ffdd4de3c43696c57f7d7a678ff81565b611a116125b2565b611a19612601565b5f3411611a5b576040517f08c379a0000000000000000000000000000000000000000000000000000000008152600401611a5290613b0e565b60405180910390fd5b5f611a8b601354611a7d670de0b6b3a76400003461299690919063ffffffff16565b6129ab90919063ffffffff16565b9050611aaa736794d2ac1d6375bac41a03b7303146bf1e8edbeb61160b565b811115611aec576040517f08c379a0000000000000000000000000000000000000000000000000000000008152600401611ae390613b76565b60405180910390fd5b611b0b736794d2ac1d6375bac41a03b7303146bf1e8edbeb338361264b565b6367a2aa004210158015611b23575063681168004211155b15611be3575f6969e10de76676d0800000821015611b4257600a611b45565b60145b60ff1690505f611b716064611b63848661299690919063ffffffff16565b6129ab90919063ffffffff16565b9050611b92733456789012345678901234567890123456789012338361264b565b3373ffffffffffffffffffffffffffffffffffffffff167f90bcf0048b4f2fce00ba208729b9edf192f9ca8c71b84845e2d94f7dffeeddcd82604051611bd89190612f9f565b60405180910390a250505b50611bec61273b565b565b600a81565b5f60015f8473ffffffffffffffffffffffffffffffffffffffff1673ffffffffffffffffffffffffffffffffffffffff1681526020019081526020015f205f8373ffffffffffffffffffffffffffffffffffffffff1673ffffffffffffffffffffffffffffffffffffffff1681526020019081526020015f2054905092915050565b600e5481565b73123456789012345678901234567890123456789081565b611c9b612091565b5f73ffffffffffffffffffffffffffffffffffffffff168173ffffffffffffffffffffffffffffffffffffffff1603611d0b575f6040517f1e4fbdf7000000000000000000000000000000000000000000000000000000008152600401611d029190612fc7565b60405180910390fd5b611d14816127a6565b50565b736794d2ac1d6375bac41a03b7303146bf1e8edbeb81565b611d37612091565b6301e13380600f54611d4991906131f5565b421015611d8b576040517f08c379a0000000000000000000000000000000000000000000000000000000008152600401611d8290613c04565b60405180910390fd5b6301e133806367748580611d9f91906131f5565b4210611dd157611dd030736794d2ac1d6375bac41a03b7303146bf1e8edbeb6b0cecb8f27f4200f3a000000061264b565b5b6303c267006367748580611de591906131f5565b4210611e1757611e1630736794d2ac1d6375bac41a03b7303146bf1e8edbeb6b1d14a0219e5482242800000061264b565b5b5f5f90505b6005811015612087575f60105f60088460058110611e3d57611e3c613584565b5b015f9054906101000a900473ffffffffffffffffffffffffffffffffffffffff1673ffffffffffffffffffffffffffffffffffffffff1673ffffffffffffffffffffffffffffffffffffffff1681526020019081526020015f2054111561207a57611ee83060088360058110611eb657611eb5613584565b5b015f9054906101000a900473ffffffffffffffffffffffffffffffffffffffff166a52b7d2dcc80cd2e400000061264b565b611f776a52b7d2dcc80cd2e400000060105f60088560058110611f0e57611f0d613584565b5b015f9054906101000a900473ffffffffffffffffffffffffffffffffffffffff1673ffffffffffffffffffffffffffffffffffffffff1673ffffffffffffffffffffffffffffffffffffffff1681526020019081526020015f205461259d90919063ffffffff16565b60105f60088460058110611f8e57611f8d613584565b5b015f9054906101000a900473ffffffffffffffffffffffffffffffffffffffff1673ffffffffffffffffffffffffffffffffffffffff1673ffffffffffffffffffffffffffffffffffffffff1681526020019081526020015f20819055506008816005811061200057611fff613584565b5b015f9054906101000a900473ffffffffffffffffffffffffffffffffffffffff1673ffffffffffffffffffffffffffffffffffffffff167fe7b379c6c1fa169e9079c25e9143b127637eef8ec8c9d5c06ddb4ab3e11958886a52b7d2dcc80cd2e40000006040516120719190612f9f565b60405180910390a25b8080600101915050611e1c565b5042600f81905550565b612099612197565b73ffffffffffffffffffffffffffffffffffffffff166120b76116b9565b73ffffffffffffffffffffffffffffffffffffffff1614612116576120da612197565b6040517f118cdaa700000000000000000000000000000000000000000000000000000000815260040161210d9190612fc7565b60405180910390fd5b565b5f73ffffffffffffffffffffffffffffffffffffffff168273ffffffffffffffffffffffffffffffffffffffff1603612188575f6040517f96c6fd1e00000000000000000000000000000000000000000000000000000000815260040161217f9190612fc7565b60405180910390fd5b612193825f836129c0565b5050565b5f33905090565b6121ab8383836001612bd9565b505050565b5f73ffffffffffffffffffffffffffffffffffffffff168373ffffffffffffffffffffffffffffffffffffffff160361221e576040517f08c379a000000000000000000000000000000000000000000000000000000000815260040161221590613c92565b60405180910390fd5b5f73ffffffffffffffffffffffffffffffffffffffff168273ffffffffffffffffffffffffffffffffffffffff160361228c576040517f08c379a000000000000000000000000000000000000000000000000000000000815260040161228390613d20565b60405180910390fd5b5f60125f8573ffffffffffffffffffffffffffffffffffffffff1673ffffffffffffffffffffffffffffffffffffffff1681526020019081526020015f205403612313574260125f8573ffffffffffffffffffffffffffffffffffffffff1673ffffffffffffffffffffffffffffffffffffffff1681526020019081526020015f20819055505b61012c60125f8573ffffffffffffffffffffffffffffffffffffffff1673ffffffffffffffffffffffffffffffffffffffff1681526020019081526020015f205461235e91906131f5565b4210156123a0576040517f08c379a000000000000000000000000000000000000000000000000000000000815260040161239790613d88565b60405180910390fd5b600d5f8473ffffffffffffffffffffffffffffffffffffffff1673ffffffffffffffffffffffffffffffffffffffff1681526020019081526020015f205f9054906101000a900460ff168061243b5750600d5f8373ffffffffffffffffffffffffffffffffffffffff1673ffffffffffffffffffffffffffffffffffffffff1681526020019081526020015f205f9054906101000a900460ff165b156124505761244b83838361264b565b612598565b5f5f90503073ffffffffffffffffffffffffffffffffffffffff168373ffffffffffffffffffffffffffffffffffffffff1614806124cd575073a5e0829caced8ffdd4de3c43696c57f7d7a678ff73ffffffffffffffffffffffffffffffffffffffff168373ffffffffffffffffffffffffffffffffffffffff16145b156124f65769d3c21bcecceda100000082106124ec57601e90506124f1565b600a90505b6124fb565b600190505b5f6125226064612514848661299690919063ffffffff16565b6129ab90919063ffffffff16565b90505f612538828561259d90919063ffffffff16565b90505f8211156125895761254d86308461264b565b7f16e1d1a1108e56d85b28b399ecda0177f0171c07015c648669aff2bcb3d15e0183834260405161258093929190613036565b60405180910390a15b61259486868361264b565b5050505b505050565b5f81836125aa9190613da6565b905092915050565b6002600654036125f7576040517f08c379a00000000000000000000000000000000000000000000000000000000081526004016125ee90613e23565b60405180910390fd5b6002600681905550565b612609611548565b15612649576040517f08c379a000000000000000000000000000000000000000000000000000000000815260040161264090613e8b565b60405180910390fd5b565b5f73ffffffffffffffffffffffffffffffffffffffff168373ffffffffffffffffffffffffffffffffffffffff16036126bb575f6040517f96c6fd1e0000000000000000000000000000000000000000000000000000000081526004016126b29190612fc7565b60405180910390fd5b5f73ffffffffffffffffffffffffffffffffffffffff168273ffffffffffffffffffffffffffffffffffffffff160361272b575f6040517fec442f050000000000000000000000000000000000000000000000000000000081526004016127229190612fc7565b60405180910390fd5b6127368383836129c0565b505050565b6001600681905550565b61274d612da8565b5f60075f6101000a81548160ff0219169083151502179055507f5db9ee0a495bf2e6ff9c91a7834c1ba4fdd244a5e8aa4e537bd38aeae4b073aa61278f612197565b60405161279c9190612fc7565b60405180910390a1565b5f60055f9054906101000a900473ffffffffffffffffffffffffffffffffffffffff1690508160055f6101000a81548173ffffffffffffffffffffffffffffffffffffffff021916908373ffffffffffffffffffffffffffffffffffffffff1602179055508173ffffffffffffffffffffffffffffffffffffffff168173ffffffffffffffffffffffffffffffffffffffff167f8be0079c531659141344cd1fd0a4f28419497f9722a3daafe3b4186f6b6457e060405160405180910390a35050565b612871612601565b600160075f6101000a81548160ff0219169083151502179055507f62e78cea01bee320cd4e420270b5ea74000d11b0c9f74754ebdbfc544b05a2586128b4612197565b6040516128c19190612fc7565b60405180910390a1565b5f62ed4e008203612904576128fd60646128ef601e8661299690919063ffffffff16565b6129ab90919063ffffffff16565b905061297b565b6301da9c00820361293d57612936606461292860c88661299690919063ffffffff16565b6129ab90919063ffffffff16565b905061297b565b6303b5380082036129775761297060646129626101f48661299690919063ffffffff16565b6129ab90919063ffffffff16565b905061297b565b5f90505b92915050565b5f818361298e91906131f5565b905092915050565b5f81836129a39190613ea9565b905092915050565b5f81836129b89190613f17565b905092915050565b5f73ffffffffffffffffffffffffffffffffffffffff168373ffffffffffffffffffffffffffffffffffffffff1603612a10578060025f828254612a0491906131f5565b92505081905550612ade565b5f5f5f8573ffffffffffffffffffffffffffffffffffffffff1673ffffffffffffffffffffffffffffffffffffffff1681526020019081526020015f2054905081811015612a99578381836040517fe450d38c000000000000000000000000000000000000000000000000000000008152600401612a9093929190613f47565b60405180910390fd5b8181035f5f8673ffffffffffffffffffffffffffffffffffffffff1673ffffffffffffffffffffffffffffffffffffffff1681526020019081526020015f2081905550505b5f73ffffffffffffffffffffffffffffffffffffffff168273ffffffffffffffffffffffffffffffffffffffff1603612b25578060025f8282540392505081905550612b6f565b805f5f8473ffffffffffffffffffffffffffffffffffffffff1673ffffffffffffffffffffffffffffffffffffffff1681526020019081526020015f205f82825401925050819055505b8173ffffffffffffffffffffffffffffffffffffffff168373ffffffffffffffffffffffffffffffffffffffff167fddf252ad1be2c89b69c2b068fc378daa952ba7f163c4a11628f55a4df523b3ef83604051612bcc9190612f9f565b60405180910390a3505050565b5f73ffffffffffffffffffffffffffffffffffffffff168473ffffffffffffffffffffffffffffffffffffffff1603612c49575f6040517fe602df05000000000000000000000000000000000000000000000000000000008152600401612c409190612fc7565b60405180910390fd5b5f73ffffffffffffffffffffffffffffffffffffffff168373ffffffffffffffffffffffffffffffffffffffff1603612cb9575f6040517f94280d62000000000000000000000000000000000000000000000000000000008152600401612cb09190612fc7565b60405180910390fd5b8160015f8673ffffffffffffffffffffffffffffffffffffffff1673ffffffffffffffffffffffffffffffffffffffff1681526020019081526020015f205f8573ffffffffffffffffffffffffffffffffffffffff1673ffffffffffffffffffffffffffffffffffffffff1681526020019081526020015f20819055508015612da2578273ffffffffffffffffffffffffffffffffffffffff168473ffffffffffffffffffffffffffffffffffffffff167f8c5be1e5ebec7d5bd14f71427d1e84f3dd0314c0f7b2291e5b200ac8c7c3b92584604051612d999190612f9f565b60405180910390a35b50505050565b612db0611548565b612def576040517f08c379a0000000000000000000000000000000000000000000000000000000008152600401612de690613fc6565b60405180910390fd5b565b5f81519050919050565b5f82825260208201905092915050565b8281835e5f83830152505050565b5f601f19601f8301169050919050565b5f612e3382612df1565b612e3d8185612dfb565b9350612e4d818560208601612e0b565b612e5681612e19565b840191505092915050565b5f6020820190508181035f830152612e798184612e29565b905092915050565b5f604051905090565b5f5ffd5b5f5ffd5b5f73ffffffffffffffffffffffffffffffffffffffff82169050919050565b5f612ebb82612e92565b9050919050565b612ecb81612eb1565b8114612ed5575f5ffd5b50565b5f81359050612ee681612ec2565b92915050565b5f819050919050565b612efe81612eec565b8114612f08575f5ffd5b50565b5f81359050612f1981612ef5565b92915050565b5f5f60408385031215612f3557612f34612e8a565b5b5f612f4285828601612ed8565b9250506020612f5385828601612f0b565b9150509250929050565b5f8115159050919050565b612f7181612f5d565b82525050565b5f602082019050612f8a5f830184612f68565b92915050565b612f9981612eec565b82525050565b5f602082019050612fb25f830184612f90565b92915050565b612fc181612eb1565b82525050565b5f602082019050612fda5f830184612fb8565b92915050565b5f60208284031215612ff557612ff4612e8a565b5b5f61300284828501612f0b565b91505092915050565b5f602082840312156130205761301f612e8a565b5b5f61302d84828501612ed8565b91505092915050565b5f6060820190506130495f830186612f90565b6130566020830185612f90565b6130636040830184612f90565b949350505050565b5f5f5f6060848603121561308257613081612e8a565b5b5f61308f86828701612ed8565b93505060206130a086828701612ed8565b92505060406130b186828701612f0b565b9150509250925092565b5f60ff82169050919050565b6130d0816130bb565b82525050565b5f6020820190506130e95f8301846130c7565b92915050565b5f5f6040838503121561310557613104612e8a565b5b5f61311285828601612f0b565b925050602061312385828601612f0b565b9150509250929050565b5f5f6040838503121561314357613142612e8a565b5b5f61315085828601612ed8565b925050602061316185828601612ed8565b9150509250929050565b7f4e487b71000000000000000000000000000000000000000000000000000000005f52602260045260245ffd5b5f60028204905060018216806131af57607f821691505b6020821081036131c2576131c161316b565b5b50919050565b7f4e487b71000000000000000000000000000000000000000000000000000000005f52601160045260245ffd5b5f6131ff82612eec565b915061320a83612eec565b9250828201905080821115613222576132216131c8565b5b92915050565b7f4275726e2063616e206f6e6c7920626520646f6e65206f6e63652070657220795f8201527f6561720000000000000000000000000000000000000000000000000000000000602082015250565b5f613282602383612dfb565b915061328d82613228565b604082019050919050565b5f6020820190508181035f8301526132af81613276565b9050919050565b5f6040820190506132c95f830185612f90565b6132d66020830184612f90565b9392505050565b7f4d696e696d756d207374616b6520616d6f756e742069732035303020746f6b655f8201527f6e73000000000000000000000000000000000000000000000000000000000000602082015250565b5f613337602283612dfb565b9150613342826132dd565b604082019050919050565b5f6020820190508181035f8301526133648161332b565b9050919050565b7f496e76616c6964206475726174696f6e000000000000000000000000000000005f82015250565b5f61339f601083612dfb565b91506133aa8261336b565b602082019050919050565b5f6020820190508181035f8301526133cc81613393565b9050919050565b7f496e73756666696369656e742077726f6e6720746f6b656e732062616c616e635f8201527f6500000000000000000000000000000000000000000000000000000000000000602082015250565b5f61342d602183612dfb565b9150613438826133d3565b604082019050919050565b5f6020820190508181035f83015261345a81613421565b9050919050565b7f546f6b656e20616d6f756e74206d7573742062652067726561746572207468615f8201527f6e20300000000000000000000000000000000000000000000000000000000000602082015250565b5f6134bb602383612dfb565b91506134c682613461565b604082019050919050565b5f6020820190508181035f8301526134e8816134af565b9050919050565b7f496e73756666696369656e7420616c6c6f77616e6365000000000000000000005f82015250565b5f613523601683612dfb565b915061352e826134ef565b602082019050919050565b5f6020820190508181035f83015261355081613517565b9050919050565b7f4e487b71000000000000000000000000000000000000000000000000000000005f52604160045260245ffd5b7f4e487b71000000000000000000000000000000000000000000000000000000005f52603260045260245ffd5b5f819050919050565b5f819050919050565b5f6135dd6135d86135d3846135b1565b6135ba565b612eec565b9050919050565b6135ed816135c3565b82525050565b5f81519050919050565b5f82825260208201905092915050565b5f819050602082019050919050565b61362581612eb1565b82525050565b5f613636838361361c565b60208301905092915050565b5f602082019050919050565b5f613658826135f3565b61366281856135fd565b935061366d8361360d565b805f5b8381101561369d578151613684888261362b565b975061368f83613642565b925050600181019050613670565b5085935050505092915050565b5f60a0820190506136bd5f830188612f90565b6136ca60208301876135e4565b81810360408301526136dc818661364e565b90506136eb6060830185612fb8565b6136f86080830184612f90565b9695505050505050565b5f5ffd5b61370f82612e19565b810181811067ffffffffffffffff8211171561372e5761372d613557565b5b80604052505050565b5f613740612e81565b905061374c8282613706565b919050565b5f67ffffffffffffffff82111561376b5761376a613557565b5b602082029050602081019050919050565b5f5ffd5b5f8151905061378e81612ef5565b92915050565b5f6137a66137a184613751565b613737565b905080838252602082019050602084028301858111156137c9576137c861377c565b5b835b818110156137f257806137de8882613780565b8452602084019350506020810190506137cb565b5050509392505050565b5f82601f8301126138105761380f613702565b5b8151613820848260208601613794565b91505092915050565b5f6020828403121561383e5761383d612e8a565b5b5f82015167ffffffffffffffff81111561385b5761385a612e8e565b5b613867848285016137fc565b91505092915050565b7f596f75206d7573742073656e6420736f6d65204d4154494320746f20616464205f8201527f6c69717569646974790000000000000000000000000000000000000000000000602082015250565b5f6138ca602983612dfb565b91506138d582613870565b604082019050919050565b5f6020820190508181035f8301526138f7816138be565b9050919050565b7f496e73756666696369656e7420746f6b656e2062616c616e63650000000000005f82015250565b5f613932601a83612dfb565b915061393d826138fe565b602082019050919050565b5f6020820190508181035f83015261395f81613926565b9050919050565b7f5072696365206d7573742062652067726561746572207468616e2030000000005f82015250565b5f61399a601c83612dfb565b91506139a582613966565b602082019050919050565b5f6020820190508181035f8301526139c78161398e565b9050919050565b7f4e6f20746f6b656e73207374616b6564000000000000000000000000000000005f82015250565b5f613a02601083612dfb565b9150613a0d826139ce565b602082019050919050565b5f6020820190508181035f830152613a2f816139f6565b9050919050565b7f5374616b65206475726174696f6e206e6f7420726561636865640000000000005f82015250565b5f613a6a601a83612dfb565b9150613a7582613a36565b602082019050919050565b5f6020820190508181035f830152613a9781613a5e565b9050919050565b7f596f75206d7573742073656e6420736f6d65204d4154494320746f20627579205f8201527f746f6b656e730000000000000000000000000000000000000000000000000000602082015250565b5f613af8602683612dfb565b9150613b0382613a9e565b604082019050919050565b5f6020820190508181035f830152613b2581613aec565b9050919050565b7f496e73756666696369656e7420746f6b656e7320666f722073616c65000000005f82015250565b5f613b60601c83612dfb565b9150613b6b82613b2c565b602082019050919050565b5f6020820190508181035f830152613b8d81613b54565b9050919050565b7f546f6b656e732063616e206f6e6c7920626520756e6c6f636b6564206f6e63655f8201527f2070657220796561720000000000000000000000000000000000000000000000602082015250565b5f613bee602983612dfb565b9150613bf982613b94565b604082019050919050565b5f6020820190508181035f830152613c1b81613be2565b9050919050565b7f45524332303a207472616e736665722066726f6d20746865207a65726f2061645f8201527f6472657373000000000000000000000000000000000000000000000000000000602082015250565b5f613c7c602583612dfb565b9150613c8782613c22565b604082019050919050565b5f6020820190508181035f830152613ca981613c70565b9050919050565b7f45524332303a207472616e7366657220746f20746865207a65726f20616464725f8201527f6573730000000000000000000000000000000000000000000000000000000000602082015250565b5f613d0a602383612dfb565b9150613d1582613cb0565b604082019050919050565b5f6020820190508181035f830152613d3781613cfe565b9050919050565b7f416e74692d626f742064656c6179206e6f7420706173736564000000000000005f82015250565b5f613d72601983612dfb565b9150613d7d82613d3e565b602082019050919050565b5f6020820190508181035f830152613d9f81613d66565b9050919050565b5f613db082612eec565b9150613dbb83612eec565b9250828203905081811115613dd357613dd26131c8565b5b92915050565b7f5265656e7472616e637947756172643a207265656e7472616e742063616c6c005f82015250565b5f613e0d601f83612dfb565b9150613e1882613dd9565b602082019050919050565b5f6020820190508181035f830152613e3a81613e01565b9050919050565b7f5061757361626c653a20706175736564000000000000000000000000000000005f82015250565b5f613e75601083612dfb565b9150613e8082613e41565b602082019050919050565b5f6020820190508181035f830152613ea281613e69565b9050919050565b5f613eb382612eec565b9150613ebe83612eec565b9250828202613ecc81612eec565b91508282048414831517613ee357613ee26131c8565b5b5092915050565b7f4e487b71000000000000000000000000000000000000000000000000000000005f52601260045260245ffd5b5f613f2182612eec565b9150613f2c83612eec565b925082613f3c57613f3b613eea565b5b828204905092915050565b5f606082019050613f5a5f830186612fb8565b613f676020830185612f90565b613f746040830184612f90565b949350505050565b7f5061757361626c653a206e6f74207061757365640000000000000000000000005f82015250565b5f613fb0601483612dfb565b9150613fbb82613f7c565b602082019050919050565b5f6020820190508181035f830152613fdd81613fa4565b905091905056fea2646970667358221220185cc744a665b5196c43c69c6624f7b8b02d8dc63366aef7ba096cbf1ca1f8f864736f6c634300081c0033",
			"opcodes": "PUSH1 0x80 PUSH1 0x40 MSTORE PUSH1 0x40 MLOAD DUP1 PUSH1 0xA0 ADD PUSH1 0x40 MSTORE DUP1 PUSH20 0xD0B9875DC4A714DC4896FFABA29C638865167E2B PUSH20 0xFFFFFFFFFFFFFFFFFFFFFFFFFFFFFFFFFFFFFFFF AND PUSH20 0xFFFFFFFFFFFFFFFFFFFFFFFFFFFFFFFFFFFFFFFF AND DUP2 MSTORE PUSH1 0x20 ADD PUSH20 0xD9176512E7F9900C268989494814F348C29DE9FA PUSH20 0xFFFFFFFFFFFFFFFFFFFFFFFFFFFFFFFFFFFFFFFF AND PUSH20 0xFFFFFFFFFFFFFFFFFFFFFFFFFFFFFFFFFFFFFFFF AND DUP2 MSTORE PUSH1 0x20 ADD PUSH20 0xB7F3C0D3AAAD4C518F042CAC7D5BF38F30517BEB PUSH20 0xFFFFFFFFFFFFFFFFFFFFFFFFFFFFFFFFFFFFFFFF AND PUSH20 0xFFFFFFFFFFFFFFFFFFFFFFFFFFFFFFFFFFFFFFFF AND DUP2 MSTORE PUSH1 0x20 ADD PUSH20 0x4D33717CD779E09E755A0D97565BDC15FEE279B2 PUSH20 0xFFFFFFFFFFFFFFFFFFFFFFFFFFFFFFFFFFFFFFFF AND PUSH20 0xFFFFFFFFFFFFFFFFFFFFFFFFFFFFFFFFFFFFFFFF AND DUP2 MSTORE PUSH1 0x20 ADD PUSH20 0x7970856F9A77401F86BECFD558DFD3E99228B8E4 PUSH20 0xFFFFFFFFFFFFFFFFFFFFFFFFFFFFFFFFFFFFFFFF AND PUSH20 0xFFFFFFFFFFFFFFFFFFFFFFFFFFFFFFFFFFFFFFFF AND DUP2 MSTORE POP PUSH1 0x8 SWAP1 PUSH1 0x5 PUSH2 0x17B SWAP3 SWAP2 SWAP1 PUSH2 0xC1A JUMP JUMPDEST POP PUSH8 0xDE0B6B3A7640000 PUSH1 0x13 SSTORE CALLVALUE DUP1 ISZERO PUSH2 0x193 JUMPI PUSH0 PUSH0 REVERT JUMPDEST POP CALLER PUSH1 0x40 MLOAD DUP1 PUSH1 0x40 ADD PUSH1 0x40 MSTORE DUP1 PUSH1 0x7 DUP2 MSTORE PUSH1 0x20 ADD PUSH32 0x415220506C757300000000000000000000000000000000000000000000000000 DUP2 MSTORE POP PUSH1 0x40 MLOAD DUP1 PUSH1 0x40 ADD PUSH1 0x40 MSTORE DUP1 PUSH1 0x3 DUP2 MSTORE PUSH1 0x20 ADD PUSH32 0x41522B0000000000000000000000000000000000000000000000000000000000 DUP2 MSTORE POP DUP2 PUSH1 0x3 SWAP1 DUP2 PUSH2 0x210 SWAP2 SWAP1 PUSH2 0xEEE JUMP JUMPDEST POP DUP1 PUSH1 0x4 SWAP1 DUP2 PUSH2 0x220 SWAP2 SWAP1 PUSH2 0xEEE JUMP JUMPDEST POP POP POP PUSH0 PUSH20 0xFFFFFFFFFFFFFFFFFFFFFFFFFFFFFFFFFFFFFFFF AND DUP2 PUSH20 0xFFFFFFFFFFFFFFFFFFFFFFFFFFFFFFFFFFFFFFFF AND SUB PUSH2 0x293 JUMPI PUSH0 PUSH1 0x40 MLOAD PUSH32 0x1E4FBDF700000000000000000000000000000000000000000000000000000000 DUP2 MSTORE PUSH1 0x4 ADD PUSH2 0x28A SWAP2 SWAP1 PUSH2 0xFFC JUMP JUMPDEST PUSH1 0x40 MLOAD DUP1 SWAP2 SUB SWAP1 REVERT JUMPDEST PUSH2 0x2A2 DUP2 PUSH2 0x7AE PUSH1 0x20 SHL PUSH1 0x20 SHR JUMP JUMPDEST POP PUSH1 0x1 PUSH1 0x6 DUP2 SWAP1 SSTORE POP PUSH0 PUSH1 0x7 PUSH0 PUSH2 0x100 EXP DUP2 SLOAD DUP2 PUSH1 0xFF MUL NOT AND SWAP1 DUP4 ISZERO ISZERO MUL OR SWAP1 SSTORE POP PUSH2 0x2E1 CALLER PUSH13 0x64F964E68233A76F520000000 PUSH2 0x871 PUSH1 0x20 SHL PUSH1 0x20 SHR JUMP JUMPDEST PUSH2 0x312 CALLER PUSH20 0x6794D2AC1D6375BAC41A03B7303146BF1E8EDBEB PUSH12 0x1027E72F1F12813088000000 PUSH2 0x8F6 PUSH1 0x20 SHL PUSH1 0x20 SHR JUMP JUMPDEST PUSH0 PUSH0 SWAP1 POP JUMPDEST PUSH1 0x5 DUP2 LT ISZERO PUSH2 0x41C JUMPI PUSH2 0x370 CALLER PUSH1 0x8 DUP4 PUSH1 0x5 DUP2 LT PUSH2 0x338 JUMPI PUSH2 0x337 PUSH2 0x1015 JUMP JUMPDEST JUMPDEST ADD PUSH0 SWAP1 SLOAD SWAP1 PUSH2 0x100 EXP SWAP1 DIV PUSH20 0xFFFFFFFFFFFFFFFFFFFFFFFFFFFFFFFFFFFFFFFF AND PUSH11 0x52B7D2DCC80CD2E4000000 PUSH2 0x8F6 PUSH1 0x20 SHL PUSH1 0x20 SHR JUMP JUMPDEST PUSH2 0x39A PUSH11 0x52B7D2DCC80CD2E4000000 PUSH12 0x14ADF4B7320334B90000000 PUSH2 0x9EC PUSH1 0x20 SHL SWAP1 SWAP2 SWAP1 PUSH1 0x20 SHR JUMP JUMPDEST PUSH1 0x10 PUSH0 PUSH1 0x8 DUP5 PUSH1 0x5 DUP2 LT PUSH2 0x3B1 JUMPI PUSH2 0x3B0 PUSH2 0x1015 JUMP JUMPDEST JUMPDEST ADD PUSH0 SWAP1 SLOAD SWAP1 PUSH2 0x100 EXP SWAP1 DIV PUSH20 0xFFFFFFFFFFFFFFFFFFFFFFFFFFFFFFFFFFFFFFFF AND PUSH20 0xFFFFFFFFFFFFFFFFFFFFFFFFFFFFFFFFFFFFFFFF AND PUSH20 0xFFFFFFFFFFFFFFFFFFFFFFFFFFFFFFFFFFFFFFFF AND DUP2 MSTORE PUSH1 0x20 ADD SWAP1 DUP2 MSTORE PUSH1 0x20 ADD PUSH0 KECCAK256 DUP2 SWAP1 SSTORE POP DUP1 DUP1 PUSH1 0x1 ADD SWAP2 POP POP PUSH2 0x317 JUMP JUMPDEST POP PUSH2 0x44E CALLER PUSH20 0x1234567890123456789012345678901234567890 PUSH12 0x169E43A85EB381AA58000000 PUSH2 0x8F6 PUSH1 0x20 SHL PUSH1 0x20 SHR JUMP JUMPDEST PUSH2 0x47F CALLER PUSH20 0x2345678901234567890123456789012345678901 PUSH12 0x6765C793FA10079D0000000 PUSH2 0x8F6 PUSH1 0x20 SHL PUSH1 0x20 SHR JUMP JUMPDEST PUSH2 0x4B0 CALLER PUSH20 0x3456789012345678901234567890123456789012 PUSH12 0x6765C793FA10079D0000000 PUSH2 0x8F6 PUSH1 0x20 SHL PUSH1 0x20 SHR JUMP JUMPDEST PUSH2 0x4E1 CALLER PUSH20 0x4567890123456789012345678901234567890123 PUSH12 0x19D971E4FE8401E740000000 PUSH2 0x8F6 PUSH1 0x20 SHL PUSH1 0x20 SHR JUMP JUMPDEST PUSH1 0x1 PUSH1 0xD PUSH0 PUSH20 0x6794D2AC1D6375BAC41A03B7303146BF1E8EDBEB PUSH20 0xFFFFFFFFFFFFFFFFFFFFFFFFFFFFFFFFFFFFFFFF AND PUSH20 0xFFFFFFFFFFFFFFFFFFFFFFFFFFFFFFFFFFFFFFFF AND DUP2 MSTORE PUSH1 0x20 ADD SWAP1 DUP2 MSTORE PUSH1 0x20 ADD PUSH0 KECCAK256 PUSH0 PUSH2 0x100 EXP DUP2 SLOAD DUP2 PUSH1 0xFF MUL NOT AND SWAP1 DUP4 ISZERO ISZERO MUL OR SWAP1 SSTORE POP PUSH1 0x1 PUSH1 0xD PUSH0 PUSH20 0x1234567890123456789012345678901234567890 PUSH20 0xFFFFFFFFFFFFFFFFFFFFFFFFFFFFFFFFFFFFFFFF AND PUSH20 0xFFFFFFFFFFFFFFFFFFFFFFFFFFFFFFFFFFFFFFFF AND DUP2 MSTORE PUSH1 0x20 ADD SWAP1 DUP2 MSTORE PUSH1 0x20 ADD PUSH0 KECCAK256 PUSH0 PUSH2 0x100 EXP DUP2 SLOAD DUP2 PUSH1 0xFF MUL NOT AND SWAP1 DUP4 ISZERO ISZERO MUL OR SWAP1 SSTORE POP PUSH1 0x1 PUSH1 0xD PUSH0 PUSH20 0x2345678901234567890123456789012345678901 PUSH20 0xFFFFFFFFFFFFFFFFFFFFFFFFFFFFFFFFFFFFFFFF AND PUSH20 0xFFFFFFFFFFFFFFFFFFFFFFFFFFFFFFFFFFFFFFFF AND DUP2 MSTORE PUSH1 0x20 ADD SWAP1 DUP2 MSTORE PUSH1 0x20 ADD PUSH0 KECCAK256 PUSH0 PUSH2 0x100 EXP DUP2 SLOAD DUP2 PUSH1 0xFF MUL NOT AND SWAP1 DUP4 ISZERO ISZERO MUL OR SWAP1 SSTORE POP PUSH1 0x1 PUSH1 0xD PUSH0 PUSH20 0x3456789012345678901234567890123456789012 PUSH20 0xFFFFFFFFFFFFFFFFFFFFFFFFFFFFFFFFFFFFFFFF AND PUSH20 0xFFFFFFFFFFFFFFFFFFFFFFFFFFFFFFFFFFFFFFFF AND DUP2 MSTORE PUSH1 0x20 ADD SWAP1 DUP2 MSTORE PUSH1 0x20 ADD PUSH0 KECCAK256 PUSH0 PUSH2 0x100 EXP DUP2 SLOAD DUP2 PUSH1 0xFF MUL NOT AND SWAP1 DUP4 ISZERO ISZERO MUL OR SWAP1 SSTORE POP PUSH1 0x1 PUSH1 0xD PUSH0 PUSH20 0x4567890123456789012345678901234567890123 PUSH20 0xFFFFFFFFFFFFFFFFFFFFFFFFFFFFFFFFFFFFFFFF AND PUSH20 0xFFFFFFFFFFFFFFFFFFFFFFFFFFFFFFFFFFFFFFFF AND DUP2 MSTORE PUSH1 0x20 ADD SWAP1 DUP2 MSTORE PUSH1 0x20 ADD PUSH0 KECCAK256 PUSH0 PUSH2 0x100 EXP DUP2 SLOAD DUP2 PUSH1 0xFF MUL NOT AND SWAP1 DUP4 ISZERO ISZERO MUL OR SWAP1 SSTORE POP PUSH0 PUSH0 SWAP1 POP JUMPDEST PUSH1 0x5 DUP2 LT ISZERO PUSH2 0x792 JUMPI PUSH1 0x1 PUSH1 0xD PUSH0 PUSH1 0x8 DUP5 PUSH1 0x5 DUP2 LT PUSH2 0x715 JUMPI PUSH2 0x714 PUSH2 0x1015 JUMP JUMPDEST JUMPDEST ADD PUSH0 SWAP1 SLOAD SWAP1 PUSH2 0x100 EXP SWAP1 DIV PUSH20 0xFFFFFFFFFFFFFFFFFFFFFFFFFFFFFFFFFFFFFFFF AND PUSH20 0xFFFFFFFFFFFFFFFFFFFFFFFFFFFFFFFFFFFFFFFF AND PUSH20 0xFFFFFFFFFFFFFFFFFFFFFFFFFFFFFFFFFFFFFFFF AND DUP2 MSTORE PUSH1 0x20 ADD SWAP1 DUP2 MSTORE PUSH1 0x20 ADD PUSH0 KECCAK256 PUSH0 PUSH2 0x100 EXP DUP2 SLOAD DUP2 PUSH1 0xFF MUL NOT AND SWAP1 DUP4 ISZERO ISZERO MUL OR SWAP1 SSTORE POP DUP1 DUP1 PUSH1 0x1 ADD SWAP2 POP POP PUSH2 0x6F3 JUMP JUMPDEST POP PUSH4 0x67748580 PUSH1 0xE DUP2 SWAP1 SSTORE POP PUSH4 0x67748580 PUSH1 0xF DUP2 SWAP1 SSTORE POP PUSH2 0x1132 JUMP JUMPDEST PUSH0 PUSH1 0x5 PUSH0 SWAP1 SLOAD SWAP1 PUSH2 0x100 EXP SWAP1 DIV PUSH20 0xFFFFFFFFFFFFFFFFFFFFFFFFFFFFFFFFFFFFFFFF AND SWAP1 POP DUP2 PUSH1 0x5 PUSH0 PUSH2 0x100 EXP DUP2 SLOAD DUP2 PUSH20 0xFFFFFFFFFFFFFFFFFFFFFFFFFFFFFFFFFFFFFFFF MUL NOT AND SWAP1 DUP4 PUSH20 0xFFFFFFFFFFFFFFFFFFFFFFFFFFFFFFFFFFFFFFFF AND MUL OR SWAP1 SSTORE POP DUP2 PUSH20 0xFFFFFFFFFFFFFFFFFFFFFFFFFFFFFFFFFFFFFFFF AND DUP2 PUSH20 0xFFFFFFFFFFFFFFFFFFFFFFFFFFFFFFFFFFFFFFFF AND PUSH32 0x8BE0079C531659141344CD1FD0A4F28419497F9722A3DAAFE3B4186F6B6457E0 PUSH1 0x40 MLOAD PUSH1 0x40 MLOAD DUP1 SWAP2 SUB SWAP1 LOG3 POP POP JUMP JUMPDEST PUSH0 PUSH20 0xFFFFFFFFFFFFFFFFFFFFFFFFFFFFFFFFFFFFFFFF AND DUP3 PUSH20 0xFFFFFFFFFFFFFFFFFFFFFFFFFFFFFFFFFFFFFFFF AND SUB PUSH2 0x8E1 JUMPI PUSH0 PUSH1 0x40 MLOAD PUSH32 0xEC442F0500000000000000000000000000000000000000000000000000000000 DUP2 MSTORE PUSH1 0x4 ADD PUSH2 0x8D8 SWAP2 SWAP1 PUSH2 0xFFC JUMP JUMPDEST PUSH1 0x40 MLOAD DUP1 SWAP2 SUB SWAP1 REVERT JUMPDEST PUSH2 0x8F2 PUSH0 DUP4 DUP4 PUSH2 0xA01 PUSH1 0x20 SHL PUSH1 0x20 SHR JUMP JUMPDEST POP POP JUMP JUMPDEST PUSH0 PUSH20 0xFFFFFFFFFFFFFFFFFFFFFFFFFFFFFFFFFFFFFFFF AND DUP4 PUSH20 0xFFFFFFFFFFFFFFFFFFFFFFFFFFFFFFFFFFFFFFFF AND SUB PUSH2 0x966 JUMPI PUSH0 PUSH1 0x40 MLOAD PUSH32 0x96C6FD1E00000000000000000000000000000000000000000000000000000000 DUP2 MSTORE PUSH1 0x4 ADD PUSH2 0x95D SWAP2 SWAP1 PUSH2 0xFFC JUMP JUMPDEST PUSH1 0x40 MLOAD DUP1 SWAP2 SUB SWAP1 REVERT JUMPDEST PUSH0 PUSH20 0xFFFFFFFFFFFFFFFFFFFFFFFFFFFFFFFFFFFFFFFF AND DUP3 PUSH20 0xFFFFFFFFFFFFFFFFFFFFFFFFFFFFFFFFFFFFFFFF AND SUB PUSH2 0x9D6 JUMPI PUSH0 PUSH1 0x40 MLOAD PUSH32 0xEC442F0500000000000000000000000000000000000000000000000000000000 DUP2 MSTORE PUSH1 0x4 ADD PUSH2 0x9CD SWAP2 SWAP1 PUSH2 0xFFC JUMP JUMPDEST PUSH1 0x40 MLOAD DUP1 SWAP2 SUB SWAP1 REVERT JUMPDEST PUSH2 0x9E7 DUP4 DUP4 DUP4 PUSH2 0xA01 PUSH1 0x20 SHL PUSH1 0x20 SHR JUMP JUMPDEST POP POP POP JUMP JUMPDEST PUSH0 DUP2 DUP4 PUSH2 0x9F9 SWAP2 SWAP1 PUSH2 0x106F JUMP JUMPDEST SWAP1 POP SWAP3 SWAP2 POP POP JUMP JUMPDEST PUSH0 PUSH20 0xFFFFFFFFFFFFFFFFFFFFFFFFFFFFFFFFFFFFFFFF AND DUP4 PUSH20 0xFFFFFFFFFFFFFFFFFFFFFFFFFFFFFFFFFFFFFFFF AND SUB PUSH2 0xA51 JUMPI DUP1 PUSH1 0x2 PUSH0 DUP3 DUP3 SLOAD PUSH2 0xA45 SWAP2 SWAP1 PUSH2 0x10A2 JUMP JUMPDEST SWAP3 POP POP DUP2 SWAP1 SSTORE POP PUSH2 0xB1F JUMP JUMPDEST PUSH0 PUSH0 PUSH0 DUP6 PUSH20 0xFFFFFFFFFFFFFFFFFFFFFFFFFFFFFFFFFFFFFFFF AND PUSH20 0xFFFFFFFFFFFFFFFFFFFFFFFFFFFFFFFFFFFFFFFF AND DUP2 MSTORE PUSH1 0x20 ADD SWAP1 DUP2 MSTORE PUSH1 0x20 ADD PUSH0 KECCAK256 SLOAD SWAP1 POP DUP2 DUP2 LT ISZERO PUSH2 0xADA JUMPI DUP4 DUP2 DUP4 PUSH1 0x40 MLOAD PUSH32 0xE450D38C00000000000000000000000000000000000000000000000000000000 DUP2 MSTORE PUSH1 0x4 ADD PUSH2 0xAD1 SWAP4 SWAP3 SWAP2 SWAP1 PUSH2 0x10E4 JUMP JUMPDEST PUSH1 0x40 MLOAD DUP1 SWAP2 SUB SWAP1 REVERT JUMPDEST DUP2 DUP2 SUB PUSH0 PUSH0 DUP7 PUSH20 0xFFFFFFFFFFFFFFFFFFFFFFFFFFFFFFFFFFFFFFFF AND PUSH20 0xFFFFFFFFFFFFFFFFFFFFFFFFFFFFFFFFFFFFFFFF AND DUP2 MSTORE PUSH1 0x20 ADD SWAP1 DUP2 MSTORE PUSH1 0x20 ADD PUSH0 KECCAK256 DUP2 SWAP1 SSTORE POP POP JUMPDEST PUSH0 PUSH20 0xFFFFFFFFFFFFFFFFFFFFFFFFFFFFFFFFFFFFFFFF AND DUP3 PUSH20 0xFFFFFFFFFFFFFFFFFFFFFFFFFFFFFFFFFFFFFFFF AND SUB PUSH2 0xB66 JUMPI DUP1 PUSH1 0x2 PUSH0 DUP3 DUP3 SLOAD SUB SWAP3 POP POP DUP2 SWAP1 SSTORE POP PUSH2 0xBB0 JUMP JUMPDEST DUP1 PUSH0 PUSH0 DUP5 PUSH20 0xFFFFFFFFFFFFFFFFFFFFFFFFFFFFFFFFFFFFFFFF AND PUSH20 0xFFFFFFFFFFFFFFFFFFFFFFFFFFFFFFFFFFFFFFFF AND DUP2 MSTORE PUSH1 0x20 ADD SWAP1 DUP2 MSTORE PUSH1 0x20 ADD PUSH0 KECCAK256 PUSH0 DUP3 DUP3 SLOAD ADD SWAP3 POP POP DUP2 SWAP1 SSTORE POP JUMPDEST DUP2 PUSH20 0xFFFFFFFFFFFFFFFFFFFFFFFFFFFFFFFFFFFFFFFF AND DUP4 PUSH20 0xFFFFFFFFFFFFFFFFFFFFFFFFFFFFFFFFFFFFFFFF AND PUSH32 0xDDF252AD1BE2C89B69C2B068FC378DAA952BA7F163C4A11628F55A4DF523B3EF DUP4 PUSH1 0x40 MLOAD PUSH2 0xC0D SWAP2 SWAP1 PUSH2 0x1119 JUMP JUMPDEST PUSH1 0x40 MLOAD DUP1 SWAP2 SUB SWAP1 LOG3 POP POP POP JUMP JUMPDEST DUP3 PUSH1 0x5 DUP2 ADD SWAP3 DUP3 ISZERO PUSH2 0xC85 JUMPI SWAP2 PUSH1 0x20 MUL DUP3 ADD JUMPDEST DUP3 DUP2 GT ISZERO PUSH2 0xC84 JUMPI DUP3 MLOAD DUP3 PUSH0 PUSH2 0x100 EXP DUP2 SLOAD DUP2 PUSH20 0xFFFFFFFFFFFFFFFFFFFFFFFFFFFFFFFFFFFFFFFF MUL NOT AND SWAP1 DUP4 PUSH20 0xFFFFFFFFFFFFFFFFFFFFFFFFFFFFFFFFFFFFFFFF AND MUL OR SWAP1 SSTORE POP SWAP2 PUSH1 0x20 ADD SWAP2 SWAP1 PUSH1 0x1 ADD SWAP1 PUSH2 0xC2D JUMP JUMPDEST JUMPDEST POP SWAP1 POP PUSH2 0xC92 SWAP2 SWAP1 PUSH2 0xC96 JUMP JUMPDEST POP SWAP1 JUMP JUMPDEST JUMPDEST DUP1 DUP3 GT ISZERO PUSH2 0xCAD JUMPI PUSH0 DUP2 PUSH0 SWAP1 SSTORE POP PUSH1 0x1 ADD PUSH2 0xC97 JUMP JUMPDEST POP SWAP1 JUMP JUMPDEST PUSH0 DUP2 MLOAD SWAP1 POP SWAP2 SWAP1 POP JUMP JUMPDEST PUSH32 0x4E487B7100000000000000000000000000000000000000000000000000000000 PUSH0 MSTORE PUSH1 0x41 PUSH1 0x4 MSTORE PUSH1 0x24 PUSH0 REVERT JUMPDEST PUSH32 0x4E487B7100000000000000000000000000000000000000000000000000000000 PUSH0 MSTORE PUSH1 0x22 PUSH1 0x4 MSTORE PUSH1 0x24 PUSH0 REVERT JUMPDEST PUSH0 PUSH1 0x2 DUP3 DIV SWAP1 POP PUSH1 0x1 DUP3 AND DUP1 PUSH2 0xD2C JUMPI PUSH1 0x7F DUP3 AND SWAP2 POP JUMPDEST PUSH1 0x20 DUP3 LT DUP2 SUB PUSH2 0xD3F JUMPI PUSH2 0xD3E PUSH2 0xCE8 JUMP JUMPDEST JUMPDEST POP SWAP2 SWAP1 POP JUMP JUMPDEST PUSH0 DUP2 SWAP1 POP DUP2 PUSH0 MSTORE PUSH1 0x20 PUSH0 KECCAK256 SWAP1 POP SWAP2 SWAP1 POP JUMP JUMPDEST PUSH0 PUSH1 0x20 PUSH1 0x1F DUP4 ADD DIV SWAP1 POP SWAP2 SWAP1 POP JUMP JUMPDEST PUSH0 DUP3 DUP3 SHL SWAP1 POP SWAP3 SWAP2 POP POP JUMP JUMPDEST PUSH0 PUSH1 0x8 DUP4 MUL PUSH2 0xDA1 PUSH32 0xFFFFFFFFFFFFFFFFFFFFFFFFFFFFFFFFFFFFFFFFFFFFFFFFFFFFFFFFFFFFFFFF DUP3 PUSH2 0xD66 JUMP JUMPDEST PUSH2 0xDAB DUP7 DUP4 PUSH2 0xD66 JUMP JUMPDEST SWAP6 POP DUP1 NOT DUP5 AND SWAP4 POP DUP1 DUP7 AND DUP5 OR SWAP3 POP POP POP SWAP4 SWAP3 POP POP POP JUMP JUMPDEST PUSH0 DUP2 SWAP1 POP SWAP2 SWAP1 POP JUMP JUMPDEST PUSH0 DUP2 SWAP1 POP SWAP2 SWAP1 POP JUMP JUMPDEST PUSH0 PUSH2 0xDEF PUSH2 0xDEA PUSH2 0xDE5 DUP5 PUSH2 0xDC3 JUMP JUMPDEST PUSH2 0xDCC JUMP JUMPDEST PUSH2 0xDC3 JUMP JUMPDEST SWAP1 POP SWAP2 SWAP1 POP JUMP JUMPDEST PUSH0 DUP2 SWAP1 POP SWAP2 SWAP1 POP JUMP JUMPDEST PUSH2 0xE08 DUP4 PUSH2 0xDD5 JUMP JUMPDEST PUSH2 0xE1C PUSH2 0xE14 DUP3 PUSH2 0xDF6 JUMP JUMPDEST DUP5 DUP5 SLOAD PUSH2 0xD72 JUMP JUMPDEST DUP3 SSTORE POP POP POP POP JUMP JUMPDEST PUSH0 PUSH0 SWAP1 POP SWAP1 JUMP JUMPDEST PUSH2 0xE33 PUSH2 0xE24 JUMP JUMPDEST PUSH2 0xE3E DUP2 DUP5 DUP5 PUSH2 0xDFF JUMP JUMPDEST POP POP POP JUMP JUMPDEST JUMPDEST DUP2 DUP2 LT ISZERO PUSH2 0xE61 JUMPI PUSH2 0xE56 PUSH0 DUP3 PUSH2 0xE2B JUMP JUMPDEST PUSH1 0x1 DUP2 ADD SWAP1 POP PUSH2 0xE44 JUMP JUMPDEST POP POP JUMP JUMPDEST PUSH1 0x1F DUP3 GT ISZERO PUSH2 0xEA6 JUMPI PUSH2 0xE77 DUP2 PUSH2 0xD45 JUMP JUMPDEST PUSH2 0xE80 DUP5 PUSH2 0xD57 JUMP JUMPDEST DUP2 ADD PUSH1 0x20 DUP6 LT ISZERO PUSH2 0xE8F JUMPI DUP2 SWAP1 POP JUMPDEST PUSH2 0xEA3 PUSH2 0xE9B DUP6 PUSH2 0xD57 JUMP JUMPDEST DUP4 ADD DUP3 PUSH2 0xE43 JUMP JUMPDEST POP POP JUMPDEST POP POP POP JUMP JUMPDEST PUSH0 DUP3 DUP3 SHR SWAP1 POP SWAP3 SWAP2 POP POP JUMP JUMPDEST PUSH0 PUSH2 0xEC6 PUSH0 NOT DUP5 PUSH1 0x8 MUL PUSH2 0xEAB JUMP JUMPDEST NOT DUP1 DUP4 AND SWAP2 POP POP SWAP3 SWAP2 POP POP JUMP JUMPDEST PUSH0 PUSH2 0xEDE DUP4 DUP4 PUSH2 0xEB7 JUMP JUMPDEST SWAP2 POP DUP3 PUSH1 0x2 MUL DUP3 OR SWAP1 POP SWAP3 SWAP2 POP POP JUMP JUMPDEST PUSH2 0xEF7 DUP3 PUSH2 0xCB1 JUMP JUMPDEST PUSH8 0xFFFFFFFFFFFFFFFF DUP2 GT ISZERO PUSH2 0xF10 JUMPI PUSH2 0xF0F PUSH2 0xCBB JUMP JUMPDEST JUMPDEST PUSH2 0xF1A DUP3 SLOAD PUSH2 0xD15 JUMP JUMPDEST PUSH2 0xF25 DUP3 DUP3 DUP6 PUSH2 0xE65 JUMP JUMPDEST PUSH0 PUSH1 0x20 SWAP1 POP PUSH1 0x1F DUP4 GT PUSH1 0x1 DUP2 EQ PUSH2 0xF56 JUMPI PUSH0 DUP5 ISZERO PUSH2 0xF44 JUMPI DUP3 DUP8 ADD MLOAD SWAP1 POP JUMPDEST PUSH2 0xF4E DUP6 DUP3 PUSH2 0xED3 JUMP JUMPDEST DUP7 SSTORE POP PUSH2 0xFB5 JUMP JUMPDEST PUSH1 0x1F NOT DUP5 AND PUSH2 0xF64 DUP7 PUSH2 0xD45 JUMP JUMPDEST PUSH0 JUMPDEST DUP3 DUP2 LT ISZERO PUSH2 0xF8B JUMPI DUP5 DUP10 ADD MLOAD DUP3 SSTORE PUSH1 0x1 DUP3 ADD SWAP2 POP PUSH1 0x20 DUP6 ADD SWAP5 POP PUSH1 0x20 DUP2 ADD SWAP1 POP PUSH2 0xF66 JUMP JUMPDEST DUP7 DUP4 LT ISZERO PUSH2 0xFA8 JUMPI DUP5 DUP10 ADD MLOAD PUSH2 0xFA4 PUSH1 0x1F DUP10 AND DUP3 PUSH2 0xEB7 JUMP JUMPDEST DUP4 SSTORE POP JUMPDEST PUSH1 0x1 PUSH1 0x2 DUP9 MUL ADD DUP9 SSTORE POP POP POP JUMPDEST POP POP POP POP POP POP JUMP JUMPDEST PUSH0 PUSH20 0xFFFFFFFFFFFFFFFFFFFFFFFFFFFFFFFFFFFFFFFF DUP3 AND SWAP1 POP SWAP2 SWAP1 POP JUMP JUMPDEST PUSH0 PUSH2 0xFE6 DUP3 PUSH2 0xFBD JUMP JUMPDEST SWAP1 POP SWAP2 SWAP1 POP JUMP JUMPDEST PUSH2 0xFF6 DUP2 PUSH2 0xFDC JUMP JUMPDEST DUP3 MSTORE POP POP JUMP JUMPDEST PUSH0 PUSH1 0x20 DUP3 ADD SWAP1 POP PUSH2 0x100F PUSH0 DUP4 ADD DUP5 PUSH2 0xFED JUMP JUMPDEST SWAP3 SWAP2 POP POP JUMP JUMPDEST PUSH32 0x4E487B7100000000000000000000000000000000000000000000000000000000 PUSH0 MSTORE PUSH1 0x32 PUSH1 0x4 MSTORE PUSH1 0x24 PUSH0 REVERT JUMPDEST PUSH32 0x4E487B7100000000000000000000000000000000000000000000000000000000 PUSH0 MSTORE PUSH1 0x11 PUSH1 0x4 MSTORE PUSH1 0x24 PUSH0 REVERT JUMPDEST PUSH0 PUSH2 0x1079 DUP3 PUSH2 0xDC3 JUMP JUMPDEST SWAP2 POP PUSH2 0x1084 DUP4 PUSH2 0xDC3 JUMP JUMPDEST SWAP3 POP DUP3 DUP3 SUB SWAP1 POP DUP2 DUP2 GT ISZERO PUSH2 0x109C JUMPI PUSH2 0x109B PUSH2 0x1042 JUMP JUMPDEST JUMPDEST SWAP3 SWAP2 POP POP JUMP JUMPDEST PUSH0 PUSH2 0x10AC DUP3 PUSH2 0xDC3 JUMP JUMPDEST SWAP2 POP PUSH2 0x10B7 DUP4 PUSH2 0xDC3 JUMP JUMPDEST SWAP3 POP DUP3 DUP3 ADD SWAP1 POP DUP1 DUP3 GT ISZERO PUSH2 0x10CF JUMPI PUSH2 0x10CE PUSH2 0x1042 JUMP JUMPDEST JUMPDEST SWAP3 SWAP2 POP POP JUMP JUMPDEST PUSH2 0x10DE DUP2 PUSH2 0xDC3 JUMP JUMPDEST DUP3 MSTORE POP POP JUMP JUMPDEST PUSH0 PUSH1 0x60 DUP3 ADD SWAP1 POP PUSH2 0x10F7 PUSH0 DUP4 ADD DUP7 PUSH2 0xFED JUMP JUMPDEST PUSH2 0x1104 PUSH1 0x20 DUP4 ADD DUP6 PUSH2 0x10D5 JUMP JUMPDEST PUSH2 0x1111 PUSH1 0x40 DUP4 ADD DUP5 PUSH2 0x10D5 JUMP JUMPDEST SWAP5 SWAP4 POP POP POP POP JUMP JUMPDEST PUSH0 PUSH1 0x20 DUP3 ADD SWAP1 POP PUSH2 0x112C PUSH0 DUP4 ADD DUP5 PUSH2 0x10D5 JUMP JUMPDEST SWAP3 SWAP2 POP POP JUMP JUMPDEST PUSH2 0x401A DUP1 PUSH2 0x113F PUSH0 CODECOPY PUSH0 RETURN INVALID PUSH1 0x80 PUSH1 0x40 MSTORE PUSH1 0x4 CALLDATASIZE LT PUSH2 0x34F JUMPI PUSH0 CALLDATALOAD PUSH1 0xE0 SHR DUP1 PUSH4 0x69FCB616 GT PUSH2 0x1C5 JUMPI DUP1 PUSH4 0xA0A32DD6 GT PUSH2 0xF6 JUMPI DUP1 PUSH4 0xD7069462 GT PUSH2 0x94 JUMPI DUP1 PUSH4 0xEF24B6A3 GT PUSH2 0x6E JUMPI DUP1 PUSH4 0xEF24B6A3 EQ PUSH2 0xBCD JUMPI DUP1 PUSH4 0xF2FDE38B EQ PUSH2 0xBF7 JUMPI DUP1 PUSH4 0xF6C4768B EQ PUSH2 0xC1F JUMPI DUP1 PUSH4 0xF968F493 EQ PUSH2 0xC49 JUMPI PUSH2 0x34F JUMP JUMPDEST DUP1 PUSH4 0xD7069462 EQ PUSH2 0xB3D JUMPI DUP1 PUSH4 0xDD62ED3E EQ PUSH2 0xB67 JUMPI DUP1 PUSH4 0xEF00D224 EQ PUSH2 0xBA3 JUMPI PUSH2 0x34F JUMP JUMPDEST DUP1 PUSH4 0xA5CE413B GT PUSH2 0xD0 JUMPI DUP1 PUSH4 0xA5CE413B EQ PUSH2 0xAB7 JUMPI DUP1 PUSH4 0xA9059CBB EQ PUSH2 0xACD JUMPI DUP1 PUSH4 0xD0919116 EQ PUSH2 0xB09 JUMPI DUP1 PUSH4 0xD0FEBE4C EQ PUSH2 0xB33 JUMPI PUSH2 0x34F JUMP JUMPDEST DUP1 PUSH4 0xA0A32DD6 EQ PUSH2 0xA39 JUMPI DUP1 PUSH4 0xA0EB5DD1 EQ PUSH2 0xA63 JUMPI DUP1 PUSH4 0xA1D9CFEA EQ PUSH2 0xA8D JUMPI PUSH2 0x34F JUMP JUMPDEST DUP1 PUSH4 0x86ADACFB GT PUSH2 0x163 JUMPI DUP1 PUSH4 0x902D55A5 GT PUSH2 0x13D JUMPI DUP1 PUSH4 0x902D55A5 EQ PUSH2 0x991 JUMPI DUP1 PUSH4 0x938579E1 EQ PUSH2 0x9BB JUMPI DUP1 PUSH4 0x95D89B41 EQ PUSH2 0x9E5 JUMPI DUP1 PUSH4 0x9F76C57A EQ PUSH2 0xA0F JUMPI PUSH2 0x34F JUMP JUMPDEST DUP1 PUSH4 0x86ADACFB EQ PUSH2 0x901 JUMPI DUP1 PUSH4 0x88F7433A EQ PUSH2 0x92B JUMPI DUP1 PUSH4 0x8DA5CB5B EQ PUSH2 0x967 JUMPI PUSH2 0x34F JUMP JUMPDEST DUP1 PUSH4 0x715018A6 GT PUSH2 0x19F JUMPI DUP1 PUSH4 0x715018A6 EQ PUSH2 0x881 JUMPI DUP1 PUSH4 0x7284ACFD EQ PUSH2 0x897 JUMPI DUP1 PUSH4 0x73138E4F EQ PUSH2 0x8C1 JUMPI DUP1 PUSH4 0x8456CB59 EQ PUSH2 0x8EB JUMPI PUSH2 0x34F JUMP JUMPDEST DUP1 PUSH4 0x69FCB616 EQ PUSH2 0x7F1 JUMPI DUP1 PUSH4 0x6A313462 EQ PUSH2 0x81B JUMPI DUP1 PUSH4 0x70A08231 EQ PUSH2 0x845 JUMPI PUSH2 0x34F JUMP JUMPDEST DUP1 PUSH4 0x2B4D3517 GT PUSH2 0x29F JUMPI DUP1 PUSH4 0x3F4BA83A GT PUSH2 0x23D JUMPI DUP1 PUSH4 0x51C6590A GT PUSH2 0x217 JUMPI DUP1 PUSH4 0x51C6590A EQ PUSH2 0x759 JUMPI DUP1 PUSH4 0x5C975ABB EQ PUSH2 0x775 JUMPI DUP1 PUSH4 0x5D67A82D EQ PUSH2 0x79F JUMPI DUP1 PUSH4 0x676C0D77 EQ PUSH2 0x7C9 JUMPI PUSH2 0x34F JUMP JUMPDEST DUP1 PUSH4 0x3F4BA83A EQ PUSH2 0x6F1 JUMPI DUP1 PUSH4 0x4EE9CCD0 EQ PUSH2 0x707 JUMPI DUP1 PUSH4 0x504DEACD EQ PUSH2 0x72F JUMPI PUSH2 0x34F JUMP JUMPDEST DUP1 PUSH4 0x372C6533 GT PUSH2 0x279 JUMPI DUP1 PUSH4 0x372C6533 EQ PUSH2 0x64D JUMPI DUP1 PUSH4 0x38F28E1C EQ PUSH2 0x677 JUMPI DUP1 PUSH4 0x3B7B6188 EQ PUSH2 0x6A1 JUMPI DUP1 PUSH4 0x3F138D4B EQ PUSH2 0x6C9 JUMPI PUSH2 0x34F JUMP JUMPDEST DUP1 PUSH4 0x2B4D3517 EQ PUSH2 0x5CF JUMPI DUP1 PUSH4 0x313439A2 EQ PUSH2 0x5F9 JUMPI DUP1 PUSH4 0x313CE567 EQ PUSH2 0x623 JUMPI PUSH2 0x34F JUMP JUMPDEST DUP1 PUSH4 0x16934FC4 GT PUSH2 0x30C JUMPI DUP1 PUSH4 0x1FAB0F54 GT PUSH2 0x2E6 JUMPI DUP1 PUSH4 0x1FAB0F54 EQ PUSH2 0x503 JUMPI DUP1 PUSH4 0x23B872DD EQ PUSH2 0x52D JUMPI DUP1 PUSH4 0x2A7EBA5C EQ PUSH2 0x569 JUMPI DUP1 PUSH4 0x2A9423E9 EQ PUSH2 0x593 JUMPI PUSH2 0x34F JUMP JUMPDEST DUP1 PUSH4 0x16934FC4 EQ PUSH2 0x45F JUMPI DUP1 PUSH4 0x16C2BE6B EQ PUSH2 0x49D JUMPI DUP1 PUSH4 0x18160DDD EQ PUSH2 0x4D9 JUMPI PUSH2 0x34F JUMP JUMPDEST DUP1 PUSH4 0x6FDDE03 EQ PUSH2 0x353 JUMPI DUP1 PUSH4 0x8003F78 EQ PUSH2 0x37D JUMPI DUP1 PUSH4 0x95EA7B3 EQ PUSH2 0x393 JUMPI DUP1 PUSH4 0xAB6C3DF EQ PUSH2 0x3CF JUMPI DUP1 PUSH4 0xBAEB6F2 EQ PUSH2 0x3F9 JUMPI DUP1 PUSH4 0x11FF860D EQ PUSH2 0x423 JUMPI JUMPDEST PUSH0 PUSH0 REVERT JUMPDEST CALLVALUE DUP1 ISZERO PUSH2 0x35E JUMPI PUSH0 PUSH0 REVERT JUMPDEST POP PUSH2 0x367 PUSH2 0xC5F JUMP JUMPDEST PUSH1 0x40 MLOAD PUSH2 0x374 SWAP2 SWAP1 PUSH2 0x2E61 JUMP JUMPDEST PUSH1 0x40 MLOAD DUP1 SWAP2 SUB SWAP1 RETURN JUMPDEST CALLVALUE DUP1 ISZERO PUSH2 0x388 JUMPI PUSH0 PUSH0 REVERT JUMPDEST POP PUSH2 0x391 PUSH2 0xCEF JUMP JUMPDEST STOP JUMPDEST CALLVALUE DUP1 ISZERO PUSH2 0x39E JUMPI PUSH0 PUSH0 REVERT JUMPDEST POP PUSH2 0x3B9 PUSH1 0x4 DUP1 CALLDATASIZE SUB DUP2 ADD SWAP1 PUSH2 0x3B4 SWAP2 SWAP1 PUSH2 0x2F1F JUMP JUMPDEST PUSH2 0xDCA JUMP JUMPDEST PUSH1 0x40 MLOAD PUSH2 0x3C6 SWAP2 SWAP1 PUSH2 0x2F77 JUMP JUMPDEST PUSH1 0x40 MLOAD DUP1 SWAP2 SUB SWAP1 RETURN JUMPDEST CALLVALUE DUP1 ISZERO PUSH2 0x3DA JUMPI PUSH0 PUSH0 REVERT JUMPDEST POP PUSH2 0x3E3 PUSH2 0xDEC JUMP JUMPDEST PUSH1 0x40 MLOAD PUSH2 0x3F0 SWAP2 SWAP1 PUSH2 0x2F9F JUMP JUMPDEST PUSH1 0x40 MLOAD DUP1 SWAP2 SUB SWAP1 RETURN JUMPDEST CALLVALUE DUP1 ISZERO PUSH2 0x404 JUMPI PUSH0 PUSH0 REVERT JUMPDEST POP PUSH2 0x40D PUSH2 0xDFC JUMP JUMPDEST PUSH1 0x40 MLOAD PUSH2 0x41A SWAP2 SWAP1 PUSH2 0x2FC7 JUMP JUMPDEST PUSH1 0x40 MLOAD DUP1 SWAP2 SUB SWAP1 RETURN JUMPDEST CALLVALUE DUP1 ISZERO PUSH2 0x42E JUMPI PUSH0 PUSH0 REVERT JUMPDEST POP PUSH2 0x449 PUSH1 0x4 DUP1 CALLDATASIZE SUB DUP2 ADD SWAP1 PUSH2 0x444 SWAP2 SWAP1 PUSH2 0x2FE0 JUMP JUMPDEST PUSH2 0xE14 JUMP JUMPDEST PUSH1 0x40 MLOAD PUSH2 0x456 SWAP2 SWAP1 PUSH2 0x2FC7 JUMP JUMPDEST PUSH1 0x40 MLOAD DUP1 SWAP2 SUB SWAP1 RETURN JUMPDEST CALLVALUE DUP1 ISZERO PUSH2 0x46A JUMPI PUSH0 PUSH0 REVERT JUMPDEST POP PUSH2 0x485 PUSH1 0x4 DUP1 CALLDATASIZE SUB DUP2 ADD SWAP1 PUSH2 0x480 SWAP2 SWAP1 PUSH2 0x300B JUMP JUMPDEST PUSH2 0xE48 JUMP JUMPDEST PUSH1 0x40 MLOAD PUSH2 0x494 SWAP4 SWAP3 SWAP2 SWAP1 PUSH2 0x3036 JUMP JUMPDEST PUSH1 0x40 MLOAD DUP1 SWAP2 SUB SWAP1 RETURN JUMPDEST CALLVALUE DUP1 ISZERO PUSH2 0x4A8 JUMPI PUSH0 PUSH0 REVERT JUMPDEST POP PUSH2 0x4C3 PUSH1 0x4 DUP1 CALLDATASIZE SUB DUP2 ADD SWAP1 PUSH2 0x4BE SWAP2 SWAP1 PUSH2 0x300B JUMP JUMPDEST PUSH2 0xE6E JUMP JUMPDEST PUSH1 0x40 MLOAD PUSH2 0x4D0 SWAP2 SWAP1 PUSH2 0x2F77 JUMP JUMPDEST PUSH1 0x40 MLOAD DUP1 SWAP2 SUB SWAP1 RETURN JUMPDEST CALLVALUE DUP1 ISZERO PUSH2 0x4E4 JUMPI PUSH0 PUSH0 REVERT JUMPDEST POP PUSH2 0x4ED PUSH2 0xE8B JUMP JUMPDEST PUSH1 0x40 MLOAD PUSH2 0x4FA SWAP2 SWAP1 PUSH2 0x2F9F JUMP JUMPDEST PUSH1 0x40 MLOAD DUP1 SWAP2 SUB SWAP1 RETURN JUMPDEST CALLVALUE DUP1 ISZERO PUSH2 0x50E JUMPI PUSH0 PUSH0 REVERT JUMPDEST POP PUSH2 0x517 PUSH2 0xE94 JUMP JUMPDEST PUSH1 0x40 MLOAD PUSH2 0x524 SWAP2 SWAP1 PUSH2 0x2F9F JUMP JUMPDEST PUSH1 0x40 MLOAD DUP1 SWAP2 SUB SWAP1 RETURN JUMPDEST CALLVALUE DUP1 ISZERO PUSH2 0x538 JUMPI PUSH0 PUSH0 REVERT JUMPDEST POP PUSH2 0x553 PUSH1 0x4 DUP1 CALLDATASIZE SUB DUP2 ADD SWAP1 PUSH2 0x54E SWAP2 SWAP1 PUSH2 0x306B JUMP JUMPDEST PUSH2 0xE9A JUMP JUMPDEST PUSH1 0x40 MLOAD PUSH2 0x560 SWAP2 SWAP1 PUSH2 0x2F77 JUMP JUMPDEST PUSH1 0x40 MLOAD DUP1 SWAP2 SUB SWAP1 RETURN JUMPDEST CALLVALUE DUP1 ISZERO PUSH2 0x574 JUMPI PUSH0 PUSH0 REVERT JUMPDEST POP PUSH2 0x57D PUSH2 0xEE5 JUMP JUMPDEST PUSH1 0x40 MLOAD PUSH2 0x58A SWAP2 SWAP1 PUSH2 0x2F9F JUMP JUMPDEST PUSH1 0x40 MLOAD DUP1 SWAP2 SUB SWAP1 RETURN JUMPDEST CALLVALUE DUP1 ISZERO PUSH2 0x59E JUMPI PUSH0 PUSH0 REVERT JUMPDEST POP PUSH2 0x5B9 PUSH1 0x4 DUP1 CALLDATASIZE SUB DUP2 ADD SWAP1 PUSH2 0x5B4 SWAP2 SWAP1 PUSH2 0x300B JUMP JUMPDEST PUSH2 0xEF5 JUMP JUMPDEST PUSH1 0x40 MLOAD PUSH2 0x5C6 SWAP2 SWAP1 PUSH2 0x2F9F JUMP JUMPDEST PUSH1 0x40 MLOAD DUP1 SWAP2 SUB SWAP1 RETURN JUMPDEST CALLVALUE DUP1 ISZERO PUSH2 0x5DA JUMPI PUSH0 PUSH0 REVERT JUMPDEST POP PUSH2 0x5E3 PUSH2 0xF0A JUMP JUMPDEST PUSH1 0x40 MLOAD PUSH2 0x5F0 SWAP2 SWAP1 PUSH2 0x2F9F JUMP JUMPDEST PUSH1 0x40 MLOAD DUP1 SWAP2 SUB SWAP1 RETURN JUMPDEST CALLVALUE DUP1 ISZERO PUSH2 0x604 JUMPI PUSH0 PUSH0 REVERT JUMPDEST POP PUSH2 0x60D PUSH2 0xF1A JUMP JUMPDEST PUSH1 0x40 MLOAD PUSH2 0x61A SWAP2 SWAP1 PUSH2 0x2F9F JUMP JUMPDEST PUSH1 0x40 MLOAD DUP1 SWAP2 SUB SWAP1 RETURN JUMPDEST CALLVALUE DUP1 ISZERO PUSH2 0x62E JUMPI PUSH0 PUSH0 REVERT JUMPDEST POP PUSH2 0x637 PUSH2 0xF1F JUMP JUMPDEST PUSH1 0x40 MLOAD PUSH2 0x644 SWAP2 SWAP1 PUSH2 0x30D6 JUMP JUMPDEST PUSH1 0x40 MLOAD DUP1 SWAP2 SUB SWAP1 RETURN JUMPDEST CALLVALUE DUP1 ISZERO PUSH2 0x658 JUMPI PUSH0 PUSH0 REVERT JUMPDEST POP PUSH2 0x661 PUSH2 0xF27 JUMP JUMPDEST PUSH1 0x40 MLOAD PUSH2 0x66E SWAP2 SWAP1 PUSH2 0x2F9F JUMP JUMPDEST PUSH1 0x40 MLOAD DUP1 SWAP2 SUB SWAP1 RETURN JUMPDEST CALLVALUE DUP1 ISZERO PUSH2 0x682 JUMPI PUSH0 PUSH0 REVERT JUMPDEST POP PUSH2 0x68B PUSH2 0xF2F JUMP JUMPDEST PUSH1 0x40 MLOAD PUSH2 0x698 SWAP2 SWAP1 PUSH2 0x2F9F JUMP JUMPDEST PUSH1 0x40 MLOAD DUP1 SWAP2 SUB SWAP1 RETURN JUMPDEST CALLVALUE DUP1 ISZERO PUSH2 0x6AC JUMPI PUSH0 PUSH0 REVERT JUMPDEST POP PUSH2 0x6C7 PUSH1 0x4 DUP1 CALLDATASIZE SUB DUP2 ADD SWAP1 PUSH2 0x6C2 SWAP2 SWAP1 PUSH2 0x30EF JUMP JUMPDEST PUSH2 0xF35 JUMP JUMPDEST STOP JUMPDEST CALLVALUE DUP1 ISZERO PUSH2 0x6D4 JUMPI PUSH0 PUSH0 REVERT JUMPDEST POP PUSH2 0x6EF PUSH1 0x4 DUP1 CALLDATASIZE SUB DUP2 ADD SWAP1 PUSH2 0x6EA SWAP2 SWAP1 PUSH2 0x2F1F JUMP JUMPDEST PUSH2 0x10D0 JUMP JUMPDEST STOP JUMPDEST CALLVALUE DUP1 ISZERO PUSH2 0x6FC JUMPI PUSH0 PUSH0 REVERT JUMPDEST POP PUSH2 0x705 PUSH2 0x11A8 JUMP JUMPDEST STOP JUMPDEST CALLVALUE DUP1 ISZERO PUSH2 0x712 JUMPI PUSH0 PUSH0 REVERT JUMPDEST POP PUSH2 0x72D PUSH1 0x4 DUP1 CALLDATASIZE SUB DUP2 ADD SWAP1 PUSH2 0x728 SWAP2 SWAP1 PUSH2 0x2FE0 JUMP JUMPDEST PUSH2 0x11BA JUMP JUMPDEST STOP JUMPDEST CALLVALUE DUP1 ISZERO PUSH2 0x73A JUMPI PUSH0 PUSH0 REVERT JUMPDEST POP PUSH2 0x743 PUSH2 0x1425 JUMP JUMPDEST PUSH1 0x40 MLOAD PUSH2 0x750 SWAP2 SWAP1 PUSH2 0x2F9F JUMP JUMPDEST PUSH1 0x40 MLOAD DUP1 SWAP2 SUB SWAP1 RETURN JUMPDEST PUSH2 0x773 PUSH1 0x4 DUP1 CALLDATASIZE SUB DUP2 ADD SWAP1 PUSH2 0x76E SWAP2 SWAP1 PUSH2 0x2FE0 JUMP JUMPDEST PUSH2 0x142A JUMP JUMPDEST STOP JUMPDEST CALLVALUE DUP1 ISZERO PUSH2 0x780 JUMPI PUSH0 PUSH0 REVERT JUMPDEST POP PUSH2 0x789 PUSH2 0x1548 JUMP JUMPDEST PUSH1 0x40 MLOAD PUSH2 0x796 SWAP2 SWAP1 PUSH2 0x2F77 JUMP JUMPDEST PUSH1 0x40 MLOAD DUP1 SWAP2 SUB SWAP1 RETURN JUMPDEST CALLVALUE DUP1 ISZERO PUSH2 0x7AA JUMPI PUSH0 PUSH0 REVERT JUMPDEST POP PUSH2 0x7B3 PUSH2 0x155D JUMP JUMPDEST PUSH1 0x40 MLOAD PUSH2 0x7C0 SWAP2 SWAP1 PUSH2 0x2F9F JUMP JUMPDEST PUSH1 0x40 MLOAD DUP1 SWAP2 SUB SWAP1 RETURN JUMPDEST CALLVALUE DUP1 ISZERO PUSH2 0x7D4 JUMPI PUSH0 PUSH0 REVERT JUMPDEST POP PUSH2 0x7EF PUSH1 0x4 DUP1 CALLDATASIZE SUB DUP2 ADD SWAP1 PUSH2 0x7EA SWAP2 SWAP1 PUSH2 0x2FE0 JUMP JUMPDEST PUSH2 0x1563 JUMP JUMPDEST STOP JUMPDEST CALLVALUE DUP1 ISZERO PUSH2 0x7FC JUMPI PUSH0 PUSH0 REVERT JUMPDEST POP PUSH2 0x805 PUSH2 0x15EE JUMP JUMPDEST PUSH1 0x40 MLOAD PUSH2 0x812 SWAP2 SWAP1 PUSH2 0x2F9F JUMP JUMPDEST PUSH1 0x40 MLOAD DUP1 SWAP2 SUB SWAP1 RETURN JUMPDEST CALLVALUE DUP1 ISZERO PUSH2 0x826 JUMPI PUSH0 PUSH0 REVERT JUMPDEST POP PUSH2 0x82F PUSH2 0x15F3 JUMP JUMPDEST PUSH1 0x40 MLOAD PUSH2 0x83C SWAP2 SWAP1 PUSH2 0x2FC7 JUMP JUMPDEST PUSH1 0x40 MLOAD DUP1 SWAP2 SUB SWAP1 RETURN JUMPDEST CALLVALUE DUP1 ISZERO PUSH2 0x850 JUMPI PUSH0 PUSH0 REVERT JUMPDEST POP PUSH2 0x86B PUSH1 0x4 DUP1 CALLDATASIZE SUB DUP2 ADD SWAP1 PUSH2 0x866 SWAP2 SWAP1 PUSH2 0x300B JUMP JUMPDEST PUSH2 0x160B JUMP JUMPDEST PUSH1 0x40 MLOAD PUSH2 0x878 SWAP2 SWAP1 PUSH2 0x2F9F JUMP JUMPDEST PUSH1 0x40 MLOAD DUP1 SWAP2 SUB SWAP1 RETURN JUMPDEST CALLVALUE DUP1 ISZERO PUSH2 0x88C JUMPI PUSH0 PUSH0 REVERT JUMPDEST POP PUSH2 0x895 PUSH2 0x1650 JUMP JUMPDEST STOP JUMPDEST CALLVALUE DUP1 ISZERO PUSH2 0x8A2 JUMPI PUSH0 PUSH0 REVERT JUMPDEST POP PUSH2 0x8AB PUSH2 0x1663 JUMP JUMPDEST PUSH1 0x40 MLOAD PUSH2 0x8B8 SWAP2 SWAP1 PUSH2 0x2F9F JUMP JUMPDEST PUSH1 0x40 MLOAD DUP1 SWAP2 SUB SWAP1 RETURN JUMPDEST CALLVALUE DUP1 ISZERO PUSH2 0x8CC JUMPI PUSH0 PUSH0 REVERT JUMPDEST POP PUSH2 0x8D5 PUSH2 0x1673 JUMP JUMPDEST PUSH1 0x40 MLOAD PUSH2 0x8E2 SWAP2 SWAP1 PUSH2 0x2F9F JUMP JUMPDEST PUSH1 0x40 MLOAD DUP1 SWAP2 SUB SWAP1 RETURN JUMPDEST CALLVALUE DUP1 ISZERO PUSH2 0x8F6 JUMPI PUSH0 PUSH0 REVERT JUMPDEST POP PUSH2 0x8FF PUSH2 0x1683 JUMP JUMPDEST STOP JUMPDEST CALLVALUE DUP1 ISZERO PUSH2 0x90C JUMPI PUSH0 PUSH0 REVERT JUMPDEST POP PUSH2 0x915 PUSH2 0x1695 JUMP JUMPDEST PUSH1 0x40 MLOAD PUSH2 0x922 SWAP2 SWAP1 PUSH2 0x2F9F JUMP JUMPDEST PUSH1 0x40 MLOAD DUP1 SWAP2 SUB SWAP1 RETURN JUMPDEST CALLVALUE DUP1 ISZERO PUSH2 0x936 JUMPI PUSH0 PUSH0 REVERT JUMPDEST POP PUSH2 0x951 PUSH1 0x4 DUP1 CALLDATASIZE SUB DUP2 ADD SWAP1 PUSH2 0x94C SWAP2 SWAP1 PUSH2 0x300B JUMP JUMPDEST PUSH2 0x16A4 JUMP JUMPDEST PUSH1 0x40 MLOAD PUSH2 0x95E SWAP2 SWAP1 PUSH2 0x2F9F JUMP JUMPDEST PUSH1 0x40 MLOAD DUP1 SWAP2 SUB SWAP1 RETURN JUMPDEST CALLVALUE DUP1 ISZERO PUSH2 0x972 JUMPI PUSH0 PUSH0 REVERT JUMPDEST POP PUSH2 0x97B PUSH2 0x16B9 JUMP JUMPDEST PUSH1 0x40 MLOAD PUSH2 0x988 SWAP2 SWAP1 PUSH2 0x2FC7 JUMP JUMPDEST PUSH1 0x40 MLOAD DUP1 SWAP2 SUB SWAP1 RETURN JUMPDEST CALLVALUE DUP1 ISZERO PUSH2 0x99C JUMPI PUSH0 PUSH0 REVERT JUMPDEST POP PUSH2 0x9A5 PUSH2 0x16E1 JUMP JUMPDEST PUSH1 0x40 MLOAD PUSH2 0x9B2 SWAP2 SWAP1 PUSH2 0x2F9F JUMP JUMPDEST PUSH1 0x40 MLOAD DUP1 SWAP2 SUB SWAP1 RETURN JUMPDEST CALLVALUE DUP1 ISZERO PUSH2 0x9C6 JUMPI PUSH0 PUSH0 REVERT JUMPDEST POP PUSH2 0x9CF PUSH2 0x16F2 JUMP JUMPDEST PUSH1 0x40 MLOAD PUSH2 0x9DC SWAP2 SWAP1 PUSH2 0x2F9F JUMP JUMPDEST PUSH1 0x40 MLOAD DUP1 SWAP2 SUB SWAP1 RETURN JUMPDEST CALLVALUE DUP1 ISZERO PUSH2 0x9F0 JUMPI PUSH0 PUSH0 REVERT JUMPDEST POP PUSH2 0x9F9 PUSH2 0x1702 JUMP JUMPDEST PUSH1 0x40 MLOAD PUSH2 0xA06 SWAP2 SWAP1 PUSH2 0x2E61 JUMP JUMPDEST PUSH1 0x40 MLOAD DUP1 SWAP2 SUB SWAP1 RETURN JUMPDEST CALLVALUE DUP1 ISZERO PUSH2 0xA1A JUMPI PUSH0 PUSH0 REVERT JUMPDEST POP PUSH2 0xA23 PUSH2 0x1792 JUMP JUMPDEST PUSH1 0x40 MLOAD PUSH2 0xA30 SWAP2 SWAP1 PUSH2 0x2F9F JUMP JUMPDEST PUSH1 0x40 MLOAD DUP1 SWAP2 SUB SWAP1 RETURN JUMPDEST CALLVALUE DUP1 ISZERO PUSH2 0xA44 JUMPI PUSH0 PUSH0 REVERT JUMPDEST POP PUSH2 0xA4D PUSH2 0x17A2 JUMP JUMPDEST PUSH1 0x40 MLOAD PUSH2 0xA5A SWAP2 SWAP1 PUSH2 0x2F9F JUMP JUMPDEST PUSH1 0x40 MLOAD DUP1 SWAP2 SUB SWAP1 RETURN JUMPDEST CALLVALUE DUP1 ISZERO PUSH2 0xA6E JUMPI PUSH0 PUSH0 REVERT JUMPDEST POP PUSH2 0xA77 PUSH2 0x17B2 JUMP JUMPDEST PUSH1 0x40 MLOAD PUSH2 0xA84 SWAP2 SWAP1 PUSH2 0x2F9F JUMP JUMPDEST PUSH1 0x40 MLOAD DUP1 SWAP2 SUB SWAP1 RETURN JUMPDEST CALLVALUE DUP1 ISZERO PUSH2 0xA98 JUMPI PUSH0 PUSH0 REVERT JUMPDEST POP PUSH2 0xAA1 PUSH2 0x17C2 JUMP JUMPDEST PUSH1 0x40 MLOAD PUSH2 0xAAE SWAP2 SWAP1 PUSH2 0x2FC7 JUMP JUMPDEST PUSH1 0x40 MLOAD DUP1 SWAP2 SUB SWAP1 RETURN JUMPDEST CALLVALUE DUP1 ISZERO PUSH2 0xAC2 JUMPI PUSH0 PUSH0 REVERT JUMPDEST POP PUSH2 0xACB PUSH2 0x17DA JUMP JUMPDEST STOP JUMPDEST CALLVALUE DUP1 ISZERO PUSH2 0xAD8 JUMPI PUSH0 PUSH0 REVERT JUMPDEST POP PUSH2 0xAF3 PUSH1 0x4 DUP1 CALLDATASIZE SUB DUP2 ADD SWAP1 PUSH2 0xAEE SWAP2 SWAP1 PUSH2 0x2F1F JUMP JUMPDEST PUSH2 0x19D4 JUMP JUMPDEST PUSH1 0x40 MLOAD PUSH2 0xB00 SWAP2 SWAP1 PUSH2 0x2F77 JUMP JUMPDEST PUSH1 0x40 MLOAD DUP1 SWAP2 SUB SWAP1 RETURN JUMPDEST CALLVALUE DUP1 ISZERO PUSH2 0xB14 JUMPI PUSH0 PUSH0 REVERT JUMPDEST POP PUSH2 0xB1D PUSH2 0x19F1 JUMP JUMPDEST PUSH1 0x40 MLOAD PUSH2 0xB2A SWAP2 SWAP1 PUSH2 0x2FC7 JUMP JUMPDEST PUSH1 0x40 MLOAD DUP1 SWAP2 SUB SWAP1 RETURN JUMPDEST PUSH2 0xB3B PUSH2 0x1A09 JUMP JUMPDEST STOP JUMPDEST CALLVALUE DUP1 ISZERO PUSH2 0xB48 JUMPI PUSH0 PUSH0 REVERT JUMPDEST POP PUSH2 0xB51 PUSH2 0x1BEE JUMP JUMPDEST PUSH1 0x40 MLOAD PUSH2 0xB5E SWAP2 SWAP1 PUSH2 0x2F9F JUMP JUMPDEST PUSH1 0x40 MLOAD DUP1 SWAP2 SUB SWAP1 RETURN JUMPDEST CALLVALUE DUP1 ISZERO PUSH2 0xB72 JUMPI PUSH0 PUSH0 REVERT JUMPDEST POP PUSH2 0xB8D PUSH1 0x4 DUP1 CALLDATASIZE SUB DUP2 ADD SWAP1 PUSH2 0xB88 SWAP2 SWAP1 PUSH2 0x312D JUMP JUMPDEST PUSH2 0x1BF3 JUMP JUMPDEST PUSH1 0x40 MLOAD PUSH2 0xB9A SWAP2 SWAP1 PUSH2 0x2F9F JUMP JUMPDEST PUSH1 0x40 MLOAD DUP1 SWAP2 SUB SWAP1 RETURN JUMPDEST CALLVALUE DUP1 ISZERO PUSH2 0xBAE JUMPI PUSH0 PUSH0 REVERT JUMPDEST POP PUSH2 0xBB7 PUSH2 0x1C75 JUMP JUMPDEST PUSH1 0x40 MLOAD PUSH2 0xBC4 SWAP2 SWAP1 PUSH2 0x2F9F JUMP JUMPDEST PUSH1 0x40 MLOAD DUP1 SWAP2 SUB SWAP1 RETURN JUMPDEST CALLVALUE DUP1 ISZERO PUSH2 0xBD8 JUMPI PUSH0 PUSH0 REVERT JUMPDEST POP PUSH2 0xBE1 PUSH2 0x1C7B JUMP JUMPDEST PUSH1 0x40 MLOAD PUSH2 0xBEE SWAP2 SWAP1 PUSH2 0x2FC7 JUMP JUMPDEST PUSH1 0x40 MLOAD DUP1 SWAP2 SUB SWAP1 RETURN JUMPDEST CALLVALUE DUP1 ISZERO PUSH2 0xC02 JUMPI PUSH0 PUSH0 REVERT JUMPDEST POP PUSH2 0xC1D PUSH1 0x4 DUP1 CALLDATASIZE SUB DUP2 ADD SWAP1 PUSH2 0xC18 SWAP2 SWAP1 PUSH2 0x300B JUMP JUMPDEST PUSH2 0x1C93 JUMP JUMPDEST STOP JUMPDEST CALLVALUE DUP1 ISZERO PUSH2 0xC2A JUMPI PUSH0 PUSH0 REVERT JUMPDEST POP PUSH2 0xC33 PUSH2 0x1D17 JUMP JUMPDEST PUSH1 0x40 MLOAD PUSH2 0xC40 SWAP2 SWAP1 PUSH2 0x2FC7 JUMP JUMPDEST PUSH1 0x40 MLOAD DUP1 SWAP2 SUB SWAP1 RETURN JUMPDEST CALLVALUE DUP1 ISZERO PUSH2 0xC54 JUMPI PUSH0 PUSH0 REVERT JUMPDEST POP PUSH2 0xC5D PUSH2 0x1D2F JUMP JUMPDEST STOP JUMPDEST PUSH1 0x60 PUSH1 0x3 DUP1 SLOAD PUSH2 0xC6E SWAP1 PUSH2 0x3198 JUMP JUMPDEST DUP1 PUSH1 0x1F ADD PUSH1 0x20 DUP1 SWAP2 DIV MUL PUSH1 0x20 ADD PUSH1 0x40 MLOAD SWAP1 DUP2 ADD PUSH1 0x40 MSTORE DUP1 SWAP3 SWAP2 SWAP1 DUP2 DUP2 MSTORE PUSH1 0x20 ADD DUP3 DUP1 SLOAD PUSH2 0xC9A SWAP1 PUSH2 0x3198 JUMP JUMPDEST DUP1 ISZERO PUSH2 0xCE5 JUMPI DUP1 PUSH1 0x1F LT PUSH2 0xCBC JUMPI PUSH2 0x100 DUP1 DUP4 SLOAD DIV MUL DUP4 MSTORE SWAP2 PUSH1 0x20 ADD SWAP2 PUSH2 0xCE5 JUMP JUMPDEST DUP3 ADD SWAP2 SWAP1 PUSH0 MSTORE PUSH1 0x20 PUSH0 KECCAK256 SWAP1 JUMPDEST DUP2 SLOAD DUP2 MSTORE SWAP1 PUSH1 0x1 ADD SWAP1 PUSH1 0x20 ADD DUP1 DUP4 GT PUSH2 0xCC8 JUMPI DUP3 SWAP1 SUB PUSH1 0x1F AND DUP3 ADD SWAP2 JUMPDEST POP POP POP POP POP SWAP1 POP SWAP1 JUMP JUMPDEST PUSH2 0xCF7 PUSH2 0x2091 JUMP JUMPDEST PUSH4 0x1E13380 PUSH1 0xE SLOAD PUSH2 0xD09 SWAP2 SWAP1 PUSH2 0x31F5 JUMP JUMPDEST TIMESTAMP LT ISZERO PUSH2 0xD4B JUMPI PUSH1 0x40 MLOAD PUSH32 0x8C379A000000000000000000000000000000000000000000000000000000000 DUP2 MSTORE PUSH1 0x4 ADD PUSH2 0xD42 SWAP1 PUSH2 0x3298 JUMP JUMPDEST PUSH1 0x40 MLOAD DUP1 SWAP2 SUB SWAP1 REVERT JUMPDEST PUSH2 0xD75 PUSH20 0x6794D2AC1D6375BAC41A03B7303146BF1E8EDBEB PUSH12 0x7AC8DCFFB8F3090A70000000 PUSH2 0x2118 JUMP JUMPDEST TIMESTAMP PUSH1 0xE DUP2 SWAP1 SSTORE POP PUSH32 0x8BC81353CF6671D259D22783E39ED930583C86F3F4CF7E981298E6A872DFB15D PUSH12 0x7AC8DCFFB8F3090A70000000 PUSH2 0xDB2 PUSH2 0xE8B JUMP JUMPDEST PUSH1 0x40 MLOAD PUSH2 0xDC0 SWAP3 SWAP2 SWAP1 PUSH2 0x32B6 JUMP JUMPDEST PUSH1 0x40 MLOAD DUP1 SWAP2 SUB SWAP1 LOG1 JUMP JUMPDEST PUSH0 PUSH0 PUSH2 0xDD4 PUSH2 0x2197 JUMP JUMPDEST SWAP1 POP PUSH2 0xDE1 DUP2 DUP6 DUP6 PUSH2 0x219E JUMP JUMPDEST PUSH1 0x1 SWAP2 POP POP SWAP3 SWAP2 POP POP JUMP JUMPDEST PUSH12 0xCECB8F27F4200F3A0000000 DUP2 JUMP JUMPDEST PUSH20 0x3456789012345678901234567890123456789012 DUP2 JUMP JUMPDEST PUSH1 0x8 DUP2 PUSH1 0x5 DUP2 LT PUSH2 0xE23 JUMPI PUSH0 DUP1 REVERT JUMPDEST ADD PUSH0 SWAP2 POP SLOAD SWAP1 PUSH2 0x100 EXP SWAP1 DIV PUSH20 0xFFFFFFFFFFFFFFFFFFFFFFFFFFFFFFFFFFFFFFFF AND DUP2 JUMP JUMPDEST PUSH1 0x11 PUSH1 0x20 MSTORE DUP1 PUSH0 MSTORE PUSH1 0x40 PUSH0 KECCAK256 PUSH0 SWAP2 POP SWAP1 POP DUP1 PUSH0 ADD SLOAD SWAP1 DUP1 PUSH1 0x1 ADD SLOAD SWAP1 DUP1 PUSH1 0x2 ADD SLOAD SWAP1 POP DUP4 JUMP JUMPDEST PUSH1 0xD PUSH1 0x20 MSTORE DUP1 PUSH0 MSTORE PUSH1 0x40 PUSH0 KECCAK256 PUSH0 SWAP2 POP SLOAD SWAP1 PUSH2 0x100 EXP SWAP1 DIV PUSH1 0xFF AND DUP2 JUMP JUMPDEST PUSH0 PUSH1 0x2 SLOAD SWAP1 POP SWAP1 JUMP JUMPDEST PUSH1 0xF SLOAD DUP2 JUMP JUMPDEST PUSH0 PUSH2 0xEA6 DUP5 DUP5 DUP5 PUSH2 0x21B0 JUMP JUMPDEST PUSH2 0xEDA DUP5 PUSH2 0xEB2 PUSH2 0x2197 JUMP JUMPDEST PUSH2 0xED5 DUP6 PUSH2 0xEC7 DUP10 PUSH2 0xEC2 PUSH2 0x2197 JUMP JUMPDEST PUSH2 0x1BF3 JUMP JUMPDEST PUSH2 0x259D SWAP1 SWAP2 SWAP1 PUSH4 0xFFFFFFFF AND JUMP JUMPDEST PUSH2 0x219E JUMP JUMPDEST PUSH1 0x1 SWAP1 POP SWAP4 SWAP3 POP POP POP JUMP JUMPDEST PUSH12 0x169E43A85EB381AA58000000 DUP2 JUMP JUMPDEST PUSH1 0x12 PUSH1 0x20 MSTORE DUP1 PUSH0 MSTORE PUSH1 0x40 PUSH0 KECCAK256 PUSH0 SWAP2 POP SWAP1 POP SLOAD DUP2 JUMP JUMPDEST PUSH12 0x1D14A0219E54822428000000 DUP2 JUMP JUMPDEST PUSH1 0x1E DUP2 JUMP JUMPDEST PUSH0 PUSH1 0x12 SWAP1 POP SWAP1 JUMP JUMPDEST PUSH4 0x67748580 DUP2 JUMP JUMPDEST PUSH1 0x13 SLOAD DUP2 JUMP JUMPDEST PUSH2 0xF3D PUSH2 0x25B2 JUMP JUMPDEST PUSH2 0xF45 PUSH2 0x2601 JUMP JUMPDEST PUSH9 0x1B1AE4D6E2EF500000 DUP3 LT ISZERO PUSH2 0xF91 JUMPI PUSH1 0x40 MLOAD PUSH32 0x8C379A000000000000000000000000000000000000000000000000000000000 DUP2 MSTORE PUSH1 0x4 ADD PUSH2 0xF88 SWAP1 PUSH2 0x334D JUMP JUMPDEST PUSH1 0x40 MLOAD DUP1 SWAP2 SUB SWAP1 REVERT JUMPDEST PUSH3 0xED4E00 DUP2 EQ DUP1 PUSH2 0xFA5 JUMPI POP PUSH4 0x1DA9C00 DUP2 EQ JUMPDEST DUP1 PUSH2 0xFB3 JUMPI POP PUSH4 0x3B53800 DUP2 EQ JUMPDEST PUSH2 0xFF2 JUMPI PUSH1 0x40 MLOAD PUSH32 0x8C379A000000000000000000000000000000000000000000000000000000000 DUP2 MSTORE PUSH1 0x4 ADD PUSH2 0xFE9 SWAP1 PUSH2 0x33B5 JUMP JUMPDEST PUSH1 0x40 MLOAD DUP1 SWAP2 SUB SWAP1 REVERT JUMPDEST PUSH2 0xFFD CALLER ADDRESS DUP5 PUSH2 0x264B JUMP JUMPDEST PUSH1 0x40 MLOAD DUP1 PUSH1 0x60 ADD PUSH1 0x40 MSTORE DUP1 DUP4 DUP2 MSTORE PUSH1 0x20 ADD TIMESTAMP DUP2 MSTORE PUSH1 0x20 ADD DUP3 DUP2 MSTORE POP PUSH1 0x11 PUSH0 CALLER PUSH20 0xFFFFFFFFFFFFFFFFFFFFFFFFFFFFFFFFFFFFFFFF AND PUSH20 0xFFFFFFFFFFFFFFFFFFFFFFFFFFFFFFFFFFFFFFFF AND DUP2 MSTORE PUSH1 0x20 ADD SWAP1 DUP2 MSTORE PUSH1 0x20 ADD PUSH0 KECCAK256 PUSH0 DUP3 ADD MLOAD DUP2 PUSH0 ADD SSTORE PUSH1 0x20 DUP3 ADD MLOAD DUP2 PUSH1 0x1 ADD SSTORE PUSH1 0x40 DUP3 ADD MLOAD DUP2 PUSH1 0x2 ADD SSTORE SWAP1 POP POP CALLER PUSH20 0xFFFFFFFFFFFFFFFFFFFFFFFFFFFFFFFFFFFFFFFF AND PUSH32 0xDD2A19C3BDD089CBE77C04F5655F83DE0504D6140D12C8667646F55D0557C4DC DUP4 DUP4 PUSH1 0x40 MLOAD PUSH2 0x10BC SWAP3 SWAP2 SWAP1 PUSH2 0x32B6 JUMP JUMPDEST PUSH1 0x40 MLOAD DUP1 SWAP2 SUB SWAP1 LOG2 PUSH2 0x10CC PUSH2 0x273B JUMP JUMPDEST POP POP JUMP JUMPDEST PUSH2 0x10D8 PUSH2 0x2091 JUMP JUMPDEST PUSH2 0x10F5 PUSH20 0xAAF26C2DB4C6907143B4C2EA29FFDA1B55C7A30C PUSH2 0x160B JUMP JUMPDEST DUP2 GT ISZERO PUSH2 0x1137 JUMPI PUSH1 0x40 MLOAD PUSH32 0x8C379A000000000000000000000000000000000000000000000000000000000 DUP2 MSTORE PUSH1 0x4 ADD PUSH2 0x112E SWAP1 PUSH2 0x3443 JUMP JUMPDEST PUSH1 0x40 MLOAD DUP1 SWAP2 SUB SWAP1 REVERT JUMPDEST PUSH2 0x1156 PUSH20 0xAAF26C2DB4C6907143B4C2EA29FFDA1B55C7A30C DUP4 DUP4 PUSH2 0x264B JUMP JUMPDEST DUP2 PUSH20 0xFFFFFFFFFFFFFFFFFFFFFFFFFFFFFFFFFFFFFFFF AND PUSH32 0x8E4023044B5DD0A0032B0A1ED207924C69B5FFDFE08E83A097FF27970387E004 DUP3 PUSH1 0x40 MLOAD PUSH2 0x119C SWAP2 SWAP1 PUSH2 0x2F9F JUMP JUMPDEST PUSH1 0x40 MLOAD DUP1 SWAP2 SUB SWAP1 LOG2 POP POP JUMP JUMPDEST PUSH2 0x11B0 PUSH2 0x2091 JUMP JUMPDEST PUSH2 0x11B8 PUSH2 0x2745 JUMP JUMPDEST JUMP JUMPDEST PUSH2 0x11C2 PUSH2 0x25B2 JUMP JUMPDEST PUSH2 0x11CA PUSH2 0x2601 JUMP JUMPDEST PUSH0 DUP2 GT PUSH2 0x120C JUMPI PUSH1 0x40 MLOAD PUSH32 0x8C379A000000000000000000000000000000000000000000000000000000000 DUP2 MSTORE PUSH1 0x4 ADD PUSH2 0x1203 SWAP1 PUSH2 0x34D1 JUMP JUMPDEST PUSH1 0x40 MLOAD DUP1 SWAP2 SUB SWAP1 REVERT JUMPDEST DUP1 PUSH2 0x1217 CALLER ADDRESS PUSH2 0x1BF3 JUMP JUMPDEST LT ISZERO PUSH2 0x1258 JUMPI PUSH1 0x40 MLOAD PUSH32 0x8C379A000000000000000000000000000000000000000000000000000000000 DUP2 MSTORE PUSH1 0x4 ADD PUSH2 0x124F SWAP1 PUSH2 0x3539 JUMP JUMPDEST PUSH1 0x40 MLOAD DUP1 SWAP2 SUB SWAP1 REVERT JUMPDEST PUSH2 0x1263 CALLER ADDRESS DUP4 PUSH2 0x264B JUMP JUMPDEST PUSH2 0x1282 ADDRESS PUSH20 0xA5E0829CACED8FFDD4DE3C43696C57F7D7A678FF DUP4 PUSH2 0x219E JUMP JUMPDEST PUSH0 PUSH1 0x2 PUSH8 0xFFFFFFFFFFFFFFFF DUP2 GT ISZERO PUSH2 0x129E JUMPI PUSH2 0x129D PUSH2 0x3557 JUMP JUMPDEST JUMPDEST PUSH1 0x40 MLOAD SWAP1 DUP1 DUP3 MSTORE DUP1 PUSH1 0x20 MUL PUSH1 0x20 ADD DUP3 ADD PUSH1 0x40 MSTORE DUP1 ISZERO PUSH2 0x12CC JUMPI DUP2 PUSH1 0x20 ADD PUSH1 0x20 DUP3 MUL DUP1 CALLDATASIZE DUP4 CALLDATACOPY DUP1 DUP3 ADD SWAP2 POP POP SWAP1 POP JUMPDEST POP SWAP1 POP ADDRESS DUP2 PUSH0 DUP2 MLOAD DUP2 LT PUSH2 0x12E3 JUMPI PUSH2 0x12E2 PUSH2 0x3584 JUMP JUMPDEST JUMPDEST PUSH1 0x20 MUL PUSH1 0x20 ADD ADD SWAP1 PUSH20 0xFFFFFFFFFFFFFFFFFFFFFFFFFFFFFFFFFFFFFFFF AND SWAP1 DUP2 PUSH20 0xFFFFFFFFFFFFFFFFFFFFFFFFFFFFFFFFFFFFFFFF AND DUP2 MSTORE POP POP PUSH20 0xD500B1D8E8EF31E21C99D1DB9A6444D3ADF1270 DUP2 PUSH1 0x1 DUP2 MLOAD DUP2 LT PUSH2 0x1346 JUMPI PUSH2 0x1345 PUSH2 0x3584 JUMP JUMPDEST JUMPDEST PUSH1 0x20 MUL PUSH1 0x20 ADD ADD SWAP1 PUSH20 0xFFFFFFFFFFFFFFFFFFFFFFFFFFFFFFFFFFFFFFFF AND SWAP1 DUP2 PUSH20 0xFFFFFFFFFFFFFFFFFFFFFFFFFFFFFFFFFFFFFFFF AND DUP2 MSTORE POP POP PUSH20 0xA5E0829CACED8FFDD4DE3C43696C57F7D7A678FF PUSH20 0xFFFFFFFFFFFFFFFFFFFFFFFFFFFFFFFFFFFFFFFF AND PUSH4 0x1DD16B86 DUP4 PUSH0 DUP5 CALLER TIMESTAMP PUSH1 0x40 MLOAD DUP7 PUSH4 0xFFFFFFFF AND PUSH1 0xE0 SHL DUP2 MSTORE PUSH1 0x4 ADD PUSH2 0x13D5 SWAP6 SWAP5 SWAP4 SWAP3 SWAP2 SWAP1 PUSH2 0x36AA JUMP JUMPDEST PUSH0 PUSH1 0x40 MLOAD DUP1 DUP4 SUB DUP2 PUSH0 DUP8 GAS CALL ISZERO DUP1 ISZERO PUSH2 0x13F0 JUMPI RETURNDATASIZE PUSH0 PUSH0 RETURNDATACOPY RETURNDATASIZE PUSH0 REVERT JUMPDEST POP POP POP POP PUSH1 0x40 MLOAD RETURNDATASIZE PUSH0 DUP3 RETURNDATACOPY RETURNDATASIZE PUSH1 0x1F NOT PUSH1 0x1F DUP3 ADD AND DUP3 ADD DUP1 PUSH1 0x40 MSTORE POP DUP2 ADD SWAP1 PUSH2 0x1418 SWAP2 SWAP1 PUSH2 0x3829 JUMP JUMPDEST POP POP PUSH2 0x1422 PUSH2 0x273B JUMP JUMPDEST POP JUMP JUMPDEST PUSH1 0xA DUP2 JUMP JUMPDEST PUSH2 0x1432 PUSH2 0x2091 JUMP JUMPDEST PUSH0 CALLVALUE GT PUSH2 0x1474 JUMPI PUSH1 0x40 MLOAD PUSH32 0x8C379A000000000000000000000000000000000000000000000000000000000 DUP2 MSTORE PUSH1 0x4 ADD PUSH2 0x146B SWAP1 PUSH2 0x38E0 JUMP JUMPDEST PUSH1 0x40 MLOAD DUP1 SWAP2 SUB SWAP1 REVERT JUMPDEST PUSH0 DUP2 GT PUSH2 0x14B6 JUMPI PUSH1 0x40 MLOAD PUSH32 0x8C379A000000000000000000000000000000000000000000000000000000000 DUP2 MSTORE PUSH1 0x4 ADD PUSH2 0x14AD SWAP1 PUSH2 0x34D1 JUMP JUMPDEST PUSH1 0x40 MLOAD DUP1 SWAP2 SUB SWAP1 REVERT JUMPDEST PUSH2 0x14BF CALLER PUSH2 0x160B JUMP JUMPDEST DUP2 GT ISZERO PUSH2 0x1501 JUMPI PUSH1 0x40 MLOAD PUSH32 0x8C379A000000000000000000000000000000000000000000000000000000000 DUP2 MSTORE PUSH1 0x4 ADD PUSH2 0x14F8 SWAP1 PUSH2 0x3948 JUMP JUMPDEST PUSH1 0x40 MLOAD DUP1 SWAP2 SUB SWAP1 REVERT JUMPDEST PUSH2 0x150C CALLER ADDRESS DUP4 PUSH2 0x264B JUMP JUMPDEST PUSH32 0x38F8A0C92F4C5B0B6877F878CB4C0C8D348A47B76D716C8E78F425043DF9515B DUP2 CALLVALUE PUSH1 0x40 MLOAD PUSH2 0x153D SWAP3 SWAP2 SWAP1 PUSH2 0x32B6 JUMP JUMPDEST PUSH1 0x40 MLOAD DUP1 SWAP2 SUB SWAP1 LOG1 POP JUMP JUMPDEST PUSH0 PUSH1 0x7 PUSH0 SWAP1 SLOAD SWAP1 PUSH2 0x100 EXP SWAP1 DIV PUSH1 0xFF AND SWAP1 POP SWAP1 JUMP JUMPDEST PUSH2 0x12C DUP2 JUMP JUMPDEST PUSH2 0x156B PUSH2 0x2091 JUMP JUMPDEST PUSH0 DUP2 GT PUSH2 0x15AD JUMPI PUSH1 0x40 MLOAD PUSH32 0x8C379A000000000000000000000000000000000000000000000000000000000 DUP2 MSTORE PUSH1 0x4 ADD PUSH2 0x15A4 SWAP1 PUSH2 0x39B0 JUMP JUMPDEST PUSH1 0x40 MLOAD DUP1 SWAP2 SUB SWAP1 REVERT JUMPDEST DUP1 PUSH1 0x13 DUP2 SWAP1 SSTORE POP PUSH32 0x6B361C807733CC94A3B7BDA39C1C94DCC0511E91AA47B0F7F918068E93976890 DUP2 PUSH1 0x40 MLOAD PUSH2 0x15E3 SWAP2 SWAP1 PUSH2 0x2F9F JUMP JUMPDEST PUSH1 0x40 MLOAD DUP1 SWAP2 SUB SWAP1 LOG1 POP JUMP JUMPDEST PUSH1 0x1 DUP2 JUMP JUMPDEST PUSH20 0x4567890123456789012345678901234567890123 DUP2 JUMP JUMPDEST PUSH0 PUSH0 PUSH0 DUP4 PUSH20 0xFFFFFFFFFFFFFFFFFFFFFFFFFFFFFFFFFFFFFFFF AND PUSH20 0xFFFFFFFFFFFFFFFFFFFFFFFFFFFFFFFFFFFFFFFF AND DUP2 MSTORE PUSH1 0x20 ADD SWAP1 DUP2 MSTORE PUSH1 0x20 ADD PUSH0 KECCAK256 SLOAD SWAP1 POP SWAP2 SWAP1 POP JUMP JUMPDEST PUSH2 0x1658 PUSH2 0x2091 JUMP JUMPDEST PUSH2 0x1661 PUSH0 PUSH2 0x27A6 JUMP JUMPDEST JUMP JUMPDEST PUSH12 0x14ADF4B7320334B90000000 DUP2 JUMP JUMPDEST PUSH12 0x1027E72F1F12813088000000 DUP2 JUMP JUMPDEST PUSH2 0x168B PUSH2 0x2091 JUMP JUMPDEST PUSH2 0x1693 PUSH2 0x2869 JUMP JUMPDEST JUMP JUMPDEST PUSH11 0x52B7D2DCC80CD2E4000000 DUP2 JUMP JUMPDEST PUSH1 0x10 PUSH1 0x20 MSTORE DUP1 PUSH0 MSTORE PUSH1 0x40 PUSH0 KECCAK256 PUSH0 SWAP2 POP SWAP1 POP SLOAD DUP2 JUMP JUMPDEST PUSH0 PUSH1 0x5 PUSH0 SWAP1 SLOAD SWAP1 PUSH2 0x100 EXP SWAP1 DIV PUSH20 0xFFFFFFFFFFFFFFFFFFFFFFFFFFFFFFFFFFFFFFFF AND SWAP1 POP SWAP1 JUMP JUMPDEST PUSH13 0x64F964E68233A76F520000000 DUP2 JUMP JUMPDEST PUSH12 0x19D971E4FE8401E740000000 DUP2 JUMP JUMPDEST PUSH1 0x60 PUSH1 0x4 DUP1 SLOAD PUSH2 0x1711 SWAP1 PUSH2 0x3198 JUMP JUMPDEST DUP1 PUSH1 0x1F ADD PUSH1 0x20 DUP1 SWAP2 DIV MUL PUSH1 0x20 ADD PUSH1 0x40 MLOAD SWAP1 DUP2 ADD PUSH1 0x40 MSTORE DUP1 SWAP3 SWAP2 SWAP1 DUP2 DUP2 MSTORE PUSH1 0x20 ADD DUP3 DUP1 SLOAD PUSH2 0x173D SWAP1 PUSH2 0x3198 JUMP JUMPDEST DUP1 ISZERO PUSH2 0x1788 JUMPI DUP1 PUSH1 0x1F LT PUSH2 0x175F JUMPI PUSH2 0x100 DUP1 DUP4 SLOAD DIV MUL DUP4 MSTORE SWAP2 PUSH1 0x20 ADD SWAP2 PUSH2 0x1788 JUMP JUMPDEST DUP3 ADD SWAP2 SWAP1 PUSH0 MSTORE PUSH1 0x20 PUSH0 KECCAK256 SWAP1 JUMPDEST DUP2 SLOAD DUP2 MSTORE SWAP1 PUSH1 0x1 ADD SWAP1 PUSH1 0x20 ADD DUP1 DUP4 GT PUSH2 0x176B JUMPI DUP3 SWAP1 SUB PUSH1 0x1F AND DUP3 ADD SWAP2 JUMPDEST POP POP POP POP POP SWAP1 POP SWAP1 JUMP JUMPDEST PUSH12 0x6765C793FA10079D0000000 DUP2 JUMP JUMPDEST PUSH12 0x7AC8DCFFB8F3090A70000000 DUP2 JUMP JUMPDEST PUSH12 0x6765C793FA10079D0000000 DUP2 JUMP JUMPDEST PUSH20 0x2345678901234567890123456789012345678901 DUP2 JUMP JUMPDEST PUSH2 0x17E2 PUSH2 0x25B2 JUMP JUMPDEST PUSH2 0x17EA PUSH2 0x2601 JUMP JUMPDEST PUSH0 PUSH1 0x11 PUSH0 CALLER PUSH20 0xFFFFFFFFFFFFFFFFFFFFFFFFFFFFFFFFFFFFFFFF AND PUSH20 0xFFFFFFFFFFFFFFFFFFFFFFFFFFFFFFFFFFFFFFFF AND DUP2 MSTORE PUSH1 0x20 ADD SWAP1 DUP2 MSTORE PUSH1 0x20 ADD PUSH0 KECCAK256 PUSH1 0x40 MLOAD DUP1 PUSH1 0x60 ADD PUSH1 0x40 MSTORE SWAP1 DUP2 PUSH0 DUP3 ADD SLOAD DUP2 MSTORE PUSH1 0x20 ADD PUSH1 0x1 DUP3 ADD SLOAD DUP2 MSTORE PUSH1 0x20 ADD PUSH1 0x2 DUP3 ADD SLOAD DUP2 MSTORE POP POP SWAP1 POP PUSH0 DUP2 PUSH0 ADD MLOAD GT PUSH2 0x1897 JUMPI PUSH1 0x40 MLOAD PUSH32 0x8C379A000000000000000000000000000000000000000000000000000000000 DUP2 MSTORE PUSH1 0x4 ADD PUSH2 0x188E SWAP1 PUSH2 0x3A18 JUMP JUMPDEST PUSH1 0x40 MLOAD DUP1 SWAP2 SUB SWAP1 REVERT JUMPDEST DUP1 PUSH1 0x40 ADD MLOAD DUP2 PUSH1 0x20 ADD MLOAD PUSH2 0x18AB SWAP2 SWAP1 PUSH2 0x31F5 JUMP JUMPDEST TIMESTAMP LT ISZERO PUSH2 0x18ED JUMPI PUSH1 0x40 MLOAD PUSH32 0x8C379A000000000000000000000000000000000000000000000000000000000 DUP2 MSTORE PUSH1 0x4 ADD PUSH2 0x18E4 SWAP1 PUSH2 0x3A80 JUMP JUMPDEST PUSH1 0x40 MLOAD DUP1 SWAP2 SUB SWAP1 REVERT JUMPDEST PUSH0 PUSH2 0x18FF DUP3 PUSH0 ADD MLOAD DUP4 PUSH1 0x40 ADD MLOAD PUSH2 0x28CB JUMP JUMPDEST SWAP1 POP PUSH2 0x1921 ADDRESS CALLER PUSH2 0x191C DUP5 DUP7 PUSH0 ADD MLOAD PUSH2 0x2981 SWAP1 SWAP2 SWAP1 PUSH4 0xFFFFFFFF AND JUMP JUMPDEST PUSH2 0x264B JUMP JUMPDEST PUSH1 0x11 PUSH0 CALLER PUSH20 0xFFFFFFFFFFFFFFFFFFFFFFFFFFFFFFFFFFFFFFFF AND PUSH20 0xFFFFFFFFFFFFFFFFFFFFFFFFFFFFFFFFFFFFFFFF AND DUP2 MSTORE PUSH1 0x20 ADD SWAP1 DUP2 MSTORE PUSH1 0x20 ADD PUSH0 KECCAK256 PUSH0 PUSH0 DUP3 ADD PUSH0 SWAP1 SSTORE PUSH1 0x1 DUP3 ADD PUSH0 SWAP1 SSTORE PUSH1 0x2 DUP3 ADD PUSH0 SWAP1 SSTORE POP POP CALLER PUSH20 0xFFFFFFFFFFFFFFFFFFFFFFFFFFFFFFFFFFFFFFFF AND PUSH32 0x6F2D3E000C89D37446B7C0374C0125068FF316D1E3EE302336478A8CD03C2336 DUP4 PUSH0 ADD MLOAD DUP4 PUSH1 0x40 MLOAD PUSH2 0x19C0 SWAP3 SWAP2 SWAP1 PUSH2 0x32B6 JUMP JUMPDEST PUSH1 0x40 MLOAD DUP1 SWAP2 SUB SWAP1 LOG2 POP POP PUSH2 0x19D2 PUSH2 0x273B JUMP JUMPDEST JUMP JUMPDEST PUSH0 PUSH2 0x19E7 PUSH2 0x19E0 PUSH2 0x2197 JUMP JUMPDEST DUP5 DUP5 PUSH2 0x21B0 JUMP JUMPDEST PUSH1 0x1 SWAP1 POP SWAP3 SWAP2 POP POP JUMP JUMPDEST PUSH20 0xA5E0829CACED8FFDD4DE3C43696C57F7D7A678FF DUP2 JUMP JUMPDEST PUSH2 0x1A11 PUSH2 0x25B2 JUMP JUMPDEST PUSH2 0x1A19 PUSH2 0x2601 JUMP JUMPDEST PUSH0 CALLVALUE GT PUSH2 0x1A5B JUMPI PUSH1 0x40 MLOAD PUSH32 0x8C379A000000000000000000000000000000000000000000000000000000000 DUP2 MSTORE PUSH1 0x4 ADD PUSH2 0x1A52 SWAP1 PUSH2 0x3B0E JUMP JUMPDEST PUSH1 0x40 MLOAD DUP1 SWAP2 SUB SWAP1 REVERT JUMPDEST PUSH0 PUSH2 0x1A8B PUSH1 0x13 SLOAD PUSH2 0x1A7D PUSH8 0xDE0B6B3A7640000 CALLVALUE PUSH2 0x2996 SWAP1 SWAP2 SWAP1 PUSH4 0xFFFFFFFF AND JUMP JUMPDEST PUSH2 0x29AB SWAP1 SWAP2 SWAP1 PUSH4 0xFFFFFFFF AND JUMP JUMPDEST SWAP1 POP PUSH2 0x1AAA PUSH20 0x6794D2AC1D6375BAC41A03B7303146BF1E8EDBEB PUSH2 0x160B JUMP JUMPDEST DUP2 GT ISZERO PUSH2 0x1AEC JUMPI PUSH1 0x40 MLOAD PUSH32 0x8C379A000000000000000000000000000000000000000000000000000000000 DUP2 MSTORE PUSH1 0x4 ADD PUSH2 0x1AE3 SWAP1 PUSH2 0x3B76 JUMP JUMPDEST PUSH1 0x40 MLOAD DUP1 SWAP2 SUB SWAP1 REVERT JUMPDEST PUSH2 0x1B0B PUSH20 0x6794D2AC1D6375BAC41A03B7303146BF1E8EDBEB CALLER DUP4 PUSH2 0x264B JUMP JUMPDEST PUSH4 0x67A2AA00 TIMESTAMP LT ISZERO DUP1 ISZERO PUSH2 0x1B23 JUMPI POP PUSH4 0x68116800 TIMESTAMP GT ISZERO JUMPDEST ISZERO PUSH2 0x1BE3 JUMPI PUSH0 PUSH10 0x69E10DE76676D0800000 DUP3 LT ISZERO PUSH2 0x1B42 JUMPI PUSH1 0xA PUSH2 0x1B45 JUMP JUMPDEST PUSH1 0x14 JUMPDEST PUSH1 0xFF AND SWAP1 POP PUSH0 PUSH2 0x1B71 PUSH1 0x64 PUSH2 0x1B63 DUP5 DUP7 PUSH2 0x2996 SWAP1 SWAP2 SWAP1 PUSH4 0xFFFFFFFF AND JUMP JUMPDEST PUSH2 0x29AB SWAP1 SWAP2 SWAP1 PUSH4 0xFFFFFFFF AND JUMP JUMPDEST SWAP1 POP PUSH2 0x1B92 PUSH20 0x3456789012345678901234567890123456789012 CALLER DUP4 PUSH2 0x264B JUMP JUMPDEST CALLER PUSH20 0xFFFFFFFFFFFFFFFFFFFFFFFFFFFFFFFFFFFFFFFF AND PUSH32 0x90BCF0048B4F2FCE00BA208729B9EDF192F9CA8C71B84845E2D94F7DFFEEDDCD DUP3 PUSH1 0x40 MLOAD PUSH2 0x1BD8 SWAP2 SWAP1 PUSH2 0x2F9F JUMP JUMPDEST PUSH1 0x40 MLOAD DUP1 SWAP2 SUB SWAP1 LOG2 POP POP JUMPDEST POP PUSH2 0x1BEC PUSH2 0x273B JUMP JUMPDEST JUMP JUMPDEST PUSH1 0xA DUP2 JUMP JUMPDEST PUSH0 PUSH1 0x1 PUSH0 DUP5 PUSH20 0xFFFFFFFFFFFFFFFFFFFFFFFFFFFFFFFFFFFFFFFF AND PUSH20 0xFFFFFFFFFFFFFFFFFFFFFFFFFFFFFFFFFFFFFFFF AND DUP2 MSTORE PUSH1 0x20 ADD SWAP1 DUP2 MSTORE PUSH1 0x20 ADD PUSH0 KECCAK256 PUSH0 DUP4 PUSH20 0xFFFFFFFFFFFFFFFFFFFFFFFFFFFFFFFFFFFFFFFF AND PUSH20 0xFFFFFFFFFFFFFFFFFFFFFFFFFFFFFFFFFFFFFFFF AND DUP2 MSTORE PUSH1 0x20 ADD SWAP1 DUP2 MSTORE PUSH1 0x20 ADD PUSH0 KECCAK256 SLOAD SWAP1 POP SWAP3 SWAP2 POP POP JUMP JUMPDEST PUSH1 0xE SLOAD DUP2 JUMP JUMPDEST PUSH20 0x1234567890123456789012345678901234567890 DUP2 JUMP JUMPDEST PUSH2 0x1C9B PUSH2 0x2091 JUMP JUMPDEST PUSH0 PUSH20 0xFFFFFFFFFFFFFFFFFFFFFFFFFFFFFFFFFFFFFFFF AND DUP2 PUSH20 0xFFFFFFFFFFFFFFFFFFFFFFFFFFFFFFFFFFFFFFFF AND SUB PUSH2 0x1D0B JUMPI PUSH0 PUSH1 0x40 MLOAD PUSH32 0x1E4FBDF700000000000000000000000000000000000000000000000000000000 DUP2 MSTORE PUSH1 0x4 ADD PUSH2 0x1D02 SWAP2 SWAP1 PUSH2 0x2FC7 JUMP JUMPDEST PUSH1 0x40 MLOAD DUP1 SWAP2 SUB SWAP1 REVERT JUMPDEST PUSH2 0x1D14 DUP2 PUSH2 0x27A6 JUMP JUMPDEST POP JUMP JUMPDEST PUSH20 0x6794D2AC1D6375BAC41A03B7303146BF1E8EDBEB DUP2 JUMP JUMPDEST PUSH2 0x1D37 PUSH2 0x2091 JUMP JUMPDEST PUSH4 0x1E13380 PUSH1 0xF SLOAD PUSH2 0x1D49 SWAP2 SWAP1 PUSH2 0x31F5 JUMP JUMPDEST TIMESTAMP LT ISZERO PUSH2 0x1D8B JUMPI PUSH1 0x40 MLOAD PUSH32 0x8C379A000000000000000000000000000000000000000000000000000000000 DUP2 MSTORE PUSH1 0x4 ADD PUSH2 0x1D82 SWAP1 PUSH2 0x3C04 JUMP JUMPDEST PUSH1 0x40 MLOAD DUP1 SWAP2 SUB SWAP1 REVERT JUMPDEST PUSH4 0x1E13380 PUSH4 0x67748580 PUSH2 0x1D9F SWAP2 SWAP1 PUSH2 0x31F5 JUMP JUMPDEST TIMESTAMP LT PUSH2 0x1DD1 JUMPI PUSH2 0x1DD0 ADDRESS PUSH20 0x6794D2AC1D6375BAC41A03B7303146BF1E8EDBEB PUSH12 0xCECB8F27F4200F3A0000000 PUSH2 0x264B JUMP JUMPDEST JUMPDEST PUSH4 0x3C26700 PUSH4 0x67748580 PUSH2 0x1DE5 SWAP2 SWAP1 PUSH2 0x31F5 JUMP JUMPDEST TIMESTAMP LT PUSH2 0x1E17 JUMPI PUSH2 0x1E16 ADDRESS PUSH20 0x6794D2AC1D6375BAC41A03B7303146BF1E8EDBEB PUSH12 0x1D14A0219E54822428000000 PUSH2 0x264B JUMP JUMPDEST JUMPDEST PUSH0 PUSH0 SWAP1 POP JUMPDEST PUSH1 0x5 DUP2 LT ISZERO PUSH2 0x2087 JUMPI PUSH0 PUSH1 0x10 PUSH0 PUSH1 0x8 DUP5 PUSH1 0x5 DUP2 LT PUSH2 0x1E3D JUMPI PUSH2 0x1E3C PUSH2 0x3584 JUMP JUMPDEST JUMPDEST ADD PUSH0 SWAP1 SLOAD SWAP1 PUSH2 0x100 EXP SWAP1 DIV PUSH20 0xFFFFFFFFFFFFFFFFFFFFFFFFFFFFFFFFFFFFFFFF AND PUSH20 0xFFFFFFFFFFFFFFFFFFFFFFFFFFFFFFFFFFFFFFFF AND PUSH20 0xFFFFFFFFFFFFFFFFFFFFFFFFFFFFFFFFFFFFFFFF AND DUP2 MSTORE PUSH1 0x20 ADD SWAP1 DUP2 MSTORE PUSH1 0x20 ADD PUSH0 KECCAK256 SLOAD GT ISZERO PUSH2 0x207A JUMPI PUSH2 0x1EE8 ADDRESS PUSH1 0x8 DUP4 PUSH1 0x5 DUP2 LT PUSH2 0x1EB6 JUMPI PUSH2 0x1EB5 PUSH2 0x3584 JUMP JUMPDEST JUMPDEST ADD PUSH0 SWAP1 SLOAD SWAP1 PUSH2 0x100 EXP SWAP1 DIV PUSH20 0xFFFFFFFFFFFFFFFFFFFFFFFFFFFFFFFFFFFFFFFF AND PUSH11 0x52B7D2DCC80CD2E4000000 PUSH2 0x264B JUMP JUMPDEST PUSH2 0x1F77 PUSH11 0x52B7D2DCC80CD2E4000000 PUSH1 0x10 PUSH0 PUSH1 0x8 DUP6 PUSH1 0x5 DUP2 LT PUSH2 0x1F0E JUMPI PUSH2 0x1F0D PUSH2 0x3584 JUMP JUMPDEST JUMPDEST ADD PUSH0 SWAP1 SLOAD SWAP1 PUSH2 0x100 EXP SWAP1 DIV PUSH20 0xFFFFFFFFFFFFFFFFFFFFFFFFFFFFFFFFFFFFFFFF AND PUSH20 0xFFFFFFFFFFFFFFFFFFFFFFFFFFFFFFFFFFFFFFFF AND PUSH20 0xFFFFFFFFFFFFFFFFFFFFFFFFFFFFFFFFFFFFFFFF AND DUP2 MSTORE PUSH1 0x20 ADD SWAP1 DUP2 MSTORE PUSH1 0x20 ADD PUSH0 KECCAK256 SLOAD PUSH2 0x259D SWAP1 SWAP2 SWAP1 PUSH4 0xFFFFFFFF AND JUMP JUMPDEST PUSH1 0x10 PUSH0 PUSH1 0x8 DUP5 PUSH1 0x5 DUP2 LT PUSH2 0x1F8E JUMPI PUSH2 0x1F8D PUSH2 0x3584 JUMP JUMPDEST JUMPDEST ADD PUSH0 SWAP1 SLOAD SWAP1 PUSH2 0x100 EXP SWAP1 DIV PUSH20 0xFFFFFFFFFFFFFFFFFFFFFFFFFFFFFFFFFFFFFFFF AND PUSH20 0xFFFFFFFFFFFFFFFFFFFFFFFFFFFFFFFFFFFFFFFF AND PUSH20 0xFFFFFFFFFFFFFFFFFFFFFFFFFFFFFFFFFFFFFFFF AND DUP2 MSTORE PUSH1 0x20 ADD SWAP1 DUP2 MSTORE PUSH1 0x20 ADD PUSH0 KECCAK256 DUP2 SWAP1 SSTORE POP PUSH1 0x8 DUP2 PUSH1 0x5 DUP2 LT PUSH2 0x2000 JUMPI PUSH2 0x1FFF PUSH2 0x3584 JUMP JUMPDEST JUMPDEST ADD PUSH0 SWAP1 SLOAD SWAP1 PUSH2 0x100 EXP SWAP1 DIV PUSH20 0xFFFFFFFFFFFFFFFFFFFFFFFFFFFFFFFFFFFFFFFF AND PUSH20 0xFFFFFFFFFFFFFFFFFFFFFFFFFFFFFFFFFFFFFFFF AND PUSH32 0xE7B379C6C1FA169E9079C25E9143B127637EEF8EC8C9D5C06DDB4AB3E1195888 PUSH11 0x52B7D2DCC80CD2E4000000 PUSH1 0x40 MLOAD PUSH2 0x2071 SWAP2 SWAP1 PUSH2 0x2F9F JUMP JUMPDEST PUSH1 0x40 MLOAD DUP1 SWAP2 SUB SWAP1 LOG2 JUMPDEST DUP1 DUP1 PUSH1 0x1 ADD SWAP2 POP POP PUSH2 0x1E1C JUMP JUMPDEST POP TIMESTAMP PUSH1 0xF DUP2 SWAP1 SSTORE POP JUMP JUMPDEST PUSH2 0x2099 PUSH2 0x2197 JUMP JUMPDEST PUSH20 0xFFFFFFFFFFFFFFFFFFFFFFFFFFFFFFFFFFFFFFFF AND PUSH2 0x20B7 PUSH2 0x16B9 JUMP JUMPDEST PUSH20 0xFFFFFFFFFFFFFFFFFFFFFFFFFFFFFFFFFFFFFFFF AND EQ PUSH2 0x2116 JUMPI PUSH2 0x20DA PUSH2 0x2197 JUMP JUMPDEST PUSH1 0x40 MLOAD PUSH32 0x118CDAA700000000000000000000000000000000000000000000000000000000 DUP2 MSTORE PUSH1 0x4 ADD PUSH2 0x210D SWAP2 SWAP1 PUSH2 0x2FC7 JUMP JUMPDEST PUSH1 0x40 MLOAD DUP1 SWAP2 SUB SWAP1 REVERT JUMPDEST JUMP JUMPDEST PUSH0 PUSH20 0xFFFFFFFFFFFFFFFFFFFFFFFFFFFFFFFFFFFFFFFF AND DUP3 PUSH20 0xFFFFFFFFFFFFFFFFFFFFFFFFFFFFFFFFFFFFFFFF AND SUB PUSH2 0x2188 JUMPI PUSH0 PUSH1 0x40 MLOAD PUSH32 0x96C6FD1E00000000000000000000000000000000000000000000000000000000 DUP2 MSTORE PUSH1 0x4 ADD PUSH2 0x217F SWAP2 SWAP1 PUSH2 0x2FC7 JUMP JUMPDEST PUSH1 0x40 MLOAD DUP1 SWAP2 SUB SWAP1 REVERT JUMPDEST PUSH2 0x2193 DUP3 PUSH0 DUP4 PUSH2 0x29C0 JUMP JUMPDEST POP POP JUMP JUMPDEST PUSH0 CALLER SWAP1 POP SWAP1 JUMP JUMPDEST PUSH2 0x21AB DUP4 DUP4 DUP4 PUSH1 0x1 PUSH2 0x2BD9 JUMP JUMPDEST POP POP POP JUMP JUMPDEST PUSH0 PUSH20 0xFFFFFFFFFFFFFFFFFFFFFFFFFFFFFFFFFFFFFFFF AND DUP4 PUSH20 0xFFFFFFFFFFFFFFFFFFFFFFFFFFFFFFFFFFFFFFFF AND SUB PUSH2 0x221E JUMPI PUSH1 0x40 MLOAD PUSH32 0x8C379A000000000000000000000000000000000000000000000000000000000 DUP2 MSTORE PUSH1 0x4 ADD PUSH2 0x2215 SWAP1 PUSH2 0x3C92 JUMP JUMPDEST PUSH1 0x40 MLOAD DUP1 SWAP2 SUB SWAP1 REVERT JUMPDEST PUSH0 PUSH20 0xFFFFFFFFFFFFFFFFFFFFFFFFFFFFFFFFFFFFFFFF AND DUP3 PUSH20 0xFFFFFFFFFFFFFFFFFFFFFFFFFFFFFFFFFFFFFFFF AND SUB PUSH2 0x228C JUMPI PUSH1 0x40 MLOAD PUSH32 0x8C379A000000000000000000000000000000000000000000000000000000000 DUP2 MSTORE PUSH1 0x4 ADD PUSH2 0x2283 SWAP1 PUSH2 0x3D20 JUMP JUMPDEST PUSH1 0x40 MLOAD DUP1 SWAP2 SUB SWAP1 REVERT JUMPDEST PUSH0 PUSH1 0x12 PUSH0 DUP6 PUSH20 0xFFFFFFFFFFFFFFFFFFFFFFFFFFFFFFFFFFFFFFFF AND PUSH20 0xFFFFFFFFFFFFFFFFFFFFFFFFFFFFFFFFFFFFFFFF AND DUP2 MSTORE PUSH1 0x20 ADD SWAP1 DUP2 MSTORE PUSH1 0x20 ADD PUSH0 KECCAK256 SLOAD SUB PUSH2 0x2313 JUMPI TIMESTAMP PUSH1 0x12 PUSH0 DUP6 PUSH20 0xFFFFFFFFFFFFFFFFFFFFFFFFFFFFFFFFFFFFFFFF AND PUSH20 0xFFFFFFFFFFFFFFFFFFFFFFFFFFFFFFFFFFFFFFFF AND DUP2 MSTORE PUSH1 0x20 ADD SWAP1 DUP2 MSTORE PUSH1 0x20 ADD PUSH0 KECCAK256 DUP2 SWAP1 SSTORE POP JUMPDEST PUSH2 0x12C PUSH1 0x12 PUSH0 DUP6 PUSH20 0xFFFFFFFFFFFFFFFFFFFFFFFFFFFFFFFFFFFFFFFF AND PUSH20 0xFFFFFFFFFFFFFFFFFFFFFFFFFFFFFFFFFFFFFFFF AND DUP2 MSTORE PUSH1 0x20 ADD SWAP1 DUP2 MSTORE PUSH1 0x20 ADD PUSH0 KECCAK256 SLOAD PUSH2 0x235E SWAP2 SWAP1 PUSH2 0x31F5 JUMP JUMPDEST TIMESTAMP LT ISZERO PUSH2 0x23A0 JUMPI PUSH1 0x40 MLOAD PUSH32 0x8C379A000000000000000000000000000000000000000000000000000000000 DUP2 MSTORE PUSH1 0x4 ADD PUSH2 0x2397 SWAP1 PUSH2 0x3D88 JUMP JUMPDEST PUSH1 0x40 MLOAD DUP1 SWAP2 SUB SWAP1 REVERT JUMPDEST PUSH1 0xD PUSH0 DUP5 PUSH20 0xFFFFFFFFFFFFFFFFFFFFFFFFFFFFFFFFFFFFFFFF AND PUSH20 0xFFFFFFFFFFFFFFFFFFFFFFFFFFFFFFFFFFFFFFFF AND DUP2 MSTORE PUSH1 0x20 ADD SWAP1 DUP2 MSTORE PUSH1 0x20 ADD PUSH0 KECCAK256 PUSH0 SWAP1 SLOAD SWAP1 PUSH2 0x100 EXP SWAP1 DIV PUSH1 0xFF AND DUP1 PUSH2 0x243B JUMPI POP PUSH1 0xD PUSH0 DUP4 PUSH20 0xFFFFFFFFFFFFFFFFFFFFFFFFFFFFFFFFFFFFFFFF AND PUSH20 0xFFFFFFFFFFFFFFFFFFFFFFFFFFFFFFFFFFFFFFFF AND DUP2 MSTORE PUSH1 0x20 ADD SWAP1 DUP2 MSTORE PUSH1 0x20 ADD PUSH0 KECCAK256 PUSH0 SWAP1 SLOAD SWAP1 PUSH2 0x100 EXP SWAP1 DIV PUSH1 0xFF AND JUMPDEST ISZERO PUSH2 0x2450 JUMPI PUSH2 0x244B DUP4 DUP4 DUP4 PUSH2 0x264B JUMP JUMPDEST PUSH2 0x2598 JUMP JUMPDEST PUSH0 PUSH0 SWAP1 POP ADDRESS PUSH20 0xFFFFFFFFFFFFFFFFFFFFFFFFFFFFFFFFFFFFFFFF AND DUP4 PUSH20 0xFFFFFFFFFFFFFFFFFFFFFFFFFFFFFFFFFFFFFFFF AND EQ DUP1 PUSH2 0x24CD JUMPI POP PUSH20 0xA5E0829CACED8FFDD4DE3C43696C57F7D7A678FF PUSH20 0xFFFFFFFFFFFFFFFFFFFFFFFFFFFFFFFFFFFFFFFF AND DUP4 PUSH20 0xFFFFFFFFFFFFFFFFFFFFFFFFFFFFFFFFFFFFFFFF AND EQ JUMPDEST ISZERO PUSH2 0x24F6 JUMPI PUSH10 0xD3C21BCECCEDA1000000 DUP3 LT PUSH2 0x24EC JUMPI PUSH1 0x1E SWAP1 POP PUSH2 0x24F1 JUMP JUMPDEST PUSH1 0xA SWAP1 POP JUMPDEST PUSH2 0x24FB JUMP JUMPDEST PUSH1 0x1 SWAP1 POP JUMPDEST PUSH0 PUSH2 0x2522 PUSH1 0x64 PUSH2 0x2514 DUP5 DUP7 PUSH2 0x2996 SWAP1 SWAP2 SWAP1 PUSH4 0xFFFFFFFF AND JUMP JUMPDEST PUSH2 0x29AB SWAP1 SWAP2 SWAP1 PUSH4 0xFFFFFFFF AND JUMP JUMPDEST SWAP1 POP PUSH0 PUSH2 0x2538 DUP3 DUP6 PUSH2 0x259D SWAP1 SWAP2 SWAP1 PUSH4 0xFFFFFFFF AND JUMP JUMPDEST SWAP1 POP PUSH0 DUP3 GT ISZERO PUSH2 0x2589 JUMPI PUSH2 0x254D DUP7 ADDRESS DUP5 PUSH2 0x264B JUMP JUMPDEST PUSH32 0x16E1D1A1108E56D85B28B399ECDA0177F0171C07015C648669AFF2BCB3D15E01 DUP4 DUP4 TIMESTAMP PUSH1 0x40 MLOAD PUSH2 0x2580 SWAP4 SWAP3 SWAP2 SWAP1 PUSH2 0x3036 JUMP JUMPDEST PUSH1 0x40 MLOAD DUP1 SWAP2 SUB SWAP1 LOG1 JUMPDEST PUSH2 0x2594 DUP7 DUP7 DUP4 PUSH2 0x264B JUMP JUMPDEST POP POP POP JUMPDEST POP POP POP JUMP JUMPDEST PUSH0 DUP2 DUP4 PUSH2 0x25AA SWAP2 SWAP1 PUSH2 0x3DA6 JUMP JUMPDEST SWAP1 POP SWAP3 SWAP2 POP POP JUMP JUMPDEST PUSH1 0x2 PUSH1 0x6 SLOAD SUB PUSH2 0x25F7 JUMPI PUSH1 0x40 MLOAD PUSH32 0x8C379A000000000000000000000000000000000000000000000000000000000 DUP2 MSTORE PUSH1 0x4 ADD PUSH2 0x25EE SWAP1 PUSH2 0x3E23 JUMP JUMPDEST PUSH1 0x40 MLOAD DUP1 SWAP2 SUB SWAP1 REVERT JUMPDEST PUSH1 0x2 PUSH1 0x6 DUP2 SWAP1 SSTORE POP JUMP JUMPDEST PUSH2 0x2609 PUSH2 0x1548 JUMP JUMPDEST ISZERO PUSH2 0x2649 JUMPI PUSH1 0x40 MLOAD PUSH32 0x8C379A000000000000000000000000000000000000000000000000000000000 DUP2 MSTORE PUSH1 0x4 ADD PUSH2 0x2640 SWAP1 PUSH2 0x3E8B JUMP JUMPDEST PUSH1 0x40 MLOAD DUP1 SWAP2 SUB SWAP1 REVERT JUMPDEST JUMP JUMPDEST PUSH0 PUSH20 0xFFFFFFFFFFFFFFFFFFFFFFFFFFFFFFFFFFFFFFFF AND DUP4 PUSH20 0xFFFFFFFFFFFFFFFFFFFFFFFFFFFFFFFFFFFFFFFF AND SUB PUSH2 0x26BB JUMPI PUSH0 PUSH1 0x40 MLOAD PUSH32 0x96C6FD1E00000000000000000000000000000000000000000000000000000000 DUP2 MSTORE PUSH1 0x4 ADD PUSH2 0x26B2 SWAP2 SWAP1 PUSH2 0x2FC7 JUMP JUMPDEST PUSH1 0x40 MLOAD DUP1 SWAP2 SUB SWAP1 REVERT JUMPDEST PUSH0 PUSH20 0xFFFFFFFFFFFFFFFFFFFFFFFFFFFFFFFFFFFFFFFF AND DUP3 PUSH20 0xFFFFFFFFFFFFFFFFFFFFFFFFFFFFFFFFFFFFFFFF AND SUB PUSH2 0x272B JUMPI PUSH0 PUSH1 0x40 MLOAD PUSH32 0xEC442F0500000000000000000000000000000000000000000000000000000000 DUP2 MSTORE PUSH1 0x4 ADD PUSH2 0x2722 SWAP2 SWAP1 PUSH2 0x2FC7 JUMP JUMPDEST PUSH1 0x40 MLOAD DUP1 SWAP2 SUB SWAP1 REVERT JUMPDEST PUSH2 0x2736 DUP4 DUP4 DUP4 PUSH2 0x29C0 JUMP JUMPDEST POP POP POP JUMP JUMPDEST PUSH1 0x1 PUSH1 0x6 DUP2 SWAP1 SSTORE POP JUMP JUMPDEST PUSH2 0x274D PUSH2 0x2DA8 JUMP JUMPDEST PUSH0 PUSH1 0x7 PUSH0 PUSH2 0x100 EXP DUP2 SLOAD DUP2 PUSH1 0xFF MUL NOT AND SWAP1 DUP4 ISZERO ISZERO MUL OR SWAP1 SSTORE POP PUSH32 0x5DB9EE0A495BF2E6FF9C91A7834C1BA4FDD244A5E8AA4E537BD38AEAE4B073AA PUSH2 0x278F PUSH2 0x2197 JUMP JUMPDEST PUSH1 0x40 MLOAD PUSH2 0x279C SWAP2 SWAP1 PUSH2 0x2FC7 JUMP JUMPDEST PUSH1 0x40 MLOAD DUP1 SWAP2 SUB SWAP1 LOG1 JUMP JUMPDEST PUSH0 PUSH1 0x5 PUSH0 SWAP1 SLOAD SWAP1 PUSH2 0x100 EXP SWAP1 DIV PUSH20 0xFFFFFFFFFFFFFFFFFFFFFFFFFFFFFFFFFFFFFFFF AND SWAP1 POP DUP2 PUSH1 0x5 PUSH0 PUSH2 0x100 EXP DUP2 SLOAD DUP2 PUSH20 0xFFFFFFFFFFFFFFFFFFFFFFFFFFFFFFFFFFFFFFFF MUL NOT AND SWAP1 DUP4 PUSH20 0xFFFFFFFFFFFFFFFFFFFFFFFFFFFFFFFFFFFFFFFF AND MUL OR SWAP1 SSTORE POP DUP2 PUSH20 0xFFFFFFFFFFFFFFFFFFFFFFFFFFFFFFFFFFFFFFFF AND DUP2 PUSH20 0xFFFFFFFFFFFFFFFFFFFFFFFFFFFFFFFFFFFFFFFF AND PUSH32 0x8BE0079C531659141344CD1FD0A4F28419497F9722A3DAAFE3B4186F6B6457E0 PUSH1 0x40 MLOAD PUSH1 0x40 MLOAD DUP1 SWAP2 SUB SWAP1 LOG3 POP POP JUMP JUMPDEST PUSH2 0x2871 PUSH2 0x2601 JUMP JUMPDEST PUSH1 0x1 PUSH1 0x7 PUSH0 PUSH2 0x100 EXP DUP2 SLOAD DUP2 PUSH1 0xFF MUL NOT AND SWAP1 DUP4 ISZERO ISZERO MUL OR SWAP1 SSTORE POP PUSH32 0x62E78CEA01BEE320CD4E420270B5EA74000D11B0C9F74754EBDBFC544B05A258 PUSH2 0x28B4 PUSH2 0x2197 JUMP JUMPDEST PUSH1 0x40 MLOAD PUSH2 0x28C1 SWAP2 SWAP1 PUSH2 0x2FC7 JUMP JUMPDEST PUSH1 0x40 MLOAD DUP1 SWAP2 SUB SWAP1 LOG1 JUMP JUMPDEST PUSH0 PUSH3 0xED4E00 DUP3 SUB PUSH2 0x2904 JUMPI PUSH2 0x28FD PUSH1 0x64 PUSH2 0x28EF PUSH1 0x1E DUP7 PUSH2 0x2996 SWAP1 SWAP2 SWAP1 PUSH4 0xFFFFFFFF AND JUMP JUMPDEST PUSH2 0x29AB SWAP1 SWAP2 SWAP1 PUSH4 0xFFFFFFFF AND JUMP JUMPDEST SWAP1 POP PUSH2 0x297B JUMP JUMPDEST PUSH4 0x1DA9C00 DUP3 SUB PUSH2 0x293D JUMPI PUSH2 0x2936 PUSH1 0x64 PUSH2 0x2928 PUSH1 0xC8 DUP7 PUSH2 0x2996 SWAP1 SWAP2 SWAP1 PUSH4 0xFFFFFFFF AND JUMP JUMPDEST PUSH2 0x29AB SWAP1 SWAP2 SWAP1 PUSH4 0xFFFFFFFF AND JUMP JUMPDEST SWAP1 POP PUSH2 0x297B JUMP JUMPDEST PUSH4 0x3B53800 DUP3 SUB PUSH2 0x2977 JUMPI PUSH2 0x2970 PUSH1 0x64 PUSH2 0x2962 PUSH2 0x1F4 DUP7 PUSH2 0x2996 SWAP1 SWAP2 SWAP1 PUSH4 0xFFFFFFFF AND JUMP JUMPDEST PUSH2 0x29AB SWAP1 SWAP2 SWAP1 PUSH4 0xFFFFFFFF AND JUMP JUMPDEST SWAP1 POP PUSH2 0x297B JUMP JUMPDEST PUSH0 SWAP1 POP JUMPDEST SWAP3 SWAP2 POP POP JUMP JUMPDEST PUSH0 DUP2 DUP4 PUSH2 0x298E SWAP2 SWAP1 PUSH2 0x31F5 JUMP JUMPDEST SWAP1 POP SWAP3 SWAP2 POP POP JUMP JUMPDEST PUSH0 DUP2 DUP4 PUSH2 0x29A3 SWAP2 SWAP1 PUSH2 0x3EA9 JUMP JUMPDEST SWAP1 POP SWAP3 SWAP2 POP POP JUMP JUMPDEST PUSH0 DUP2 DUP4 PUSH2 0x29B8 SWAP2 SWAP1 PUSH2 0x3F17 JUMP JUMPDEST SWAP1 POP SWAP3 SWAP2 POP POP JUMP JUMPDEST PUSH0 PUSH20 0xFFFFFFFFFFFFFFFFFFFFFFFFFFFFFFFFFFFFFFFF AND DUP4 PUSH20 0xFFFFFFFFFFFFFFFFFFFFFFFFFFFFFFFFFFFFFFFF AND SUB PUSH2 0x2A10 JUMPI DUP1 PUSH1 0x2 PUSH0 DUP3 DUP3 SLOAD PUSH2 0x2A04 SWAP2 SWAP1 PUSH2 0x31F5 JUMP JUMPDEST SWAP3 POP POP DUP2 SWAP1 SSTORE POP PUSH2 0x2ADE JUMP JUMPDEST PUSH0 PUSH0 PUSH0 DUP6 PUSH20 0xFFFFFFFFFFFFFFFFFFFFFFFFFFFFFFFFFFFFFFFF AND PUSH20 0xFFFFFFFFFFFFFFFFFFFFFFFFFFFFFFFFFFFFFFFF AND DUP2 MSTORE PUSH1 0x20 ADD SWAP1 DUP2 MSTORE PUSH1 0x20 ADD PUSH0 KECCAK256 SLOAD SWAP1 POP DUP2 DUP2 LT ISZERO PUSH2 0x2A99 JUMPI DUP4 DUP2 DUP4 PUSH1 0x40 MLOAD PUSH32 0xE450D38C00000000000000000000000000000000000000000000000000000000 DUP2 MSTORE PUSH1 0x4 ADD PUSH2 0x2A90 SWAP4 SWAP3 SWAP2 SWAP1 PUSH2 0x3F47 JUMP JUMPDEST PUSH1 0x40 MLOAD DUP1 SWAP2 SUB SWAP1 REVERT JUMPDEST DUP2 DUP2 SUB PUSH0 PUSH0 DUP7 PUSH20 0xFFFFFFFFFFFFFFFFFFFFFFFFFFFFFFFFFFFFFFFF AND PUSH20 0xFFFFFFFFFFFFFFFFFFFFFFFFFFFFFFFFFFFFFFFF AND DUP2 MSTORE PUSH1 0x20 ADD SWAP1 DUP2 MSTORE PUSH1 0x20 ADD PUSH0 KECCAK256 DUP2 SWAP1 SSTORE POP POP JUMPDEST PUSH0 PUSH20 0xFFFFFFFFFFFFFFFFFFFFFFFFFFFFFFFFFFFFFFFF AND DUP3 PUSH20 0xFFFFFFFFFFFFFFFFFFFFFFFFFFFFFFFFFFFFFFFF AND SUB PUSH2 0x2B25 JUMPI DUP1 PUSH1 0x2 PUSH0 DUP3 DUP3 SLOAD SUB SWAP3 POP POP DUP2 SWAP1 SSTORE POP PUSH2 0x2B6F JUMP JUMPDEST DUP1 PUSH0 PUSH0 DUP5 PUSH20 0xFFFFFFFFFFFFFFFFFFFFFFFFFFFFFFFFFFFFFFFF AND PUSH20 0xFFFFFFFFFFFFFFFFFFFFFFFFFFFFFFFFFFFFFFFF AND DUP2 MSTORE PUSH1 0x20 ADD SWAP1 DUP2 MSTORE PUSH1 0x20 ADD PUSH0 KECCAK256 PUSH0 DUP3 DUP3 SLOAD ADD SWAP3 POP POP DUP2 SWAP1 SSTORE POP JUMPDEST DUP2 PUSH20 0xFFFFFFFFFFFFFFFFFFFFFFFFFFFFFFFFFFFFFFFF AND DUP4 PUSH20 0xFFFFFFFFFFFFFFFFFFFFFFFFFFFFFFFFFFFFFFFF AND PUSH32 0xDDF252AD1BE2C89B69C2B068FC378DAA952BA7F163C4A11628F55A4DF523B3EF DUP4 PUSH1 0x40 MLOAD PUSH2 0x2BCC SWAP2 SWAP1 PUSH2 0x2F9F JUMP JUMPDEST PUSH1 0x40 MLOAD DUP1 SWAP2 SUB SWAP1 LOG3 POP POP POP JUMP JUMPDEST PUSH0 PUSH20 0xFFFFFFFFFFFFFFFFFFFFFFFFFFFFFFFFFFFFFFFF AND DUP5 PUSH20 0xFFFFFFFFFFFFFFFFFFFFFFFFFFFFFFFFFFFFFFFF AND SUB PUSH2 0x2C49 JUMPI PUSH0 PUSH1 0x40 MLOAD PUSH32 0xE602DF0500000000000000000000000000000000000000000000000000000000 DUP2 MSTORE PUSH1 0x4 ADD PUSH2 0x2C40 SWAP2 SWAP1 PUSH2 0x2FC7 JUMP JUMPDEST PUSH1 0x40 MLOAD DUP1 SWAP2 SUB SWAP1 REVERT JUMPDEST PUSH0 PUSH20 0xFFFFFFFFFFFFFFFFFFFFFFFFFFFFFFFFFFFFFFFF AND DUP4 PUSH20 0xFFFFFFFFFFFFFFFFFFFFFFFFFFFFFFFFFFFFFFFF AND SUB PUSH2 0x2CB9 JUMPI PUSH0 PUSH1 0x40 MLOAD PUSH32 0x94280D6200000000000000000000000000000000000000000000000000000000 DUP2 MSTORE PUSH1 0x4 ADD PUSH2 0x2CB0 SWAP2 SWAP1 PUSH2 0x2FC7 JUMP JUMPDEST PUSH1 0x40 MLOAD DUP1 SWAP2 SUB SWAP1 REVERT JUMPDEST DUP2 PUSH1 0x1 PUSH0 DUP7 PUSH20 0xFFFFFFFFFFFFFFFFFFFFFFFFFFFFFFFFFFFFFFFF AND PUSH20 0xFFFFFFFFFFFFFFFFFFFFFFFFFFFFFFFFFFFFFFFF AND DUP2 MSTORE PUSH1 0x20 ADD SWAP1 DUP2 MSTORE PUSH1 0x20 ADD PUSH0 KECCAK256 PUSH0 DUP6 PUSH20 0xFFFFFFFFFFFFFFFFFFFFFFFFFFFFFFFFFFFFFFFF AND PUSH20 0xFFFFFFFFFFFFFFFFFFFFFFFFFFFFFFFFFFFFFFFF AND DUP2 MSTORE PUSH1 0x20 ADD SWAP1 DUP2 MSTORE PUSH1 0x20 ADD PUSH0 KECCAK256 DUP2 SWAP1 SSTORE POP DUP1 ISZERO PUSH2 0x2DA2 JUMPI DUP3 PUSH20 0xFFFFFFFFFFFFFFFFFFFFFFFFFFFFFFFFFFFFFFFF AND DUP5 PUSH20 0xFFFFFFFFFFFFFFFFFFFFFFFFFFFFFFFFFFFFFFFF AND PUSH32 0x8C5BE1E5EBEC7D5BD14F71427D1E84F3DD0314C0F7B2291E5B200AC8C7C3B925 DUP5 PUSH1 0x40 MLOAD PUSH2 0x2D99 SWAP2 SWAP1 PUSH2 0x2F9F JUMP JUMPDEST PUSH1 0x40 MLOAD DUP1 SWAP2 SUB SWAP1 LOG3 JUMPDEST POP POP POP POP JUMP JUMPDEST PUSH2 0x2DB0 PUSH2 0x1548 JUMP JUMPDEST PUSH2 0x2DEF JUMPI PUSH1 0x40 MLOAD PUSH32 0x8C379A000000000000000000000000000000000000000000000000000000000 DUP2 MSTORE PUSH1 0x4 ADD PUSH2 0x2DE6 SWAP1 PUSH2 0x3FC6 JUMP JUMPDEST PUSH1 0x40 MLOAD DUP1 SWAP2 SUB SWAP1 REVERT JUMPDEST JUMP JUMPDEST PUSH0 DUP2 MLOAD SWAP1 POP SWAP2 SWAP1 POP JUMP JUMPDEST PUSH0 DUP3 DUP3 MSTORE PUSH1 0x20 DUP3 ADD SWAP1 POP SWAP3 SWAP2 POP POP JUMP JUMPDEST DUP3 DUP2 DUP4 MCOPY PUSH0 DUP4 DUP4 ADD MSTORE POP POP POP JUMP JUMPDEST PUSH0 PUSH1 0x1F NOT PUSH1 0x1F DUP4 ADD AND SWAP1 POP SWAP2 SWAP1 POP JUMP JUMPDEST PUSH0 PUSH2 0x2E33 DUP3 PUSH2 0x2DF1 JUMP JUMPDEST PUSH2 0x2E3D DUP2 DUP6 PUSH2 0x2DFB JUMP JUMPDEST SWAP4 POP PUSH2 0x2E4D DUP2 DUP6 PUSH1 0x20 DUP7 ADD PUSH2 0x2E0B JUMP JUMPDEST PUSH2 0x2E56 DUP2 PUSH2 0x2E19 JUMP JUMPDEST DUP5 ADD SWAP2 POP POP SWAP3 SWAP2 POP POP JUMP JUMPDEST PUSH0 PUSH1 0x20 DUP3 ADD SWAP1 POP DUP2 DUP2 SUB PUSH0 DUP4 ADD MSTORE PUSH2 0x2E79 DUP2 DUP5 PUSH2 0x2E29 JUMP JUMPDEST SWAP1 POP SWAP3 SWAP2 POP POP JUMP JUMPDEST PUSH0 PUSH1 0x40 MLOAD SWAP1 POP SWAP1 JUMP JUMPDEST PUSH0 PUSH0 REVERT JUMPDEST PUSH0 PUSH0 REVERT JUMPDEST PUSH0 PUSH20 0xFFFFFFFFFFFFFFFFFFFFFFFFFFFFFFFFFFFFFFFF DUP3 AND SWAP1 POP SWAP2 SWAP1 POP JUMP JUMPDEST PUSH0 PUSH2 0x2EBB DUP3 PUSH2 0x2E92 JUMP JUMPDEST SWAP1 POP SWAP2 SWAP1 POP JUMP JUMPDEST PUSH2 0x2ECB DUP2 PUSH2 0x2EB1 JUMP JUMPDEST DUP2 EQ PUSH2 0x2ED5 JUMPI PUSH0 PUSH0 REVERT JUMPDEST POP JUMP JUMPDEST PUSH0 DUP2 CALLDATALOAD SWAP1 POP PUSH2 0x2EE6 DUP2 PUSH2 0x2EC2 JUMP JUMPDEST SWAP3 SWAP2 POP POP JUMP JUMPDEST PUSH0 DUP2 SWAP1 POP SWAP2 SWAP1 POP JUMP JUMPDEST PUSH2 0x2EFE DUP2 PUSH2 0x2EEC JUMP JUMPDEST DUP2 EQ PUSH2 0x2F08 JUMPI PUSH0 PUSH0 REVERT JUMPDEST POP JUMP JUMPDEST PUSH0 DUP2 CALLDATALOAD SWAP1 POP PUSH2 0x2F19 DUP2 PUSH2 0x2EF5 JUMP JUMPDEST SWAP3 SWAP2 POP POP JUMP JUMPDEST PUSH0 PUSH0 PUSH1 0x40 DUP4 DUP6 SUB SLT ISZERO PUSH2 0x2F35 JUMPI PUSH2 0x2F34 PUSH2 0x2E8A JUMP JUMPDEST JUMPDEST PUSH0 PUSH2 0x2F42 DUP6 DUP3 DUP7 ADD PUSH2 0x2ED8 JUMP JUMPDEST SWAP3 POP POP PUSH1 0x20 PUSH2 0x2F53 DUP6 DUP3 DUP7 ADD PUSH2 0x2F0B JUMP JUMPDEST SWAP2 POP POP SWAP3 POP SWAP3 SWAP1 POP JUMP JUMPDEST PUSH0 DUP2 ISZERO ISZERO SWAP1 POP SWAP2 SWAP1 POP JUMP JUMPDEST PUSH2 0x2F71 DUP2 PUSH2 0x2F5D JUMP JUMPDEST DUP3 MSTORE POP POP JUMP JUMPDEST PUSH0 PUSH1 0x20 DUP3 ADD SWAP1 POP PUSH2 0x2F8A PUSH0 DUP4 ADD DUP5 PUSH2 0x2F68 JUMP JUMPDEST SWAP3 SWAP2 POP POP JUMP JUMPDEST PUSH2 0x2F99 DUP2 PUSH2 0x2EEC JUMP JUMPDEST DUP3 MSTORE POP POP JUMP JUMPDEST PUSH0 PUSH1 0x20 DUP3 ADD SWAP1 POP PUSH2 0x2FB2 PUSH0 DUP4 ADD DUP5 PUSH2 0x2F90 JUMP JUMPDEST SWAP3 SWAP2 POP POP JUMP JUMPDEST PUSH2 0x2FC1 DUP2 PUSH2 0x2EB1 JUMP JUMPDEST DUP3 MSTORE POP POP JUMP JUMPDEST PUSH0 PUSH1 0x20 DUP3 ADD SWAP1 POP PUSH2 0x2FDA PUSH0 DUP4 ADD DUP5 PUSH2 0x2FB8 JUMP JUMPDEST SWAP3 SWAP2 POP POP JUMP JUMPDEST PUSH0 PUSH1 0x20 DUP3 DUP5 SUB SLT ISZERO PUSH2 0x2FF5 JUMPI PUSH2 0x2FF4 PUSH2 0x2E8A JUMP JUMPDEST JUMPDEST PUSH0 PUSH2 0x3002 DUP5 DUP3 DUP6 ADD PUSH2 0x2F0B JUMP JUMPDEST SWAP2 POP POP SWAP3 SWAP2 POP POP JUMP JUMPDEST PUSH0 PUSH1 0x20 DUP3 DUP5 SUB SLT ISZERO PUSH2 0x3020 JUMPI PUSH2 0x301F PUSH2 0x2E8A JUMP JUMPDEST JUMPDEST PUSH0 PUSH2 0x302D DUP5 DUP3 DUP6 ADD PUSH2 0x2ED8 JUMP JUMPDEST SWAP2 POP POP SWAP3 SWAP2 POP POP JUMP JUMPDEST PUSH0 PUSH1 0x60 DUP3 ADD SWAP1 POP PUSH2 0x3049 PUSH0 DUP4 ADD DUP7 PUSH2 0x2F90 JUMP JUMPDEST PUSH2 0x3056 PUSH1 0x20 DUP4 ADD DUP6 PUSH2 0x2F90 JUMP JUMPDEST PUSH2 0x3063 PUSH1 0x40 DUP4 ADD DUP5 PUSH2 0x2F90 JUMP JUMPDEST SWAP5 SWAP4 POP POP POP POP JUMP JUMPDEST PUSH0 PUSH0 PUSH0 PUSH1 0x60 DUP5 DUP7 SUB SLT ISZERO PUSH2 0x3082 JUMPI PUSH2 0x3081 PUSH2 0x2E8A JUMP JUMPDEST JUMPDEST PUSH0 PUSH2 0x308F DUP7 DUP3 DUP8 ADD PUSH2 0x2ED8 JUMP JUMPDEST SWAP4 POP POP PUSH1 0x20 PUSH2 0x30A0 DUP7 DUP3 DUP8 ADD PUSH2 0x2ED8 JUMP JUMPDEST SWAP3 POP POP PUSH1 0x40 PUSH2 0x30B1 DUP7 DUP3 DUP8 ADD PUSH2 0x2F0B JUMP JUMPDEST SWAP2 POP POP SWAP3 POP SWAP3 POP SWAP3 JUMP JUMPDEST PUSH0 PUSH1 0xFF DUP3 AND SWAP1 POP SWAP2 SWAP1 POP JUMP JUMPDEST PUSH2 0x30D0 DUP2 PUSH2 0x30BB JUMP JUMPDEST DUP3 MSTORE POP POP JUMP JUMPDEST PUSH0 PUSH1 0x20 DUP3 ADD SWAP1 POP PUSH2 0x30E9 PUSH0 DUP4 ADD DUP5 PUSH2 0x30C7 JUMP JUMPDEST SWAP3 SWAP2 POP POP JUMP JUMPDEST PUSH0 PUSH0 PUSH1 0x40 DUP4 DUP6 SUB SLT ISZERO PUSH2 0x3105 JUMPI PUSH2 0x3104 PUSH2 0x2E8A JUMP JUMPDEST JUMPDEST PUSH0 PUSH2 0x3112 DUP6 DUP3 DUP7 ADD PUSH2 0x2F0B JUMP JUMPDEST SWAP3 POP POP PUSH1 0x20 PUSH2 0x3123 DUP6 DUP3 DUP7 ADD PUSH2 0x2F0B JUMP JUMPDEST SWAP2 POP POP SWAP3 POP SWAP3 SWAP1 POP JUMP JUMPDEST PUSH0 PUSH0 PUSH1 0x40 DUP4 DUP6 SUB SLT ISZERO PUSH2 0x3143 JUMPI PUSH2 0x3142 PUSH2 0x2E8A JUMP JUMPDEST JUMPDEST PUSH0 PUSH2 0x3150 DUP6 DUP3 DUP7 ADD PUSH2 0x2ED8 JUMP JUMPDEST SWAP3 POP POP PUSH1 0x20 PUSH2 0x3161 DUP6 DUP3 DUP7 ADD PUSH2 0x2ED8 JUMP JUMPDEST SWAP2 POP POP SWAP3 POP SWAP3 SWAP1 POP JUMP JUMPDEST PUSH32 0x4E487B7100000000000000000000000000000000000000000000000000000000 PUSH0 MSTORE PUSH1 0x22 PUSH1 0x4 MSTORE PUSH1 0x24 PUSH0 REVERT JUMPDEST PUSH0 PUSH1 0x2 DUP3 DIV SWAP1 POP PUSH1 0x1 DUP3 AND DUP1 PUSH2 0x31AF JUMPI PUSH1 0x7F DUP3 AND SWAP2 POP JUMPDEST PUSH1 0x20 DUP3 LT DUP2 SUB PUSH2 0x31C2 JUMPI PUSH2 0x31C1 PUSH2 0x316B JUMP JUMPDEST JUMPDEST POP SWAP2 SWAP1 POP JUMP JUMPDEST PUSH32 0x4E487B7100000000000000000000000000000000000000000000000000000000 PUSH0 MSTORE PUSH1 0x11 PUSH1 0x4 MSTORE PUSH1 0x24 PUSH0 REVERT JUMPDEST PUSH0 PUSH2 0x31FF DUP3 PUSH2 0x2EEC JUMP JUMPDEST SWAP2 POP PUSH2 0x320A DUP4 PUSH2 0x2EEC JUMP JUMPDEST SWAP3 POP DUP3 DUP3 ADD SWAP1 POP DUP1 DUP3 GT ISZERO PUSH2 0x3222 JUMPI PUSH2 0x3221 PUSH2 0x31C8 JUMP JUMPDEST JUMPDEST SWAP3 SWAP2 POP POP JUMP JUMPDEST PUSH32 0x4275726E2063616E206F6E6C7920626520646F6E65206F6E6365207065722079 PUSH0 DUP3 ADD MSTORE PUSH32 0x6561720000000000000000000000000000000000000000000000000000000000 PUSH1 0x20 DUP3 ADD MSTORE POP JUMP JUMPDEST PUSH0 PUSH2 0x3282 PUSH1 0x23 DUP4 PUSH2 0x2DFB JUMP JUMPDEST SWAP2 POP PUSH2 0x328D DUP3 PUSH2 0x3228 JUMP JUMPDEST PUSH1 0x40 DUP3 ADD SWAP1 POP SWAP2 SWAP1 POP JUMP JUMPDEST PUSH0 PUSH1 0x20 DUP3 ADD SWAP1 POP DUP2 DUP2 SUB PUSH0 DUP4 ADD MSTORE PUSH2 0x32AF DUP2 PUSH2 0x3276 JUMP JUMPDEST SWAP1 POP SWAP2 SWAP1 POP JUMP JUMPDEST PUSH0 PUSH1 0x40 DUP3 ADD SWAP1 POP PUSH2 0x32C9 PUSH0 DUP4 ADD DUP6 PUSH2 0x2F90 JUMP JUMPDEST PUSH2 0x32D6 PUSH1 0x20 DUP4 ADD DUP5 PUSH2 0x2F90 JUMP JUMPDEST SWAP4 SWAP3 POP POP POP JUMP JUMPDEST PUSH32 0x4D696E696D756D207374616B6520616D6F756E742069732035303020746F6B65 PUSH0 DUP3 ADD MSTORE PUSH32 0x6E73000000000000000000000000000000000000000000000000000000000000 PUSH1 0x20 DUP3 ADD MSTORE POP JUMP JUMPDEST PUSH0 PUSH2 0x3337 PUSH1 0x22 DUP4 PUSH2 0x2DFB JUMP JUMPDEST SWAP2 POP PUSH2 0x3342 DUP3 PUSH2 0x32DD JUMP JUMPDEST PUSH1 0x40 DUP3 ADD SWAP1 POP SWAP2 SWAP1 POP JUMP JUMPDEST PUSH0 PUSH1 0x20 DUP3 ADD SWAP1 POP DUP2 DUP2 SUB PUSH0 DUP4 ADD MSTORE PUSH2 0x3364 DUP2 PUSH2 0x332B JUMP JUMPDEST SWAP1 POP SWAP2 SWAP1 POP JUMP JUMPDEST PUSH32 0x496E76616C6964206475726174696F6E00000000000000000000000000000000 PUSH0 DUP3 ADD MSTORE POP JUMP JUMPDEST PUSH0 PUSH2 0x339F PUSH1 0x10 DUP4 PUSH2 0x2DFB JUMP JUMPDEST SWAP2 POP PUSH2 0x33AA DUP3 PUSH2 0x336B JUMP JUMPDEST PUSH1 0x20 DUP3 ADD SWAP1 POP SWAP2 SWAP1 POP JUMP JUMPDEST PUSH0 PUSH1 0x20 DUP3 ADD SWAP1 POP DUP2 DUP2 SUB PUSH0 DUP4 ADD MSTORE PUSH2 0x33CC DUP2 PUSH2 0x3393 JUMP JUMPDEST SWAP1 POP SWAP2 SWAP1 POP JUMP JUMPDEST PUSH32 0x496E73756666696369656E742077726F6E6720746F6B656E732062616C616E63 PUSH0 DUP3 ADD MSTORE PUSH32 0x6500000000000000000000000000000000000000000000000000000000000000 PUSH1 0x20 DUP3 ADD MSTORE POP JUMP JUMPDEST PUSH0 PUSH2 0x342D PUSH1 0x21 DUP4 PUSH2 0x2DFB JUMP JUMPDEST SWAP2 POP PUSH2 0x3438 DUP3 PUSH2 0x33D3 JUMP JUMPDEST PUSH1 0x40 DUP3 ADD SWAP1 POP SWAP2 SWAP1 POP JUMP JUMPDEST PUSH0 PUSH1 0x20 DUP3 ADD SWAP1 POP DUP2 DUP2 SUB PUSH0 DUP4 ADD MSTORE PUSH2 0x345A DUP2 PUSH2 0x3421 JUMP JUMPDEST SWAP1 POP SWAP2 SWAP1 POP JUMP JUMPDEST PUSH32 0x546F6B656E20616D6F756E74206D757374206265206772656174657220746861 PUSH0 DUP3 ADD MSTORE PUSH32 0x6E20300000000000000000000000000000000000000000000000000000000000 PUSH1 0x20 DUP3 ADD MSTORE POP JUMP JUMPDEST PUSH0 PUSH2 0x34BB PUSH1 0x23 DUP4 PUSH2 0x2DFB JUMP JUMPDEST SWAP2 POP PUSH2 0x34C6 DUP3 PUSH2 0x3461 JUMP JUMPDEST PUSH1 0x40 DUP3 ADD SWAP1 POP SWAP2 SWAP1 POP JUMP JUMPDEST PUSH0 PUSH1 0x20 DUP3 ADD SWAP1 POP DUP2 DUP2 SUB PUSH0 DUP4 ADD MSTORE PUSH2 0x34E8 DUP2 PUSH2 0x34AF JUMP JUMPDEST SWAP1 POP SWAP2 SWAP1 POP JUMP JUMPDEST PUSH32 0x496E73756666696369656E7420616C6C6F77616E636500000000000000000000 PUSH0 DUP3 ADD MSTORE POP JUMP JUMPDEST PUSH0 PUSH2 0x3523 PUSH1 0x16 DUP4 PUSH2 0x2DFB JUMP JUMPDEST SWAP2 POP PUSH2 0x352E DUP3 PUSH2 0x34EF JUMP JUMPDEST PUSH1 0x20 DUP3 ADD SWAP1 POP SWAP2 SWAP1 POP JUMP JUMPDEST PUSH0 PUSH1 0x20 DUP3 ADD SWAP1 POP DUP2 DUP2 SUB PUSH0 DUP4 ADD MSTORE PUSH2 0x3550 DUP2 PUSH2 0x3517 JUMP JUMPDEST SWAP1 POP SWAP2 SWAP1 POP JUMP JUMPDEST PUSH32 0x4E487B7100000000000000000000000000000000000000000000000000000000 PUSH0 MSTORE PUSH1 0x41 PUSH1 0x4 MSTORE PUSH1 0x24 PUSH0 REVERT JUMPDEST PUSH32 0x4E487B7100000000000000000000000000000000000000000000000000000000 PUSH0 MSTORE PUSH1 0x32 PUSH1 0x4 MSTORE PUSH1 0x24 PUSH0 REVERT JUMPDEST PUSH0 DUP2 SWAP1 POP SWAP2 SWAP1 POP JUMP JUMPDEST PUSH0 DUP2 SWAP1 POP SWAP2 SWAP1 POP JUMP JUMPDEST PUSH0 PUSH2 0x35DD PUSH2 0x35D8 PUSH2 0x35D3 DUP5 PUSH2 0x35B1 JUMP JUMPDEST PUSH2 0x35BA JUMP JUMPDEST PUSH2 0x2EEC JUMP JUMPDEST SWAP1 POP SWAP2 SWAP1 POP JUMP JUMPDEST PUSH2 0x35ED DUP2 PUSH2 0x35C3 JUMP JUMPDEST DUP3 MSTORE POP POP JUMP JUMPDEST PUSH0 DUP2 MLOAD SWAP1 POP SWAP2 SWAP1 POP JUMP JUMPDEST PUSH0 DUP3 DUP3 MSTORE PUSH1 0x20 DUP3 ADD SWAP1 POP SWAP3 SWAP2 POP POP JUMP JUMPDEST PUSH0 DUP2 SWAP1 POP PUSH1 0x20 DUP3 ADD SWAP1 POP SWAP2 SWAP1 POP JUMP JUMPDEST PUSH2 0x3625 DUP2 PUSH2 0x2EB1 JUMP JUMPDEST DUP3 MSTORE POP POP JUMP JUMPDEST PUSH0 PUSH2 0x3636 DUP4 DUP4 PUSH2 0x361C JUMP JUMPDEST PUSH1 0x20 DUP4 ADD SWAP1 POP SWAP3 SWAP2 POP POP JUMP JUMPDEST PUSH0 PUSH1 0x20 DUP3 ADD SWAP1 POP SWAP2 SWAP1 POP JUMP JUMPDEST PUSH0 PUSH2 0x3658 DUP3 PUSH2 0x35F3 JUMP JUMPDEST PUSH2 0x3662 DUP2 DUP6 PUSH2 0x35FD JUMP JUMPDEST SWAP4 POP PUSH2 0x366D DUP4 PUSH2 0x360D JUMP JUMPDEST DUP1 PUSH0 JUMPDEST DUP4 DUP2 LT ISZERO PUSH2 0x369D JUMPI DUP2 MLOAD PUSH2 0x3684 DUP9 DUP3 PUSH2 0x362B JUMP JUMPDEST SWAP8 POP PUSH2 0x368F DUP4 PUSH2 0x3642 JUMP JUMPDEST SWAP3 POP POP PUSH1 0x1 DUP2 ADD SWAP1 POP PUSH2 0x3670 JUMP JUMPDEST POP DUP6 SWAP4 POP POP POP POP SWAP3 SWAP2 POP POP JUMP JUMPDEST PUSH0 PUSH1 0xA0 DUP3 ADD SWAP1 POP PUSH2 0x36BD PUSH0 DUP4 ADD DUP9 PUSH2 0x2F90 JUMP JUMPDEST PUSH2 0x36CA PUSH1 0x20 DUP4 ADD DUP8 PUSH2 0x35E4 JUMP JUMPDEST DUP2 DUP2 SUB PUSH1 0x40 DUP4 ADD MSTORE PUSH2 0x36DC DUP2 DUP7 PUSH2 0x364E JUMP JUMPDEST SWAP1 POP PUSH2 0x36EB PUSH1 0x60 DUP4 ADD DUP6 PUSH2 0x2FB8 JUMP JUMPDEST PUSH2 0x36F8 PUSH1 0x80 DUP4 ADD DUP5 PUSH2 0x2F90 JUMP JUMPDEST SWAP7 SWAP6 POP POP POP POP POP POP JUMP JUMPDEST PUSH0 PUSH0 REVERT JUMPDEST PUSH2 0x370F DUP3 PUSH2 0x2E19 JUMP JUMPDEST DUP2 ADD DUP2 DUP2 LT PUSH8 0xFFFFFFFFFFFFFFFF DUP3 GT OR ISZERO PUSH2 0x372E JUMPI PUSH2 0x372D PUSH2 0x3557 JUMP JUMPDEST JUMPDEST DUP1 PUSH1 0x40 MSTORE POP POP POP JUMP JUMPDEST PUSH0 PUSH2 0x3740 PUSH2 0x2E81 JUMP JUMPDEST SWAP1 POP PUSH2 0x374C DUP3 DUP3 PUSH2 0x3706 JUMP JUMPDEST SWAP2 SWAP1 POP JUMP JUMPDEST PUSH0 PUSH8 0xFFFFFFFFFFFFFFFF DUP3 GT ISZERO PUSH2 0x376B JUMPI PUSH2 0x376A PUSH2 0x3557 JUMP JUMPDEST JUMPDEST PUSH1 0x20 DUP3 MUL SWAP1 POP PUSH1 0x20 DUP2 ADD SWAP1 POP SWAP2 SWAP1 POP JUMP JUMPDEST PUSH0 PUSH0 REVERT JUMPDEST PUSH0 DUP2 MLOAD SWAP1 POP PUSH2 0x378E DUP2 PUSH2 0x2EF5 JUMP JUMPDEST SWAP3 SWAP2 POP POP JUMP JUMPDEST PUSH0 PUSH2 0x37A6 PUSH2 0x37A1 DUP5 PUSH2 0x3751 JUMP JUMPDEST PUSH2 0x3737 JUMP JUMPDEST SWAP1 POP DUP1 DUP4 DUP3 MSTORE PUSH1 0x20 DUP3 ADD SWAP1 POP PUSH1 0x20 DUP5 MUL DUP4 ADD DUP6 DUP2 GT ISZERO PUSH2 0x37C9 JUMPI PUSH2 0x37C8 PUSH2 0x377C JUMP JUMPDEST JUMPDEST DUP4 JUMPDEST DUP2 DUP2 LT ISZERO PUSH2 0x37F2 JUMPI DUP1 PUSH2 0x37DE DUP9 DUP3 PUSH2 0x3780 JUMP JUMPDEST DUP5 MSTORE PUSH1 0x20 DUP5 ADD SWAP4 POP POP PUSH1 0x20 DUP2 ADD SWAP1 POP PUSH2 0x37CB JUMP JUMPDEST POP POP POP SWAP4 SWAP3 POP POP POP JUMP JUMPDEST PUSH0 DUP3 PUSH1 0x1F DUP4 ADD SLT PUSH2 0x3810 JUMPI PUSH2 0x380F PUSH2 0x3702 JUMP JUMPDEST JUMPDEST DUP2 MLOAD PUSH2 0x3820 DUP5 DUP3 PUSH1 0x20 DUP7 ADD PUSH2 0x3794 JUMP JUMPDEST SWAP2 POP POP SWAP3 SWAP2 POP POP JUMP JUMPDEST PUSH0 PUSH1 0x20 DUP3 DUP5 SUB SLT ISZERO PUSH2 0x383E JUMPI PUSH2 0x383D PUSH2 0x2E8A JUMP JUMPDEST JUMPDEST PUSH0 DUP3 ADD MLOAD PUSH8 0xFFFFFFFFFFFFFFFF DUP2 GT ISZERO PUSH2 0x385B JUMPI PUSH2 0x385A PUSH2 0x2E8E JUMP JUMPDEST JUMPDEST PUSH2 0x3867 DUP5 DUP3 DUP6 ADD PUSH2 0x37FC JUMP JUMPDEST SWAP2 POP POP SWAP3 SWAP2 POP POP JUMP JUMPDEST PUSH32 0x596F75206D7573742073656E6420736F6D65204D4154494320746F2061646420 PUSH0 DUP3 ADD MSTORE PUSH32 0x6C69717569646974790000000000000000000000000000000000000000000000 PUSH1 0x20 DUP3 ADD MSTORE POP JUMP JUMPDEST PUSH0 PUSH2 0x38CA PUSH1 0x29 DUP4 PUSH2 0x2DFB JUMP JUMPDEST SWAP2 POP PUSH2 0x38D5 DUP3 PUSH2 0x3870 JUMP JUMPDEST PUSH1 0x40 DUP3 ADD SWAP1 POP SWAP2 SWAP1 POP JUMP JUMPDEST PUSH0 PUSH1 0x20 DUP3 ADD SWAP1 POP DUP2 DUP2 SUB PUSH0 DUP4 ADD MSTORE PUSH2 0x38F7 DUP2 PUSH2 0x38BE JUMP JUMPDEST SWAP1 POP SWAP2 SWAP1 POP JUMP JUMPDEST PUSH32 0x496E73756666696369656E7420746F6B656E2062616C616E6365000000000000 PUSH0 DUP3 ADD MSTORE POP JUMP JUMPDEST PUSH0 PUSH2 0x3932 PUSH1 0x1A DUP4 PUSH2 0x2DFB JUMP JUMPDEST SWAP2 POP PUSH2 0x393D DUP3 PUSH2 0x38FE JUMP JUMPDEST PUSH1 0x20 DUP3 ADD SWAP1 POP SWAP2 SWAP1 POP JUMP JUMPDEST PUSH0 PUSH1 0x20 DUP3 ADD SWAP1 POP DUP2 DUP2 SUB PUSH0 DUP4 ADD MSTORE PUSH2 0x395F DUP2 PUSH2 0x3926 JUMP JUMPDEST SWAP1 POP SWAP2 SWAP1 POP JUMP JUMPDEST PUSH32 0x5072696365206D7573742062652067726561746572207468616E203000000000 PUSH0 DUP3 ADD MSTORE POP JUMP JUMPDEST PUSH0 PUSH2 0x399A PUSH1 0x1C DUP4 PUSH2 0x2DFB JUMP JUMPDEST SWAP2 POP PUSH2 0x39A5 DUP3 PUSH2 0x3966 JUMP JUMPDEST PUSH1 0x20 DUP3 ADD SWAP1 POP SWAP2 SWAP1 POP JUMP JUMPDEST PUSH0 PUSH1 0x20 DUP3 ADD SWAP1 POP DUP2 DUP2 SUB PUSH0 DUP4 ADD MSTORE PUSH2 0x39C7 DUP2 PUSH2 0x398E JUMP JUMPDEST SWAP1 POP SWAP2 SWAP1 POP JUMP JUMPDEST PUSH32 0x4E6F20746F6B656E73207374616B656400000000000000000000000000000000 PUSH0 DUP3 ADD MSTORE POP JUMP JUMPDEST PUSH0 PUSH2 0x3A02 PUSH1 0x10 DUP4 PUSH2 0x2DFB JUMP JUMPDEST SWAP2 POP PUSH2 0x3A0D DUP3 PUSH2 0x39CE JUMP JUMPDEST PUSH1 0x20 DUP3 ADD SWAP1 POP SWAP2 SWAP1 POP JUMP JUMPDEST PUSH0 PUSH1 0x20 DUP3 ADD SWAP1 POP DUP2 DUP2 SUB PUSH0 DUP4 ADD MSTORE PUSH2 0x3A2F DUP2 PUSH2 0x39F6 JUMP JUMPDEST SWAP1 POP SWAP2 SWAP1 POP JUMP JUMPDEST PUSH32 0x5374616B65206475726174696F6E206E6F742072656163686564000000000000 PUSH0 DUP3 ADD MSTORE POP JUMP JUMPDEST PUSH0 PUSH2 0x3A6A PUSH1 0x1A DUP4 PUSH2 0x2DFB JUMP JUMPDEST SWAP2 POP PUSH2 0x3A75 DUP3 PUSH2 0x3A36 JUMP JUMPDEST PUSH1 0x20 DUP3 ADD SWAP1 POP SWAP2 SWAP1 POP JUMP JUMPDEST PUSH0 PUSH1 0x20 DUP3 ADD SWAP1 POP DUP2 DUP2 SUB PUSH0 DUP4 ADD MSTORE PUSH2 0x3A97 DUP2 PUSH2 0x3A5E JUMP JUMPDEST SWAP1 POP SWAP2 SWAP1 POP JUMP JUMPDEST PUSH32 0x596F75206D7573742073656E6420736F6D65204D4154494320746F2062757920 PUSH0 DUP3 ADD MSTORE PUSH32 0x746F6B656E730000000000000000000000000000000000000000000000000000 PUSH1 0x20 DUP3 ADD MSTORE POP JUMP JUMPDEST PUSH0 PUSH2 0x3AF8 PUSH1 0x26 DUP4 PUSH2 0x2DFB JUMP JUMPDEST SWAP2 POP PUSH2 0x3B03 DUP3 PUSH2 0x3A9E JUMP JUMPDEST PUSH1 0x40 DUP3 ADD SWAP1 POP SWAP2 SWAP1 POP JUMP JUMPDEST PUSH0 PUSH1 0x20 DUP3 ADD SWAP1 POP DUP2 DUP2 SUB PUSH0 DUP4 ADD MSTORE PUSH2 0x3B25 DUP2 PUSH2 0x3AEC JUMP JUMPDEST SWAP1 POP SWAP2 SWAP1 POP JUMP JUMPDEST PUSH32 0x496E73756666696369656E7420746F6B656E7320666F722073616C6500000000 PUSH0 DUP3 ADD MSTORE POP JUMP JUMPDEST PUSH0 PUSH2 0x3B60 PUSH1 0x1C DUP4 PUSH2 0x2DFB JUMP JUMPDEST SWAP2 POP PUSH2 0x3B6B DUP3 PUSH2 0x3B2C JUMP JUMPDEST PUSH1 0x20 DUP3 ADD SWAP1 POP SWAP2 SWAP1 POP JUMP JUMPDEST PUSH0 PUSH1 0x20 DUP3 ADD SWAP1 POP DUP2 DUP2 SUB PUSH0 DUP4 ADD MSTORE PUSH2 0x3B8D DUP2 PUSH2 0x3B54 JUMP JUMPDEST SWAP1 POP SWAP2 SWAP1 POP JUMP JUMPDEST PUSH32 0x546F6B656E732063616E206F6E6C7920626520756E6C6F636B6564206F6E6365 PUSH0 DUP3 ADD MSTORE PUSH32 0x2070657220796561720000000000000000000000000000000000000000000000 PUSH1 0x20 DUP3 ADD MSTORE POP JUMP JUMPDEST PUSH0 PUSH2 0x3BEE PUSH1 0x29 DUP4 PUSH2 0x2DFB JUMP JUMPDEST SWAP2 POP PUSH2 0x3BF9 DUP3 PUSH2 0x3B94 JUMP JUMPDEST PUSH1 0x40 DUP3 ADD SWAP1 POP SWAP2 SWAP1 POP JUMP JUMPDEST PUSH0 PUSH1 0x20 DUP3 ADD SWAP1 POP DUP2 DUP2 SUB PUSH0 DUP4 ADD MSTORE PUSH2 0x3C1B DUP2 PUSH2 0x3BE2 JUMP JUMPDEST SWAP1 POP SWAP2 SWAP1 POP JUMP JUMPDEST PUSH32 0x45524332303A207472616E736665722066726F6D20746865207A65726F206164 PUSH0 DUP3 ADD MSTORE PUSH32 0x6472657373000000000000000000000000000000000000000000000000000000 PUSH1 0x20 DUP3 ADD MSTORE POP JUMP JUMPDEST PUSH0 PUSH2 0x3C7C PUSH1 0x25 DUP4 PUSH2 0x2DFB JUMP JUMPDEST SWAP2 POP PUSH2 0x3C87 DUP3 PUSH2 0x3C22 JUMP JUMPDEST PUSH1 0x40 DUP3 ADD SWAP1 POP SWAP2 SWAP1 POP JUMP JUMPDEST PUSH0 PUSH1 0x20 DUP3 ADD SWAP1 POP DUP2 DUP2 SUB PUSH0 DUP4 ADD MSTORE PUSH2 0x3CA9 DUP2 PUSH2 0x3C70 JUMP JUMPDEST SWAP1 POP SWAP2 SWAP1 POP JUMP JUMPDEST PUSH32 0x45524332303A207472616E7366657220746F20746865207A65726F2061646472 PUSH0 DUP3 ADD MSTORE PUSH32 0x6573730000000000000000000000000000000000000000000000000000000000 PUSH1 0x20 DUP3 ADD MSTORE POP JUMP JUMPDEST PUSH0 PUSH2 0x3D0A PUSH1 0x23 DUP4 PUSH2 0x2DFB JUMP JUMPDEST SWAP2 POP PUSH2 0x3D15 DUP3 PUSH2 0x3CB0 JUMP JUMPDEST PUSH1 0x40 DUP3 ADD SWAP1 POP SWAP2 SWAP1 POP JUMP JUMPDEST PUSH0 PUSH1 0x20 DUP3 ADD SWAP1 POP DUP2 DUP2 SUB PUSH0 DUP4 ADD MSTORE PUSH2 0x3D37 DUP2 PUSH2 0x3CFE JUMP JUMPDEST SWAP1 POP SWAP2 SWAP1 POP JUMP JUMPDEST PUSH32 0x416E74692D626F742064656C6179206E6F742070617373656400000000000000 PUSH0 DUP3 ADD MSTORE POP JUMP JUMPDEST PUSH0 PUSH2 0x3D72 PUSH1 0x19 DUP4 PUSH2 0x2DFB JUMP JUMPDEST SWAP2 POP PUSH2 0x3D7D DUP3 PUSH2 0x3D3E JUMP JUMPDEST PUSH1 0x20 DUP3 ADD SWAP1 POP SWAP2 SWAP1 POP JUMP JUMPDEST PUSH0 PUSH1 0x20 DUP3 ADD SWAP1 POP DUP2 DUP2 SUB PUSH0 DUP4 ADD MSTORE PUSH2 0x3D9F DUP2 PUSH2 0x3D66 JUMP JUMPDEST SWAP1 POP SWAP2 SWAP1 POP JUMP JUMPDEST PUSH0 PUSH2 0x3DB0 DUP3 PUSH2 0x2EEC JUMP JUMPDEST SWAP2 POP PUSH2 0x3DBB DUP4 PUSH2 0x2EEC JUMP JUMPDEST SWAP3 POP DUP3 DUP3 SUB SWAP1 POP DUP2 DUP2 GT ISZERO PUSH2 0x3DD3 JUMPI PUSH2 0x3DD2 PUSH2 0x31C8 JUMP JUMPDEST JUMPDEST SWAP3 SWAP2 POP POP JUMP JUMPDEST PUSH32 0x5265656E7472616E637947756172643A207265656E7472616E742063616C6C00 PUSH0 DUP3 ADD MSTORE POP JUMP JUMPDEST PUSH0 PUSH2 0x3E0D PUSH1 0x1F DUP4 PUSH2 0x2DFB JUMP JUMPDEST SWAP2 POP PUSH2 0x3E18 DUP3 PUSH2 0x3DD9 JUMP JUMPDEST PUSH1 0x20 DUP3 ADD SWAP1 POP SWAP2 SWAP1 POP JUMP JUMPDEST PUSH0 PUSH1 0x20 DUP3 ADD SWAP1 POP DUP2 DUP2 SUB PUSH0 DUP4 ADD MSTORE PUSH2 0x3E3A DUP2 PUSH2 0x3E01 JUMP JUMPDEST SWAP1 POP SWAP2 SWAP1 POP JUMP JUMPDEST PUSH32 0x5061757361626C653A2070617573656400000000000000000000000000000000 PUSH0 DUP3 ADD MSTORE POP JUMP JUMPDEST PUSH0 PUSH2 0x3E75 PUSH1 0x10 DUP4 PUSH2 0x2DFB JUMP JUMPDEST SWAP2 POP PUSH2 0x3E80 DUP3 PUSH2 0x3E41 JUMP JUMPDEST PUSH1 0x20 DUP3 ADD SWAP1 POP SWAP2 SWAP1 POP JUMP JUMPDEST PUSH0 PUSH1 0x20 DUP3 ADD SWAP1 POP DUP2 DUP2 SUB PUSH0 DUP4 ADD MSTORE PUSH2 0x3EA2 DUP2 PUSH2 0x3E69 JUMP JUMPDEST SWAP1 POP SWAP2 SWAP1 POP JUMP JUMPDEST PUSH0 PUSH2 0x3EB3 DUP3 PUSH2 0x2EEC JUMP JUMPDEST SWAP2 POP PUSH2 0x3EBE DUP4 PUSH2 0x2EEC JUMP JUMPDEST SWAP3 POP DUP3 DUP3 MUL PUSH2 0x3ECC DUP2 PUSH2 0x2EEC JUMP JUMPDEST SWAP2 POP DUP3 DUP3 DIV DUP5 EQ DUP4 ISZERO OR PUSH2 0x3EE3 JUMPI PUSH2 0x3EE2 PUSH2 0x31C8 JUMP JUMPDEST JUMPDEST POP SWAP3 SWAP2 POP POP JUMP JUMPDEST PUSH32 0x4E487B7100000000000000000000000000000000000000000000000000000000 PUSH0 MSTORE PUSH1 0x12 PUSH1 0x4 MSTORE PUSH1 0x24 PUSH0 REVERT JUMPDEST PUSH0 PUSH2 0x3F21 DUP3 PUSH2 0x2EEC JUMP JUMPDEST SWAP2 POP PUSH2 0x3F2C DUP4 PUSH2 0x2EEC JUMP JUMPDEST SWAP3 POP DUP3 PUSH2 0x3F3C JUMPI PUSH2 0x3F3B PUSH2 0x3EEA JUMP JUMPDEST JUMPDEST DUP3 DUP3 DIV SWAP1 POP SWAP3 SWAP2 POP POP JUMP JUMPDEST PUSH0 PUSH1 0x60 DUP3 ADD SWAP1 POP PUSH2 0x3F5A PUSH0 DUP4 ADD DUP7 PUSH2 0x2FB8 JUMP JUMPDEST PUSH2 0x3F67 PUSH1 0x20 DUP4 ADD DUP6 PUSH2 0x2F90 JUMP JUMPDEST PUSH2 0x3F74 PUSH1 0x40 DUP4 ADD DUP5 PUSH2 0x2F90 JUMP JUMPDEST SWAP5 SWAP4 POP POP POP POP JUMP JUMPDEST PUSH32 0x5061757361626C653A206E6F7420706175736564000000000000000000000000 PUSH0 DUP3 ADD MSTORE POP JUMP JUMPDEST PUSH0 PUSH2 0x3FB0 PUSH1 0x14 DUP4 PUSH2 0x2DFB JUMP JUMPDEST SWAP2 POP PUSH2 0x3FBB DUP3 PUSH2 0x3F7C JUMP JUMPDEST PUSH1 0x20 DUP3 ADD SWAP1 POP SWAP2 SWAP1 POP JUMP JUMPDEST PUSH0 PUSH1 0x20 DUP3 ADD SWAP1 POP DUP2 DUP2 SUB PUSH0 DUP4 ADD MSTORE PUSH2 0x3FDD DUP2 PUSH2 0x3FA4 JUMP JUMPDEST SWAP1 POP SWAP2 SWAP1 POP JUMP INVALID LOG2 PUSH5 0x6970667358 0x22 SLT KECCAK256 XOR TLOAD 0xC7 PREVRANDAO 0xA6 PUSH6 0xB5196C43C69C PUSH7 0x24F7B8B02D8DC6 CALLER PUSH7 0xAEF7BA096CBF1C LOG1 0xF8 0xF8 PUSH5 0x736F6C6343 STOP ADDMOD SHR STOP CALLER "
		},
		"gasEstimates": {
			"creation": {
				"codeDepositCost": "3282000",
				"executionCost": "infinite",
				"totalCost": "infinite"
			},
			"external": {
				"AIRDROP_ACCOUNT()": "508",
				"AIRDROP_TOKENS()": "415",
				"ANTI_BOT_DELAY()": "436",
				"ARGE_ACCOUNT()": "439",
				"ARGE_TOKENS()": "437",
				"BURN_AMOUNT_PER_YEAR()": "393",
				"BUY_TAX_RATE()": "392",
				"DEV_TOKENS_PER_ACCOUNT()": "415",
				"DEV_TOKENS_UNLOCK_PER_YEAR()": "393",
				"HIGH_SELL_TAX_RATE()": "416",
				"PAZARLAMA_ACCOUNT()": "485",
				"PAZARLAMA_TOKENS()": "458",
				"PRESALE_SUPPLY()": "437",
				"QUICKSWAP_ROUTER()": "484",
				"RELEASE_2026()": "438",
				"RELEASE_OTHER_YEARS()": "394",
				"SALE_ACCOUNT()": "483",
				"SELL_TAX_RATE()": "437",
				"STAKE_ODUL_ACCOUNT()": "464",
				"STAKE_ODUL_TOKENS()": "414",
				"START_DATE()": "393",
				"TOTAL_SUPPLY()": "392",
				"TRANSFER_TAX_RATE()": "394",
				"addLiquidity(uint256)": "infinite",
				"allowance(address,address)": "infinite",
				"approve(address,uint256)": "infinite",
				"balanceOf(address)": "2941",
				"burnTokens()": "infinite",
				"buyTokens()": "infinite",
				"decimals()": "451",
				"devAccounts(uint256)": "2952",
				"devLockedTokens(address)": "2892",
				"firstTransferTimestamp(address)": "2936",
				"isTaxExempt(address)": "2924",
				"lastBurnDate()": "2536",
				"lastUnlockDate()": "2493",
				"name()": "infinite",
				"owner()": "2627",
				"pause()": "infinite",
				"paused()": "2562",
				"recoverWrongTokens(address,uint256)": "infinite",
				"renounceOwnership()": "infinite",
				"stakeTokens(uint256,uint256)": "infinite",
				"stakes(address)": "infinite",
				"swapTokensForMatic(uint256)": "infinite",
				"symbol()": "infinite",
				"tokenPriceInMatic()": "2515",
				"totalSupply()": "2545",
				"transfer(address,uint256)": "infinite",
				"transferFrom(address,address,uint256)": "infinite",
				"transferOwnership(address)": "infinite",
				"unlockTokens()": "infinite",
				"unpause()": "infinite",
				"unstakeTokens()": "infinite",
				"updateTokenPrice(uint256)": "infinite"
			},
			"internal": {
				"_transferWithTax(address,address,uint256)": "infinite",
				"calculateReward(uint256,uint256)": "infinite"
			}
		},
		"methodIdentifiers": {
			"AIRDROP_ACCOUNT()": "0baeb6f2",
			"AIRDROP_TOKENS()": "a0eb5dd1",
			"ANTI_BOT_DELAY()": "5d67a82d",
			"ARGE_ACCOUNT()": "ef24b6a3",
			"ARGE_TOKENS()": "2a7eba5c",
			"BURN_AMOUNT_PER_YEAR()": "a0a32dd6",
			"BUY_TAX_RATE()": "d7069462",
			"DEV_TOKENS_PER_ACCOUNT()": "7284acfd",
			"DEV_TOKENS_UNLOCK_PER_YEAR()": "86adacfb",
			"HIGH_SELL_TAX_RATE()": "313439a2",
			"PAZARLAMA_ACCOUNT()": "a1d9cfea",
			"PAZARLAMA_TOKENS()": "9f76c57a",
			"PRESALE_SUPPLY()": "73138e4f",
			"QUICKSWAP_ROUTER()": "d0919116",
			"RELEASE_2026()": "0ab6c3df",
			"RELEASE_OTHER_YEARS()": "2b4d3517",
			"SALE_ACCOUNT()": "f6c4768b",
			"SELL_TAX_RATE()": "504deacd",
			"STAKE_ODUL_ACCOUNT()": "6a313462",
			"STAKE_ODUL_TOKENS()": "938579e1",
			"START_DATE()": "372c6533",
			"TOTAL_SUPPLY()": "902d55a5",
			"TRANSFER_TAX_RATE()": "69fcb616",
			"addLiquidity(uint256)": "51c6590a",
			"allowance(address,address)": "dd62ed3e",
			"approve(address,uint256)": "095ea7b3",
			"balanceOf(address)": "70a08231",
			"burnTokens()": "08003f78",
			"buyTokens()": "d0febe4c",
			"decimals()": "313ce567",
			"devAccounts(uint256)": "11ff860d",
			"devLockedTokens(address)": "88f7433a",
			"firstTransferTimestamp(address)": "2a9423e9",
			"isTaxExempt(address)": "16c2be6b",
			"lastBurnDate()": "ef00d224",
			"lastUnlockDate()": "1fab0f54",
			"name()": "06fdde03",
			"owner()": "8da5cb5b",
			"pause()": "8456cb59",
			"paused()": "5c975abb",
			"recoverWrongTokens(address,uint256)": "3f138d4b",
			"renounceOwnership()": "715018a6",
			"stakeTokens(uint256,uint256)": "3b7b6188",
			"stakes(address)": "16934fc4",
			"swapTokensForMatic(uint256)": "4ee9ccd0",
			"symbol()": "95d89b41",
			"tokenPriceInMatic()": "38f28e1c",
			"totalSupply()": "18160ddd",
			"transfer(address,uint256)": "a9059cbb",
			"transferFrom(address,address,uint256)": "23b872dd",
			"transferOwnership(address)": "f2fde38b",
			"unlockTokens()": "f968f493",
			"unpause()": "3f4ba83a",
			"unstakeTokens()": "a5ce413b",
			"updateTokenPrice(uint256)": "676c0d77"
		}
	},
	"abi": [
		{
			"inputs": [],
			"stateMutability": "nonpayable",
			"type": "constructor"
		},
		{
			"inputs": [
				{
					"internalType": "address",
					"name": "spender",
					"type": "address"
				},
				{
					"internalType": "uint256",
					"name": "allowance",
					"type": "uint256"
				},
				{
					"internalType": "uint256",
					"name": "needed",
					"type": "uint256"
				}
			],
			"name": "ERC20InsufficientAllowance",
			"type": "error"
		},
		{
			"inputs": [
				{
					"internalType": "address",
					"name": "sender",
					"type": "address"
				},
				{
					"internalType": "uint256",
					"name": "balance",
					"type": "uint256"
				},
				{
					"internalType": "uint256",
					"name": "needed",
					"type": "uint256"
				}
			],
			"name": "ERC20InsufficientBalance",
			"type": "error"
		},
		{
			"inputs": [
				{
					"internalType": "address",
					"name": "approver",
					"type": "address"
				}
			],
			"name": "ERC20InvalidApprover",
			"type": "error"
		},
		{
			"inputs": [
				{
					"internalType": "address",
					"name": "receiver",
					"type": "address"
				}
			],
			"name": "ERC20InvalidReceiver",
			"type": "error"
		},
		{
			"inputs": [
				{
					"internalType": "address",
					"name": "sender",
					"type": "address"
				}
			],
			"name": "ERC20InvalidSender",
			"type": "error"
		},
		{
			"inputs": [
				{
					"internalType": "address",
					"name": "spender",
					"type": "address"
				}
			],
			"name": "ERC20InvalidSpender",
			"type": "error"
		},
		{
			"inputs": [
				{
					"internalType": "address",
					"name": "owner",
					"type": "address"
				}
			],
			"name": "OwnableInvalidOwner",
			"type": "error"
		},
		{
			"inputs": [
				{
					"internalType": "address",
					"name": "account",
					"type": "address"
				}
			],
			"name": "OwnableUnauthorizedAccount",
			"type": "error"
		},
		{
			"anonymous": false,
			"inputs": [
				{
					"indexed": true,
					"internalType": "address",
					"name": "recipient",
					"type": "address"
				},
				{
					"indexed": false,
					"internalType": "uint256",
					"name": "amount",
					"type": "uint256"
				}
			],
			"name": "AirdropSent",
			"type": "event"
		},
		{
			"anonymous": false,
			"inputs": [
				{
					"indexed": true,
					"internalType": "address",
					"name": "owner",
					"type": "address"
				},
				{
					"indexed": true,
					"internalType": "address",
					"name": "spender",
					"type": "address"
				},
				{
					"indexed": false,
					"internalType": "uint256",
					"name": "value",
					"type": "uint256"
				}
			],
			"name": "Approval",
			"type": "event"
		},
		{
			"anonymous": false,
			"inputs": [
				{
					"indexed": false,
					"internalType": "uint256",
					"name": "tokenAmount",
					"type": "uint256"
				},
				{
					"indexed": false,
					"internalType": "uint256",
					"name": "maticAmount",
					"type": "uint256"
				}
			],
			"name": "LiquidityAdded",
			"type": "event"
		},
		{
			"anonymous": false,
			"inputs": [
				{
					"indexed": true,
					"internalType": "address",
					"name": "previousOwner",
					"type": "address"
				},
				{
					"indexed": true,
					"internalType": "address",
					"name": "newOwner",
					"type": "address"
				}
			],
			"name": "OwnershipTransferred",
			"type": "event"
		},
		{
			"anonymous": false,
			"inputs": [
				{
					"indexed": false,
					"internalType": "address",
					"name": "account",
					"type": "address"
				}
			],
			"name": "Paused",
			"type": "event"
		},
		{
			"anonymous": false,
			"inputs": [
				{
					"indexed": false,
					"internalType": "uint256",
					"name": "buyTax",
					"type": "uint256"
				},
				{
					"indexed": false,
					"internalType": "uint256",
					"name": "sellTax",
					"type": "uint256"
				},
				{
					"indexed": false,
					"internalType": "uint256",
					"name": "transferTax",
					"type": "uint256"
				}
			],
			"name": "TaxCollected",
			"type": "event"
		},
		{
			"anonymous": false,
			"inputs": [
				{
					"indexed": false,
					"internalType": "uint256",
					"name": "newPrice",
					"type": "uint256"
				}
			],
			"name": "TokenPriceUpdated",
			"type": "event"
		},
		{
			"anonymous": false,
			"inputs": [
				{
					"indexed": false,
					"internalType": "uint256",
					"name": "amount",
					"type": "uint256"
				},
				{
					"indexed": false,
					"internalType": "uint256",
					"name": "totalSupply",
					"type": "uint256"
				}
			],
			"name": "TokensBurned",
			"type": "event"
		},
		{
			"anonymous": false,
			"inputs": [
				{
					"indexed": true,
					"internalType": "address",
					"name": "user",
					"type": "address"
				},
				{
					"indexed": false,
					"internalType": "uint256",
					"name": "amount",
					"type": "uint256"
				},
				{
					"indexed": false,
					"internalType": "uint256",
					"name": "duration",
					"type": "uint256"
				}
			],
			"name": "TokensStaked",
			"type": "event"
		},
		{
			"anonymous": false,
			"inputs": [
				{
					"indexed": true,
					"internalType": "address",
					"name": "account",
					"type": "address"
				},
				{
					"indexed": false,
					"internalType": "uint256",
					"name": "amount",
					"type": "uint256"
				}
			],
			"name": "TokensUnlocked",
			"type": "event"
		},
		{
			"anonymous": false,
			"inputs": [
				{
					"indexed": true,
					"internalType": "address",
					"name": "user",
					"type": "address"
				},
				{
					"indexed": false,
					"internalType": "uint256",
					"name": "amount",
					"type": "uint256"
				},
				{
					"indexed": false,
					"internalType": "uint256",
					"name": "reward",
					"type": "uint256"
				}
			],
			"name": "TokensUnstaked",
			"type": "event"
		},
		{
			"anonymous": false,
			"inputs": [
				{
					"indexed": true,
					"internalType": "address",
					"name": "from",
					"type": "address"
				},
				{
					"indexed": true,
					"internalType": "address",
					"name": "to",
					"type": "address"
				},
				{
					"indexed": false,
					"internalType": "uint256",
					"name": "value",
					"type": "uint256"
				}
			],
			"name": "Transfer",
			"type": "event"
		},
		{
			"anonymous": false,
			"inputs": [
				{
					"indexed": false,
					"internalType": "address",
					"name": "account",
					"type": "address"
				}
			],
			"name": "Unpaused",
			"type": "event"
		},
		{
			"anonymous": false,
			"inputs": [
				{
					"indexed": true,
					"internalType": "address",
					"name": "recipient",
					"type": "address"
				},
				{
					"indexed": false,
					"internalType": "uint256",
					"name": "amount",
					"type": "uint256"
				}
			],
			"name": "WrongTokensRecovered",
			"type": "event"
		},
		{
			"inputs": [],
			"name": "AIRDROP_ACCOUNT",
			"outputs": [
				{
					"internalType": "address",
					"name": "",
					"type": "address"
				}
			],
			"stateMutability": "view",
			"type": "function"
		},
		{
			"inputs": [],
			"name": "AIRDROP_TOKENS",
			"outputs": [
				{
					"internalType": "uint256",
					"name": "",
					"type": "uint256"
				}
			],
			"stateMutability": "view",
			"type": "function"
		},
		{
			"inputs": [],
			"name": "ANTI_BOT_DELAY",
			"outputs": [
				{
					"internalType": "uint256",
					"name": "",
					"type": "uint256"
				}
			],
			"stateMutability": "view",
			"type": "function"
		},
		{
			"inputs": [],
			"name": "ARGE_ACCOUNT",
			"outputs": [
				{
					"internalType": "address",
					"name": "",
					"type": "address"
				}
			],
			"stateMutability": "view",
			"type": "function"
		},
		{
			"inputs": [],
			"name": "ARGE_TOKENS",
			"outputs": [
				{
					"internalType": "uint256",
					"name": "",
					"type": "uint256"
				}
			],
			"stateMutability": "view",
			"type": "function"
		},
		{
			"inputs": [],
			"name": "BURN_AMOUNT_PER_YEAR",
			"outputs": [
				{
					"internalType": "uint256",
					"name": "",
					"type": "uint256"
				}
			],
			"stateMutability": "view",
			"type": "function"
		},
		{
			"inputs": [],
			"name": "BUY_TAX_RATE",
			"outputs": [
				{
					"internalType": "uint256",
					"name": "",
					"type": "uint256"
				}
			],
			"stateMutability": "view",
			"type": "function"
		},
		{
			"inputs": [],
			"name": "DEV_TOKENS_PER_ACCOUNT",
			"outputs": [
				{
					"internalType": "uint256",
					"name": "",
					"type": "uint256"
				}
			],
			"stateMutability": "view",
			"type": "function"
		},
		{
			"inputs": [],
			"name": "DEV_TOKENS_UNLOCK_PER_YEAR",
			"outputs": [
				{
					"internalType": "uint256",
					"name": "",
					"type": "uint256"
				}
			],
			"stateMutability": "view",
			"type": "function"
		},
		{
			"inputs": [],
			"name": "HIGH_SELL_TAX_RATE",
			"outputs": [
				{
					"internalType": "uint256",
					"name": "",
					"type": "uint256"
				}
			],
			"stateMutability": "view",
			"type": "function"
		},
		{
			"inputs": [],
			"name": "PAZARLAMA_ACCOUNT",
			"outputs": [
				{
					"internalType": "address",
					"name": "",
					"type": "address"
				}
			],
			"stateMutability": "view",
			"type": "function"
		},
		{
			"inputs": [],
			"name": "PAZARLAMA_TOKENS",
			"outputs": [
				{
					"internalType": "uint256",
					"name": "",
					"type": "uint256"
				}
			],
			"stateMutability": "view",
			"type": "function"
		},
		{
			"inputs": [],
			"name": "PRESALE_SUPPLY",
			"outputs": [
				{
					"internalType": "uint256",
					"name": "",
					"type": "uint256"
				}
			],
			"stateMutability": "view",
			"type": "function"
		},
		{
			"inputs": [],
			"name": "QUICKSWAP_ROUTER",
			"outputs": [
				{
					"internalType": "address",
					"name": "",
					"type": "address"
				}
			],
			"stateMutability": "view",
			"type": "function"
		},
		{
			"inputs": [],
			"name": "RELEASE_2026",
			"outputs": [
				{
					"internalType": "uint256",
					"name": "",
					"type": "uint256"
				}
			],
			"stateMutability": "view",
			"type": "function"
		},
		{
			"inputs": [],
			"name": "RELEASE_OTHER_YEARS",
			"outputs": [
				{
					"internalType": "uint256",
					"name": "",
					"type": "uint256"
				}
			],
			"stateMutability": "view",
			"type": "function"
		},
		{
			"inputs": [],
			"name": "SALE_ACCOUNT",
			"outputs": [
				{
					"internalType": "address",
					"name": "",
					"type": "address"
				}
			],
			"stateMutability": "view",
			"type": "function"
		},
		{
			"inputs": [],
			"name": "SELL_TAX_RATE",
			"outputs": [
				{
					"internalType": "uint256",
					"name": "",
					"type": "uint256"
				}
			],
			"stateMutability": "view",
			"type": "function"
		},
		{
			"inputs": [],
			"name": "STAKE_ODUL_ACCOUNT",
			"outputs": [
				{
					"internalType": "address",
					"name": "",
					"type": "address"
				}
			],
			"stateMutability": "view",
			"type": "function"
		},
		{
			"inputs": [],
			"name": "STAKE_ODUL_TOKENS",
			"outputs": [
				{
					"internalType": "uint256",
					"name": "",
					"type": "uint256"
				}
			],
			"stateMutability": "view",
			"type": "function"
		},
		{
			"inputs": [],
			"name": "START_DATE",
			"outputs": [
				{
					"internalType": "uint256",
					"name": "",
					"type": "uint256"
				}
			],
			"stateMutability": "view",
			"type": "function"
		},
		{
			"inputs": [],
			"name": "TOTAL_SUPPLY",
			"outputs": [
				{
					"internalType": "uint256",
					"name": "",
					"type": "uint256"
				}
			],
			"stateMutability": "view",
			"type": "function"
		},
		{
			"inputs": [],
			"name": "TRANSFER_TAX_RATE",
			"outputs": [
				{
					"internalType": "uint256",
					"name": "",
					"type": "uint256"
				}
			],
			"stateMutability": "view",
			"type": "function"
		},
		{
			"inputs": [
				{
					"internalType": "uint256",
					"name": "tokenAmount",
					"type": "uint256"
				}
			],
			"name": "addLiquidity",
			"outputs": [],
			"stateMutability": "payable",
			"type": "function"
		},
		{
			"inputs": [
				{
					"internalType": "address",
					"name": "owner",
					"type": "address"
				},
				{
					"internalType": "address",
					"name": "spender",
					"type": "address"
				}
			],
			"name": "allowance",
			"outputs": [
				{
					"internalType": "uint256",
					"name": "",
					"type": "uint256"
				}
			],
			"stateMutability": "view",
			"type": "function"
		},
		{
			"inputs": [
				{
					"internalType": "address",
					"name": "spender",
					"type": "address"
				},
				{
					"internalType": "uint256",
					"name": "value",
					"type": "uint256"
				}
			],
			"name": "approve",
			"outputs": [
				{
					"internalType": "bool",
					"name": "",
					"type": "bool"
				}
			],
			"stateMutability": "nonpayable",
			"type": "function"
		},
		{
			"inputs": [
				{
					"internalType": "address",
					"name": "account",
					"type": "address"
				}
			],
			"name": "balanceOf",
			"outputs": [
				{
					"internalType": "uint256",
					"name": "",
					"type": "uint256"
				}
			],
			"stateMutability": "view",
			"type": "function"
		},
		{
			"inputs": [],
			"name": "burnTokens",
			"outputs": [],
			"stateMutability": "nonpayable",
			"type": "function"
		},
		{
			"inputs": [],
			"name": "buyTokens",
			"outputs": [],
			"stateMutability": "payable",
			"type": "function"
		},
		{
			"inputs": [],
			"name": "decimals",
			"outputs": [
				{
					"internalType": "uint8",
					"name": "",
					"type": "uint8"
				}
			],
			"stateMutability": "view",
			"type": "function"
		},
		{
			"inputs": [
				{
					"internalType": "uint256",
					"name": "",
					"type": "uint256"
				}
			],
			"name": "devAccounts",
			"outputs": [
				{
					"internalType": "address",
					"name": "",
					"type": "address"
				}
			],
			"stateMutability": "view",
			"type": "function"
		},
		{
			"inputs": [
				{
					"internalType": "address",
					"name": "",
					"type": "address"
				}
			],
			"name": "devLockedTokens",
			"outputs": [
				{
					"internalType": "uint256",
					"name": "",
					"type": "uint256"
				}
			],
			"stateMutability": "view",
			"type": "function"
		},
		{
			"inputs": [
				{
					"internalType": "address",
					"name": "",
					"type": "address"
				}
			],
			"name": "firstTransferTimestamp",
			"outputs": [
				{
					"internalType": "uint256",
					"name": "",
					"type": "uint256"
				}
			],
			"stateMutability": "view",
			"type": "function"
		},
		{
			"inputs": [
				{
					"internalType": "address",
					"name": "",
					"type": "address"
				}
			],
			"name": "isTaxExempt",
			"outputs": [
				{
					"internalType": "bool",
					"name": "",
					"type": "bool"
				}
			],
			"stateMutability": "view",
			"type": "function"
		},
		{
			"inputs": [],
			"name": "lastBurnDate",
			"outputs": [
				{
					"internalType": "uint256",
					"name": "",
					"type": "uint256"
				}
			],
			"stateMutability": "view",
			"type": "function"
		},
		{
			"inputs": [],
			"name": "lastUnlockDate",
			"outputs": [
				{
					"internalType": "uint256",
					"name": "",
					"type": "uint256"
				}
			],
			"stateMutability": "view",
			"type": "function"
		},
		{
			"inputs": [],
			"name": "name",
			"outputs": [
				{
					"internalType": "string",
					"name": "",
					"type": "string"
				}
			],
			"stateMutability": "view",
			"type": "function"
		},
		{
			"inputs": [],
			"name": "owner",
			"outputs": [
				{
					"internalType": "address",
					"name": "",
					"type": "address"
				}
			],
			"stateMutability": "view",
			"type": "function"
		},
		{
			"inputs": [],
			"name": "pause",
			"outputs": [],
			"stateMutability": "nonpayable",
			"type": "function"
		},
		{
			"inputs": [],
			"name": "paused",
			"outputs": [
				{
					"internalType": "bool",
					"name": "",
					"type": "bool"
				}
			],
			"stateMutability": "view",
			"type": "function"
		},
		{
			"inputs": [
				{
					"internalType": "address",
					"name": "recipient",
					"type": "address"
				},
				{
					"internalType": "uint256",
					"name": "amount",
					"type": "uint256"
				}
			],
			"name": "recoverWrongTokens",
			"outputs": [],
			"stateMutability": "nonpayable",
			"type": "function"
		},
		{
			"inputs": [],
			"name": "renounceOwnership",
			"outputs": [],
			"stateMutability": "nonpayable",
			"type": "function"
		},
		{
			"inputs": [
				{
					"internalType": "uint256",
					"name": "amount",
					"type": "uint256"
				},
				{
					"internalType": "uint256",
					"name": "duration",
					"type": "uint256"
				}
			],
			"name": "stakeTokens",
			"outputs": [],
			"stateMutability": "nonpayable",
			"type": "function"
		},
		{
			"inputs": [
				{
					"internalType": "address",
					"name": "",
					"type": "address"
				}
			],
			"name": "stakes",
			"outputs": [
				{
					"internalType": "uint256",
					"name": "amount",
					"type": "uint256"
				},
				{
					"internalType": "uint256",
					"name": "startTime",
					"type": "uint256"
				},
				{
					"internalType": "uint256",
					"name": "duration",
					"type": "uint256"
				}
			],
			"stateMutability": "view",
			"type": "function"
		},
		{
			"inputs": [
				{
					"internalType": "uint256",
					"name": "tokenAmount",
					"type": "uint256"
				}
			],
			"name": "swapTokensForMatic",
			"outputs": [],
			"stateMutability": "nonpayable",
			"type": "function"
		},
		{
			"inputs": [],
			"name": "symbol",
			"outputs": [
				{
					"internalType": "string",
					"name": "",
					"type": "string"
				}
			],
			"stateMutability": "view",
			"type": "function"
		},
		{
			"inputs": [],
			"name": "tokenPriceInMatic",
			"outputs": [
				{
					"internalType": "uint256",
					"name": "",
					"type": "uint256"
				}
			],
			"stateMutability": "view",
			"type": "function"
		},
		{
			"inputs": [],
			"name": "totalSupply",
			"outputs": [
				{
					"internalType": "uint256",
					"name": "",
					"type": "uint256"
				}
			],
			"stateMutability": "view",
			"type": "function"
		},
		{
			"inputs": [
				{
					"internalType": "address",
					"name": "recipient",
					"type": "address"
				},
				{
					"internalType": "uint256",
					"name": "amount",
					"type": "uint256"
				}
			],
			"name": "transfer",
			"outputs": [
				{
					"internalType": "bool",
					"name": "",
					"type": "bool"
				}
			],
			"stateMutability": "nonpayable",
			"type": "function"
		},
		{
			"inputs": [
				{
					"internalType": "address",
					"name": "sender",
					"type": "address"
				},
				{
					"internalType": "address",
					"name": "recipient",
					"type": "address"
				},
				{
					"internalType": "uint256",
					"name": "amount",
					"type": "uint256"
				}
			],
			"name": "transferFrom",
			"outputs": [
				{
					"internalType": "bool",
					"name": "",
					"type": "bool"
				}
			],
			"stateMutability": "nonpayable",
			"type": "function"
		},
		{
			"inputs": [
				{
					"internalType": "address",
					"name": "newOwner",
					"type": "address"
				}
			],
			"name": "transferOwnership",
			"outputs": [],
			"stateMutability": "nonpayable",
			"type": "function"
		},
		{
			"inputs": [],
			"name": "unlockTokens",
			"outputs": [],
			"stateMutability": "nonpayable",
			"type": "function"
		},
		{
			"inputs": [],
			"name": "unpause",
			"outputs": [],
			"stateMutability": "nonpayable",
			"type": "function"
		},
		{
			"inputs": [],
			"name": "unstakeTokens",
			"outputs": [],
			"stateMutability": "nonpayable",
			"type": "function"
		},
		{
			"inputs": [
				{
					"internalType": "uint256",
					"name": "newPrice",
					"type": "uint256"
				}
			],
			"name": "updateTokenPrice",
			"outputs": [],
			"stateMutability": "nonpayable",
			"type": "function"
		}
	]
}